:100000000C942A000C9447000C9447000C94470071
:100010000C9447000C9447000C9447000C94470044
:100020000C9447000C9447000C940B010C9447006F
:100030000C9447000C9447000C9447000C94470024
:100040000C9447000C9447000C9447000C94470014
:100050000C94470011241FBECFE5D8E0DEBFCDBF12
:1000600010E0A0E6B0E0E8E8F2E002C005900D92F2
:10007000AA36B107D9F710E0AAE6B0E001C01D9298
:10008000AD36B107E1F70E9449000C9442010C948F
:100090000000DF92EF92FF920F931F93CF93DF93B5
:1000A00083B7886083BF83B7856083BF81E08CBFDF
:1000B00089B7826089BF8FEF8ABB84BB8BBB15BABF
:1000C00011BA82BB50E02EEFD22EC0E1D7E21FEF73
:1000D0009DEFE92E8BEFF82E07EFA4EFB1E001C002
:1000E00051E080916B0020916B0030916A0040914B
:1000F0006A00D5BA6AE00E943601E82FF0E0E05AC3
:10010000FF4F80818BBBCE010197F1F715BBE5BA9C
:10011000822F0E943601E92FF0E0E05AFF4F8081E4
:100120008BBBCE010197F1F715BBF5BA832F0E9467
:100130003601E82FF0E0E05AFF4F80818BBBCE0103
:100140000197F1F715BB05BB842F0E943601E92FFB
:10015000F0E0E05AFF4F80818BBBCE010197F1F7B1
:1001600080990EC084EF91E0FD013197F1F701977E
:10017000D9F7809905C080916B00865F80936B00F2
:1001800081990EC084EF91E0FD013197F1F701975D
:10019000D9F7819905C080916B008F5F80936B00C8
:1001A00082990EC084EF91E0FD013197F1F701973C
:1001B000D9F7829905C080916A00865F80936A00B2
:1001C00083990EC084EF91E0FD013197F1F701971B
:1001D000D9F7839905C080916A008F5F80936A0088
:1001E00084997FCF513011F4F89480B384EF91E07B
:1001F000FD013197F1F70197D9F7849972CF552313
:1002000009F06FCF789484EF91E0FD013197F1F719
:100210000197D9F765CF1F920F920FB60F92112455
:100220008F9380916C008F5F80936C00843690F088
:1002300010926C0080916A008F5F80936A008091B9
:100240006A008C3338F010926A0080916B008F5FE7
:1002500080936B0080916B008C3310F010926B00D8
:100260008F910F900FBE0F901F901895991B79E0FA
:1002700004C0991F961708F0961B881F7A95C9F736
:0802800080950895F894FFCF6A
:0A028800C0F9A4B0999282D88090CA
:00000001FF
