:100000000C9432000C944F000C944F000C944F0051
:100010000C944F000C944F000C944F000C944F0024
:100020000C944F000C944F000C9466000C944F00FD
:100030000C944F000C944F000C944F000C944F0004
:100040000C944F000C944F000C944F000C944F00F4
:100050000C944F00C0F9A4B0999282D88090FF0010
:100060000000000011241FBECFE5D8E0DEBFCDBFE9
:1000700010E0A0E6B0E0E8E8F1E002C005900D92E3
:10008000A236B107D9F710E0A2E6B0E001C01D9298
:10009000A636B107E1F70E94B3000C94C2000C949D
:1000A00000008FEF84BB85BB81B38F6081BB82B3BF
:1000B0008F6082BB83B7886083BF83B7856083BF4F
:1000C00087E28CBF89B7826089BF08951F920F9223
:1000D0000FB60F9211242F938F939F93EF93FF935B
:1000E00082B3807F82BB20916000213039F4E0919F
:1000F0006300F0E0EC5AFF4FE4911AC0223039F46B
:10010000E0916400F0E0EC5AFF4FE49111C024301C
:1001100039F4E0916500F0E0EC5AFF4FE49108C03B
:10012000283039F4E0916200F0E0EC5AFF4FE4919E
:10013000E5BB82B3922F90959F70807F982B92BBE6
:10014000822F880F80936000893018F081E08093BF
:100150006000FF91EF919F918F912F910F900FBEB3
:100160000F901F9018950E9451008AE080936300C1
:1001700094E09093640091E0909365008093620016
:080180007894FFCFF894FFCF43
:02018800010074
:00000001FF
