:100000000C942A000C9434000C9434000C943400AA
:100010000C9434000C9434000C9434000C94340090
:100020000C9434000C9434000C9434000C94340080
:100030000C9434000C9434000C9434000C94340070
:100040000C9434000C9434000C9434000C94340060
:100050000C94340011241FBECFE5D8E0DEBFCDBF25
:100060000E948D010C94B8010C94000088E387BBBA
:100070008FEF88BB0895C498C598662311F4C39880
:1000800001C0C39AC59A27E030E0482F50E0C598D8
:10009000CA01022E02C0959587950A94E2F780FD69
:1000A00002C0C39801C0C39AC59A215030408FEF57
:1000B0002F3F380761F7C49A08950F931F93CF938A
:1000C000DF9381E060E00E943B0000E01CE6C80195
:1000D0000197F1F786EC60E00E943B00C8010197B0
:1000E000F1F789EB60E00E943B0080E061E00E9454
:1000F0003B0086EB60E00E943B0080E861E00E94EC
:100100003B0080E861E00E943B0081E861E00E94E2
:100110003B0084E561E00E943B0085E461E00E94D1
:100120003B0082E561E00E943B0083E461E00E94C5
:100130003B0083EB60E00E943B0081E061E00E94B5
:100140003B0082E061E00E943B0084E061E00E94AD
:100150003B0088E061E00E943B0080E161E00E949A
:100160003B008EE161E00E943B0088E261E00E947A
:100170003B0082E361E00E943B008CE361E00E946F
:100180003B0086E461E00E943B0080E561E00E9464
:100190003B008AE561E00E943B0084E661E00E944A
:1001A0003B008EE661E00E943B008FE761E00E9429
:1001B0003B0085EB60E00E943B0081E061E00E9433
:1001C0003B008DEB60E00E943B0080E061E00E941C
:1001D0003B008EEB60E00E943B0084E061E00E9407
:1001E0003B0081E160E00E943B0087EB60E00E9401
:1001F0003B00C0E0D0E080E061E00E943B0021963F
:10020000CF30D105C1F783E060E00E943B0080E978
:1002100091E024E131E0F9013197F1F70197D9F745
:1002200080E260E00E943B008AEB60E00E943B00BD
:1002300085E761E00E943B0083E061E00E943B00B3
:1002400085E260E00E943B008FE361E00E943B009A
:100250008DE260E00E943B0080E061E00E943B0094
:1002600082E061E00E943B0084E061E00E943B008C
:1002700086EC61E00E943B0089E061E00E943B0067
:100280008BE061E00E943B008DE061E00E943B005A
:100290008FE061E00E943B0080E061E00E943B0053
:1002A00082E061E00E943B0084E061E00E943B004C
:1002B00086EC61E00E943B0089E061E00E943B0027
:1002C0008BE061E00E943B008DE061E00E943B001A
:1002D0008FE061E00E943B0080E061E00E943B0013
:1002E00085E061E00E943B008AE061E00E943B0003
:1002F0008FE061E00E943B008AE360E00E943B00E7
:1003000082E061E00E943B0089E260E00E943B00E5
:10031000DF91CF911F910F9108951F93CF93DF939A
:1003200080EC81BB88E387BB8FEF88BB0E945D00B8
:1003300012BA8CE260E00E943B00C0E0D0E020975F
:1003400011F41FEF0BC087E0C03DD80711F41CE18A
:1003500005C08FE0C03AD80709F413E0812F61E0AF
:100360000E943B00219689E1C63AD80741F7E1CFC8
:04037000F894FFCF2F
:00000001FF
