:100000000C942A000C943C000C943C000C943C0092
:100010000C9499000C943C000C943C000C943C0013
:100020000C943C000C943C000C943C000C943C0060
:100030000C943C000C943C000C943C000C943C0050
:100040000C943C000C943C000C943C000C943C0040
:100050000C943C0011241FBECFE5D8E0DEBFCDBF1D
:1000600010E0A0E6B0E001C01D92A736B107E1F7AD
:100070000E943E000C94C1000C94000084B3876081
:1000800084BB85B5886085BD85B5816085BD88ECFC
:1000900083BD89B7806889BF7894109261001092FF
:1000A00062001092650020E04CEC50E464E171E0E5
:1000B00006C020936100CA010197F1F72F5F2F3F1F
:1000C000C1F720E020936200CA010197F1F72F5F8A
:1000D0002F3FC1F720E020936500CA010197F1F797
:1000E0002F5F2F3FC1F780E197E2FB013197F1F7D6
:1000F0000197D9F720936100CA010197F1F72150C8
:10010000C9F728EC20936200CA010197F1F721504A
:10011000C9F728EC20936500CA010197F1F7215037
:10012000C9F786E19EE4FB013197F1F70197D9F712
:10013000C0CF1F920F920FB60F9211248F939F93EF
:100140009091600080916100981710F0A89801C00C
:10015000A89A80916200981710F0A99801C0A99AF6
:1001600080916500981710F0AA9801C0AA9A9F5F25
:10017000909360009F918F910F900FBE0F901F90F2
:060180001895F894FFCF72
:00000001FF
