:100000000C942D000C944A000C944A000C944A0065
:100010000C9440010C944A000C944A000C944A0041
:100020000C944A000C944A000C944C000C944A0026
:100030000C944A000C944A000C944A000C944A0018
:100040000C944A000C944A000C944A000C944A0008
:100050000C944A0061767A71000011241FBECFE52E
:10006000D8E0DEBFCDBF10E0A0E6B0E0EAE0F4E506
:1000700002C005900D92AC3EB107D9F714E0ACEE8A
:10008000B0E001C01D92A93CB107E1F70E947400E5
:100090000C94032A0C9400001F920F920FB60F923B
:1000A00011248F939F938091470490914804019667
:1000B00090934804809347049F918F910F900FBEB7
:1000C0000F901F90189560EA7DE885E59DE30895FF
:1000D00083B7886083BF83B7856083BF8BE68CBF9F
:1000E00089B7826089BF08958F929F92AF92BF9225
:1000F000CF92DF92EF92FF920F931F93DF93CF93F4
:10010000CDB7DEB7CF55D2400FB6F894DEBF0FBEE5
:10011000CDBF9FEF9BBB80EB88BB80EC87BB95BBC3
:1001200092BB88E085BD87E085BD8CE683BD89B73D
:10013000806889BF78940E94060287B3806B87BB72
:10014000C49A8DB180658DB9709A80E690E00E9466
:10015000D20180E197E224E131E0F9013197F1F732
:100160000197D9F780E00E94352680E0BE01625DEC
:100170007F4F0E941C033EE0E32EF12CEC0EFD1E8F
:10018000C70167E670E04AE00E940621882E809150
:100190004704909148040196909348048093470443
:1001A0000E946800E4E5F0E0E491C7016E2F70E082
:1001B00045E050E08E010F5F1F4F98010E94661BC3
:1001C000C7016CEE70E041E050E098010E94661BB0
:1001D000982E809147049091480427E0A22EB12CDC
:1001E000AC0EBD1EB5014AE050E00E94BE2983E07E
:1001F000C82ED12CCC0EDD1E882D90E0B6014AE031
:1002000050E00E94BE298E010B5F1F4F892D90E0A8
:10021000B8014AE050E00E94BE29C7010E94320C9A
:1002200080E060E070E00E941C0381E060E00E94DA
:10023000FA0181E790E00E94D201C6010E94D2013A
:10024000C8010E94D2018AE790E00E94D201C50154
:100250000E94D20180E090E0C15ADD4F0FB6F894C1
:10026000DEBF0FBECDBFCF91DF911F910F91FF90E9
:10027000EF90DF90CF90BF90AF909F908F900895B8
:100280001F920F920FB60F9211242F933F934F930B
:100290005F936F937F938F939F93AF93BF93EF93EE
:1002A000FF93809141039091420301969093420302
:1002B000809341030E946529FF91EF91BF91AF9117
:1002C0009F918F917F916F915F914F913F912F916E
:1002D0000F900FBE0F901F90189580FF02C0DB9A01
:1002E00001C0DB9881FF02C0DC9A01C0DC9882FF6C
:1002F00002C0DD9A01C0DD9883FF02C0DE9A089536
:10030000DE98089589B390E023E0969587952A9525
:10031000E1F78170CC998260CD998460CE99886034
:1003200008951F93D698D598D498D398D99ADA9AE5
:100330000E948201182F1295107FDA98DA9A0E9493
:100340008201DA98812B1F910895D8980E9491011B
:1003500008951F93182FD69AD59AD49AD39AD998DC
:10036000DA9A82958F700E946D01DA98DA9A812F5D
:100370000E946D01DA980E94A50187FDFCCF1F91B4
:100380000895D8980E94A9010895D89A0E94A901B9
:100390000895982F8058883008F49770892F0E940C
:1003A000C5010895CF93DF93EC0108C0892F8058D1
:1003B000883008F49770892F0E94C501999199237C
:1003C000A9F7DF91CF910895CF93DF93EC010AC095
:1003D000892F8058883010F0892F02C0892F8770AC
:1003E0000E94C501FE0121969491992389F7DF911E
:1003F000CF910895813009F480E46058860F0E94FF
:10040000C101089581E00E94C10108950F931F93D7
:10041000D69AD59AD49AD39AD09AD29AD19AD89871
:10042000DA98D99880E092EA0197F1F7D898D998AC
:1004300080E30E946D0187E49CE20197F1F780E37D
:100440000E946D0104E111E0C8010197F1F780E21B
:100450000E946D01C8010197F1F788E20E94C10175
:1004600088E00E94C1018CE00E94C10186E00E94E8
:10047000C1010E9402021F910F910895DF93CF9353
:10048000CDB7DEB761970FB6F894DEBF0FBECDBF14
:10049000BE016F5F7F4F4AE050E00E94BE290E947C
:1004A000D20161960FB6F894DEBF0FBECDBFCF91DB
:1004B000DF9108950F931F93CF93DF938C01EB018E
:1004C000BA0120E030E00EC0F801E20FF31FDE01B8
:1004D000A20FB31F8D919C91918380834250504015
:1004E0002E5F3F4F4230510578F7CB018E7FDE0102
:1004F000A80FB91FF801E80FF91F60FF02C08C9127
:100500008083DF91CF911F910F910895EF92FF9219
:100510000F931F93CF93DF93EC017A018B018EEF42
:100520009FEFAFEFBFEFE80EF91E0A1F1B1F8A8D6A
:100530009B8DAC8DBD8D0297A109B109E816F90616
:100540000A071B0728F020E030E040E050E012C02E
:100550002A8130E040E050E0C801B7010E947D29C7
:100560009B01AC018AA59BA5ACA5BDA5280F391F91
:100570004A1F5B1FB901CA01DF91CF911F910F91F3
:10058000FF90EF900895CF93DF93FC01AB01EB0157
:10059000299686859785A089B1890097A105B1051F
:1005A00009F446C02289338980E090E0F901E80F20
:1005B000F91FE081E03241F0E53009F4E5EEE9931E
:1005C00001968830910591F7D90118968C91803267
:1005D00011F4FE0111C0FE018EE28193D901BE012A
:1005E0006C5F7F4F18968C911897803229F0819319
:1005F0001196E617F707B1F7E9018B85DA0118962E
:100600008C938C8D9D8DAE8DBF8DEA0188839983EF
:10061000AA83BB83D90158968D919C9159979D834C
:100620008C8356968D919C9157979F838E83EF0173
:100630001882DF91CF910895DB01882311F08BE0C0
:100640000895E091ED00F091EE00309709F01082EE
:10065000109709F01C92B093EE00A093ED0080E09B
:100660000895882311F08BE008951092F10080E046
:1006700008952F923F924F925F926F927F928F9246
:100680009F92AF92BF92CF92DF92EF92FF920F9321
:100690001F93DF93CF93CDB7DEB7A8970FB6F8942B
:1006A000DEBF0FBECDBF6CA38A01882311F08BE0A3
:1006B00056C46090ED007090EE006114710411F466
:1006C0008CE04DC4D3011C9280E00E94352680FF4F
:1006D00002C083E044C482FF02C08AE040C480E0DC
:1006E00061E0AE014B5F5F4F0E94C427882309F091
:1006F00033C46D817E818F81988560387105810555
:10070000910508F429C4BCA1BB2351F42FE3C22EE8
:10071000D12CE12CF12CCD8ADE8AEF8AF88E04C030
:100720001D8A1E8A1F8A188E9B01AC01CD88DE8827
:10073000EF88F88C2C193D094E095F0928A339A3CD
:100740004AA35BA3C801019780239123892B19F445
:100750000115110519F568A179A18AA19BA120EDC8
:1007600037E040E050E00E949C2979018A0125EDA4
:1007700030E0E0E0F0E001C03196D9018D919D912B
:100780009D01A0E0B0E0E816F9060A071B07A0F3F8
:10079000EE0FFF1FE154FF4F008111814801892CAA
:1007A000992486948114910419F4F1E08F2E912CF0
:1007B0006401EE24FF24CC8EDD8EEE8EFF8E68A1C8
:1007C00079A18AA19BA1A70196010E949C29C90138
:1007D000DA01863F2FE0920720E0A20720E0B2076F
:1007E00050F0863F3FEF930730E0A30730E0B307B8
:1007F00008F0CEC3F6C39C01AD01220F331F441F86
:10080000551F280F391F4A1F5B1F2F5F3F4F4F4F48
:100810005F4F56954795379527952D5F3F4F4F4F23
:100820005F4F81E0898F6FEF262E61E0362E412CDD
:10083000512C220E331E441E551E59E056944794E7
:10084000379427945A95D1F741E0C42ED12CE12C4E
:10085000F12CCD86DE86EF86F88A20E230E040E09B
:1008600050E029873A874B875C878D859E85AF85C9
:10087000B889CD88DE88EF88F88C8C0D9D1DAE1D63
:10088000BF1D898B9A8BAB8BBC8BA984BA84CB841C
:10089000DC84A20CB31CC41CD51CA80EB91ECA1E35
:1008A000DB1E8C8D9D8DAE8DBF8D8A0D9B1DAC1D6D
:1008B000BD1D28A139A14AA15BA1281739074A0704
:1008C0005B0708F44BC32D833E834F83588780E03A
:1008D00063E0AE014F5F5F4F0E94C427882369F435
:1008E00089819A81AB81BC810097A105B10529F06E
:1008F00081509048A040B04040F081E090E0A0E0FE
:10090000B0E089839A83AB83BC8389819A81AB8170
:10091000BC817C018D010894E108F10801091109ED
:10092000EA0CFB1C0C1D1D1DB095A09590958195A2
:100930009F4FAF4FBF4FE822F9220A231B23EA182B
:10094000FB080C091D09498D4330C9F48D859E852E
:10095000AF85B8898E0D9F1DA01FB11F8D879E8703
:10096000AF87B88B29893A894B895C892E0D3F1D49
:10097000401F511F298B3A8B4B8B5C8B04C02E0C74
:100980003F1C401E511EAD80BE80CF80D884C60162
:10099000B5012D853E854F855889621B730B840BED
:1009A000950B621973098409950929853A854B8548
:1009B0005C85621B730B840B950B2C8D3D8D4E8DCE
:1009C0005F8D0E949C292DA33EA34FA358A7398D6C
:1009D000323051F48DA19EA1AFA1B8A5865F9F4092
:1009E000A040B04070F4BAC2F98DF33051F42DA19B
:1009F0003EA14FA158A5265F3F4F4040504008F40C
:100A0000ADC2E982FA820B831C839CA1992311F069
:100A100010EF85C04D895E896F89788D4A0D5B1D09
:100A20006C1D7D1D32E3E32EF12CE60CF71CF70163
:100A300020E032E001C0119221503040AFEF2F3F53
:100A40003A07C9F7830100511E4F80E891E0A1E009
:100A5000B0E0F80180839183A283B3834030F4E057
:100A60005F07FBEF6F07F0E07F07B0F4CB01BA013F
:100A700021EC3EE340E050E00E949C29C901DA01EC
:100A8000F801278322E0B695A795979587952A9533
:100A9000D1F78F63868305C0D80117963C932E93B8
:100AA00016978EEFF8018583F98DF33081F08D81F3
:100AB0009E81AF81B88580509040A140B04010F039
:100AC00086E001C084E0D80114968C9303C08CE0CA
:100AD000F80184838FE390E0A0E0B0E0F801808724
:100AE0009187A287B3878D819E81AF81B8858487E6
:100AF0009587A687B787005C1F4F85E59AEAD801DE
:100B00008D939C9380E0B70120E030E040E050E01E
:100B100001E00E945427882309F01EC218EFE2E387
:100B2000EE2EF12CE60CF71CF70180E092E001C0FC
:100B300011920197BFEF8F3F9B07D1F7C7016CE779
:100B400070E04BE050E00E945A0280E092E0F70132
:100B500094878387D301DF968C92CD84DE84D786F9
:100B6000C68622E430E0620E731E81E0D3018C93CE
:100B7000EEEBFFEF6E0E7F1EF98DF33019F080E083
:100B800092E002C080E090E0D70152969C938E9351
:100B900051978D819E81AF81B8858030E0E09E07BE
:100BA000E1E0AE07E0E0BE0720F4F701948B838B11
:100BB00005C0F70180A391A3A2A3B3A377E4C72E36
:100BC000D12C6C0C7D1CD3011C93E9EBFFEF6E0E56
:100BD0007F1E8FE390E0D70159969C938E93589790
:100BE0008FEF90E05B969C938E935A972D893E8968
:100BF0004F89588D5C962D933D934D935C935F97F1
:100C00000E94630069837A838B839C83B98DB330A0
:100C100009F03FC0E3E4F0E0EE0EFF1ED7016D9354
:100C20007D938D939C931397EDEBFFEFEE0EFF1EDC
:100C3000D70194962D923D924D925C92979782E0C7
:100C400090E0A0E0B0E0F70184A795A7A6A7B7A71A
:100C500081E090E091AB80AB86E090E093AB82AB1B
:100C600062E7C62ED12C6C0C7D1C80E8D3018C93DE
:100C7000E2E0F0E06E0E7F1E89E2D3018C93ECE897
:100C8000FFEF6E0E7F1EC701895B9F4F68E870E023
:100C900021C0D70197966D937D938D939C939A97DE
:100CA00057963C922E925697E6E5F0E06E0E7F1E28
:100CB00080E8D3018C93E2E0F0E06E0E7F1E89E2C3
:100CC000D3018C93E8EAFFEF6E0E7F1EC7018B966F
:100CD0006CE970E043E150E00E945A029701225013
:100CE0003E4F3B8F2A8F85E59AEAD9018D939C93DD
:100CF00080E0B7012D893E894F89588D01E00E941F
:100D00005427882309F028C1B98DB33059F42D89AF
:100D10003E894F89588D2A5F3F4F4F4F5F4FB70134
:100D20000E945427F70180E092E001C011920197E0
:100D30002FEF8F3F9207D1F7212F30E040E050E0B6
:100D4000898D8330C9F0813029F080E09FEFAFEFCB
:100D5000BFEF04C080E09FEFAFEFB0E0822B932B9A
:100D6000A42BB52B89839A83AB83BC83F30182AB1D
:100D700093ABA4ABB5AB1FC0DA01C9019F6FAF6FD6
:100D8000BF6F89839A83AB83BC83F30182AB93AB40
:100D9000A4ABB5AB8FEF9FEFAFEFBFEFF70184834D
:100DA0009583A683B7838FEF9FEFAFEFBFE0808778
:100DB0009187A287B38780E0B70129893A894B8957
:100DC0005C8901E00E945427882309F0C5C0F7011F
:100DD00080E092E001C0119201972FEF8F3F9207C0
:100DE000D1F7A988BA88CB88DC880894A11CB11CEB
:100DF000C11CD11C81E090E0A0E0B0E016C080E012
:100E0000B701A601950101E00E945427882309F04B
:100E1000A3C00894A11CB11CC11CD11C89819A815A
:100E2000AB81BC810196A11DB11D89839A83AB83DF
:100E3000BC8389819A81AB81BC8182159305A4050D
:100E4000B505E8F2398D333011F089849A841501A3
:100E500026010894211C311C411C511C80E0B70163
:100E6000A601950101E00E945427882309F074C06F
:100E70000894810891088114910419F062015101CC
:100E8000E6CF498D433009F05FC085E59AEAAA8D27
:100E9000BB8D8D939C9382E592E5A1E6B1E4F301CD
:100EA00082AB93ABA4ABB5AB54EEC52E51E0D52EBF
:100EB000EC0CFD1C82E792E7A1E4B1E6F701819317
:100EC0009193A193B1932DA13EA14FA158A521507B
:100ED000304040405040DF012D933D934D935D9352
:100EE0007D018FEF9FEFAFEFBFEFF701808391831D
:100EF000A283B38344E1C42E4EEFD42EEC0CFD1C30
:100F00002D893E894F89588D2F5F3F4F4F4F5F4F3F
:100F10002D8B3E8B4F8B588F80E0B70101E00E94F4
:100F200054278D899E89AF89B88D0696A11DB11D64
:100F30008D8B9E8BAF8BB88F80E0B7012D893E895A
:100F40004F89588D0E94542780E060E040E050E0D7
:100F50000E94C427882319F081E001C08EE0A89682
:100F60000FB6F894DEBF0FBECDBFCF91DF911F91BA
:100F70000F91FF90EF90DF90CF90BF90AF909F9038
:100F80008F907F906F905F904F903F902F9008953B
:100F90001C012D0132E0220C331C441C551C3A95D7
:100FA000D1F727E0C22E22E0D22EE12CF12C2C0C1E
:100FB0003D1C4E1C5F1C99E056944794379427942F
:100FC0009A95D1F720E230E040E050E02D873E874F
:100FD0004F87588B19861A861B861C8633E0398FFB
:100FE00044CC9C01AD012E5F3F4F4F4F5F4F220F0E
:100FF000331F441F551F82E015CCFC01009789F078
:101000008081882371F0868197818617970749F43C
:1010100081810E94F52680FD02C080E0089583E072
:10102000089589E008950F93CF93DF93EC019A011F
:10103000AB01BC016E5C7F4F898101E00E94FC2600
:10104000882311F023E029C0C05DDD4F888199819C
:10105000C053D24085559A4A11F022E01EC0C859AB
:10106000DF4F88819981AA81BB81C856D040B0707A
:1010700086549144A445B04011F420E00EC020E015
:10108000CC57DF4F88819981AA81BB81B07086548B
:101090009144A445B04009F021E0822FDF91CF9127
:1010A0000F9108952F923F924F925F926F927F928D
:1010B0008F929F92AF92BF92CF92DF92EF92FF9268
:1010C0000F931F93DF93CF93CDB7DEB72A970FB659
:1010D000F894DEBF0FBECDBFDC01142FED91FC9163
:1010E00011978081282F30E0205330402A3031057D
:1010F00038F481818A3321F43296ED93FC9304C055
:101100008091F100282F30E0232B11F08BE059C2A1
:101110002091ED003091EE003A872987DB012D9375
:101120003C93232B11F48CE04CC2E985FA85808135
:10113000882359F081810E94F52680FD06C0112385
:1011400009F43CC282FD38C239C2A985BA851C9215
:1011500011961C9280E00E94352680FF02C083E039
:1011600030C2112311F082FD27C289859A8540E0A3
:1011700050E060E070E00E941308813021F02224EA
:101180003324210112C0E985FA85E051FE4F8481A4
:10119000882309F415C220843184428453848985CC
:1011A0009A85B201A1010E941308833011F481E0F5
:1011B00008C2882309F004C2E985FA8585AD96AD99
:1011C0008050924009F0FCC129853A85285B3F4F49
:1011D000D9018D919C911197A854B040BA87A987E5
:1011E0005C01CC24DD24A114B104C104D10459F460
:1011F000AA5ABF4FAD90BD90CD90DC901397A655E5
:10120000B040BA87A987E985FA85A68EB78EC0A2B5
:10121000D1A2EE5BFF4F4081E254F040FA87E987AC
:101220004383842F8150823008F0CAC127AD2283C6
:10123000222309F4C5C130E0C90101978223932319
:10124000892B09F0BDC1ED5BFF4F80809180E35495
:10125000F040FA87E98791868086C4018F7090708C
:10126000892B09F0ADC1EB5BFF4F80819181E55483
:10127000F040FA87E9877C0100E010E0E114F10416
:101280000105110551F4EE5AFF4FE080F180028113
:101290001381E255F040FA87E98729853A85205C79
:1012A0003F4FD9016D907C901197A054B040BA8700
:1012B000A9876114710409F483C1242F30E040E050
:1012C00050E0C601B5010E947D2969837A838B8332
:1012D0009C83930140E050E02D833E834F835887E9
:1012E000E4E096948794EA95E1F75401CC24DD2458
:1012F000A20EB31EC41ED51EA60EB71EC81ED91E32
:10130000EA14FB040C051D0508F45AC1EA18FB0891
:101310000C091D09A985BA8512962C9130E040E090
:1013200050E0C801B7010E949C29C901DA01009769
:10133000A105B10509F444C1863FEFE09E07E0E056
:10134000AE07E0E0BE0718F4992493940DC0863FE1
:10135000FFEF9F07F0E0AF07F0E0BF0718F043E0B2
:10136000942E02C032E0932E22E0E22EF12C012DC9
:10137000112DE80EF91E0A1F1B1FA985BA855A9662
:10138000ED92FD920D931C935D97A20CB31CC41CAF
:10139000D51CFD01A2A6B3A6C4A6D5A68D819E81AB
:1013A000AF81B885820D931DA41DB51D82A393A3A3
:1013B000A4A3B5A320853185F3E09F16F1F4232B78
:1013C00009F0FEC029853A85225A3F4FF9018081F4
:1013D0009181A281B381EE55F040FA87E98786A317
:1013E00097A3A0A7B1A7A8019701F2E0220F331F8E
:1013F000441F551FFA95D1F733C0232B09F4E0C0E1
:1014000029813A814B815C81820F931FA41FB51FF4
:10141000E985FA8586A397A3A0A7B1A7D801C7013C
:10142000880F991FAA1FBB1FF2E09F1619F49C0199
:10143000AD0116C09C01AD012E0D3F1D401F511F77
:10144000569547953795279581E090E0A0E0B0E06C
:10145000E822F9220A231B232E0D3F1D401F511F96
:1014600021503E4F4F4F5F4F69E056954795379556
:1014700027956A95D1F7E985FA85868D978DA0A184
:10148000B1A182179307A407B50708F499C08FEF9D
:101490009FEFAFEFBFEF86879787A08BB18B128648
:1014A000138614861586B3E09B1609F065C0158275
:1014B000EE59FF4F20813181E256F040FA87E987EB
:1014C00040E050E0220D331D441D551D228B338B0F
:1014D000448B558BBF016E5C7F4F818101E00E9480
:1014E000FC26882309F048C0E985FA85E05DFD4FB8
:1014F00080819181E053F240FA87E98785559A4AC5
:1015000009F03AC0E985FA8582A993A9A4A9B5A9E9
:1015100082559245A146B14479F529853A852A5EDE
:101520003D4FF90180819181A281B381E651F24062
:10153000FA87E98782579247A144B146E9F42985A1
:101540003A85225E3D4FF90180819181A281B3816C
:10155000EE51F24082879387A487B587E65EFD4F00
:1015600080819181A281B381EA51F240FA87E987B3
:1015700086879787A08BB18BA985BA859C9280912D
:10158000EF009091F00001969093F0008093EF00AF
:1015900017969C938E931697E985FA8516A617A63B
:1015A00010AA11AA1482A985BA8556961D921D9279
:1015B0001D921C92599702C08AE003C080E001C0CE
:1015C0008DE02A960FB6F894DEBF0FBECDBFCF9147
:1015D000DF911F910F91FF90EF90DF90CF90BF9020
:1015E000AF909F908F907F906F905F904F903F90C3
:1015F0002F9008956F927F928F929F92AF92BF9299
:10160000CF92DF92EF92FF920F931F93CF93DF93CE
:10161000EC014A015B01CEA4DFA4E8A8F9A8C41636
:10162000D506E606F70609F44EC08C818823A1F1A1
:10163000F2E36F2E712C6C0E7D1E8981B301A70120
:10164000960101E00E9454278823D9F51C828E8DD3
:101650009F8DA8A1B9A12AA13BA14CA15DA1820F98
:10166000931FA41FB51FC816D906EA06FB06A0F4EF
:101670001B8110C08E8D9F8DA8A1B9A1C80ED91E47
:10168000EA1EFB1E8981B301A701960101E00E94B9
:1016900054271150123070F781149104A104B10441
:1016A00091F0BE016E5C7F4F8981A501940101E03C
:1016B0000E94FC26882329F48EA69FA6A8AAB9AA70
:1016C00003C081E001C080E0DF91CF911F910F91B5
:1016D000FF90EF90DF90CF90BF90AF909F908F9052
:1016E0007F906F9008950F93CF93DF93EC0140E0CC
:1016F00050E060E070E00E94FA0A882309F05EC0C2
:101700008881833009F052C08D81882309F44EC04E
:101710001EA61FA618AA19AABE016E5C7F4FFB0168
:1017200080E092E001C0119201972FEF8F3F920766
:10173000D1F7C05DDD4F85E59AEA99838883C05370
:10174000D24082E592E5A1E6B1E48AAB9BABACABBB
:10175000BDABCA5EDD4F82E792E7A1E4B1E68883C4
:101760009983AA83BB83C651D2408E859F85A88961
:10177000B989C65EDD4F88839983AA83BB83CA512A
:10178000D2408A859B85AC85BD85C25EDD4F88834E
:101790009983AA83BB83CE51D2402A893B894C8945
:1017A0005D89898101E00E9454271D82898160E062
:1017B00040E050E00E94C427811181E0DF91CF9189
:1017C0000F9108950F931F93CF93DF93EC016A81DC
:1017D0007B81888199810E94FD07982F8823E1F5FC
:1017E0008C8185FF39C04A8D5B8D6C8D7D8D8881A4
:1017F00099810E94FA0A982F882371F50E8D1F8D0A
:10180000F8018385806283878A859B85AC85BD8549
:10181000848F958FA68FB78F8E859F85938F828FAC
:101820008E859F85A889B989CD01AA27BB27958B6D
:10183000848B0E946300F801668B778B808F918F79
:101840008C818F7D8C83E881F98181E0848388811C
:1018500099810E94730B982F892FDF91CF911F914F
:101860000F910895CF93DF93EC010E94E20B882340
:1018700011F419821882DF91CF9108958F929F926F
:10188000AF92BF92CF92DF92EF92FF920F931F938E
:10189000CF93DF93EC016A017B014801590142308B
:1018A00051056105710508F4D1C08A8D9B8DAC8D01
:1018B000BD8D481759076A077B0708F0C7C08881A4
:1018C000823009F470C0833009F48CC0813011F08B
:1018D00022E0B9C08A0116950795040F151FA801CB
:1018E000452F5527469560E070E08AA19BA1ACA1E9
:1018F000BDA1480F591F6A1F7B1FCE010E94FA0A23
:10190000282F882309F09FC0D801B17091E0E92EFB
:10191000F12CEC20FD20E114F10451F0FE01EA0F5E
:10192000FB1F82A98F70982D9295907F982B01C0F4
:10193000982DAC0FBD1FD2969C930F5F1F4F81E077
:101940008C83A801452F5527469560E070E08AA159
:101950009BA1ACA1BDA1480F591F6A1F7B1FCE01DF
:101960000E94FA0A282F882309F06DC0A80151703F
:10197000EF2849F014E0B694A794979487941A95A9
:10198000D1F7682D0BC0FE01E40FF51F62A9607F3F
:10199000BB27AB2D9A2D892D8F70682B4C0F5D1FA7
:1019A000FA0162AB50C0452F562F672F77278AA1C7
:1019B0009BA1ACA1BDA1480F591F6A1F7B1FCE017F
:1019C0000E94FA0A282F882309F03DC0CC0CDD1CA8
:1019D000EE1CFF1CF601F170F296EC0FFD1F9182D8
:1019E000808231C0E7E07695679557954795EA95EF
:1019F000D1F78AA19BA1ACA1BDA1480F591F6A1FB5
:101A00007B1FCE010E94FA0A282F8823E1F432E0DE
:101A1000CC0CDD1CEE1CFF1C3A95D1F7F601F170E1
:101A2000F296EC0FFD1F80819181A281B3818070BD
:101A30009070A070B07F88299929AA29BB2980833A
:101A40009183A283B38381E08C8301C022E0822F43
:101A5000DF91CF911F910F91FF90EF90DF90CF908A
:101A6000BF90AF909F908F900895BF92CF92DF92DA
:101A7000EF92FF920F931F93CF93DF936C017A0144
:101A80008B01423051056105710508F4ACC0F601C7
:101A9000828D938DA48DB58D481759076A077B07F2
:101AA00008F0A1C08081823009F457C0833009F466
:101AB00074C0813009F09CC0EA01D695C795C40F67
:101AC000D51FAE01452F5527469560E070E0F60121
:101AD00082A193A1A4A1B5A1480F591F6A1F7B1F22
:101AE000C6010E94FA0A882309F082C0FE01F17043
:101AF000EC0DFD1DB2A82196AE01452F5527469548
:101B000060E070E0F60182A193A1A4A1B5A1480F05
:101B1000591F6A1F7B1FC6010E94FA0A882309F019
:101B200067C06B2D70E0D170CC0DDD1D9AA980E0EF
:101B3000682B792BC70181709070892B39F0B4E044
:101B400076956795BA95E1F79B0124C09B0140E02B
:101B500050E03F70407050704FC0452F562F672F98
:101B60007727F60182A193A1A4A1B5A1480F591F1F
:101B70006A1F7B1FC6010E94FA0A8823C9F5EE0C72
:101B8000FF1C001F111FF701F170EC0DFD1D82A954
:101B900093A99C0140E050E02FC0E7E0769567955F
:101BA00057954795EA95D1F7F60182A193A1A4A193
:101BB000B5A1480F591F6A1F7B1FC6010E94FA0A70
:101BC0008823B1F442E0EE0CFF1C001F111F4A9560
:101BD000D1F7F701F170EC0DFD1D22A933A944A93D
:101BE00055A95F7009C021E030E040E050E004C03A
:101BF0002FEF3FEF4FEF5FEFB901CA01DF91CF91B8
:101C00001F910F91FF90EF90DF90CF90BF900895BC
:101C1000AF92BF92CF92DF92EF92FF920F931F93FA
:101C2000CF93DF935C016B01DC0115967C936E937F
:101C3000149716964D915D916D917C911997413055
:101C400051056105710509F4D3C0ED91FC91828DB8
:101C5000938DA48DB58D481759076A077B0708F047
:101C6000C7C0411551056105710581F5808183303B
:101C700049F446A157A160A571A54115510561051B
:101C8000710521F5F50112861386148615860190DB
:101C9000F081E02D80859185C816D90608F0A8C08E
:101CA000C601A4E096958795AA95E1F7A0E0B0E07B
:101CB00026A137A140A551A5820F931FA41FB51FD0
:101CC000F50186879787A08BB18B7AC08281082F18
:101CD00010E0F4E0000F111FFA95E1F724C0CE01E7
:101CE0000E94350DAB01BC014F3FFFEF5F07FFEFD7
:101CF0006F07FFEF7F0711F481E07BC04230510591
:101D00006105710508F474C0D501ED91FC91828DD7
:101D1000938DA48DB58D481759076A077B0708F086
:101D200067C0C01AD10AF501C081D181C016D106A1
:101D3000B0F6D5011A964D935D936D937C931D97E4
:101D4000EEEFEE2EEFEFFE2EEFEF0E2FEFEF1E2F4A
:101D5000E40EF51E061F171F8A8D9B8DAC8DBD8D61
:101D60000297A109B109E816F9060A071B0728F02E
:101D700020E030E040E050E012C02A8130E040E056
:101D800050E0C801B7010E947D299B01AC018AA5E2
:101D90009BA5ACA5BDA5280F391F4A1F5B1FC60117
:101DA00064E0969587956A95E1F7A0E0B0E0280F8A
:101DB000391F4A1F5B1FF50126873787408B518BE0
:101DC000FFE0CF22DD2435E0CC0CDD1C3A95E1F7B5
:101DD00082E390E0C80ED91ED5018D919C91119798
:101DE0008C0D9D1D53969C938E93529780E001C05D
:101DF00082E0DF91CF911F910F91FF90EF90DF90E4
:101E0000CF90BF90AF9008954F925F926F927F9264
:101E10008F929F92AF92BF92CF92DF92EF92FF92FA
:101E20000F931F93CF93DF93EC012A013B014115E0
:101E300051056105710599F48A849B84AC84BD8445
:101E400081149104A104B10409F18A8D9B8DAC8D9C
:101E5000BD8D88169906AA06BB06C0F41CC00E9458
:101E6000350D9B01AC01623071058105910508F4C7
:101E70008AC08A8D9B8DAC8DBD8D281739074A0786
:101E80005B0708F48EC05301420105C011E0812EAA
:101E9000912CA12CB12C750164010894C11CD11C9A
:101EA000E11CF11C8A8D9B8DAC8DBD8DC816D906A9
:101EB000EA06FB0660F022E082169104A104B10458
:101EC00008F46BC0B2E0CB2ED12CE12CF12CCE016A
:101ED000B701A6010E94350D9B01AC01611571058A
:101EE00081059105A9F02F3F8FEF38078FEF480745
:101EF0008FEF580709F455C02130310541055105D0
:101F000009F44FC0C814D904EA04FB0431F645C0F3
:101F1000BC2CAD2C9E2C8F2CCE01A601B7010FEF4F
:101F20001FEF2FEF3FE00E943E0C882351F5411434
:101F300051046104710449F0CE01B301A20186018C
:101F400097010E943E0C8823E1F4BA86AB869C86FA
:101F50008D868E859F85A889B9898F3F2FEF92073F
:101F60002FEFA2072FEFB20749F00197A109B1099E
:101F70008E879F87A88BB98B81E08D83A7019601FF
:101F800010C0813029F021E030E040E050E009C08D
:101F90002FEF3FEF4FEF5FEF04C020E030E040E075
:101FA00050E0B901CA01DF91CF911F910F91FF90CD
:101FB000EF90DF90CF90BF90AF909F908F907F90E9
:101FC0006F905F904F9008959F92AF92BF92CF9283
:101FD000DF92EF92FF920F931F93CF93DF93EC0169
:101FE0007A018B01423051056105710508F458C032
:101FF0008A8D9B8DAC8DBD8D481759076A077B076D
:1020000008F441C04DC0CE01B801A7010E94350DB2
:102010005B016C01611571058105910509F442C0F0
:1020200081E0A816B104C104D104D1F12FEFA216AA
:102030002FEFB2062FEFC2062FEFD20611F481E088
:1020400032C0CE01B801A70100E010E020E030E08E
:102050000E943E0C882339F58E859F85A889B98911
:102060008F3F2FEF92072FEFA2072FEFB20741F01C
:102070000196A11DB11D8E879F87A88BB98B9D826C
:102080008601750102C0992493948A8D9B8DAC8D35
:10209000BD8DE816F9060A071B0708F4B4CF02C085
:1020A00082E001C080E0DF91CF911F910F91FF90FE
:1020B000EF90DF90CF90BF90AF909F900895CF9218
:1020C000DF92EF92FF920F931F93CF93DF93EC0178
:1020D0006A817B81888199810E94FD07182F88235E
:1020E00009F06CC06C8167FF02C012E067C061FF3D
:1020F0006FC02E813F81488559858A859B85AC8537
:10210000BD85281739074A075B0708F057C02A879B
:102110003B874C875D8760626C838881998121153C
:1021200031054105510561F44E855F8568897989DE
:102130000E94E40F182F1E861F86188A198A39C03C
:102140004A895B896C897D890E94350D6B017C0110
:102150008FEFC8168FEFD8068FEFE8068FEFF806DF
:1021600011F411E028C081E0C816D104E104F104A3
:1021700089F1E881F981828D938DA48DB58DC81682
:10218000D906EA06FB06D0F44A895B896C897D8909
:10219000CF010FEF1FEF2FEF3FE00E943E0C182FF3
:1021A000882349F488819981B701A6010E94E40F30
:1021B000182F112319F08C8180688C83812FDF9177
:1021C000CF911F910F91FF90EF90DF90CF900895E6
:1021D00017E0F4CF12E0EFCF2F923F924F925F9231
:1021E0006F927F928F929F92AF92BF92CF92DF9227
:1021F000EF92FF920F931F93DF93CF9300D000D005
:102200000F92CDB7DEB79D838C837A018B01DC0101
:1022100012966D917C9113978D919C910E94FD0770
:102220008B83882309F0AAC1EC81FD81848187FD1D
:1022300090C0AC81BD811A966D907D908D909C90E0
:102240001D976E147F048006910610F481FF02C072
:1022500037014801EC81FD81E680F780008511851A
:10226000168217821086118661147104810491040C
:1022700009F451C10190F081E02DFA83E983828154
:10228000A82EBB24CC24DD2429E0AA0CBB1CCC1C2A
:10229000DD1C2A95D1F7E114F10401051105C1F106
:1022A0001701280108942108310841085108C40188
:1022B000B3016150704080409040A60195010E949A
:1022C0009C2979018A01C201B101A60195010E94F0
:1022D0009C29E216F30604071507D0F088279927F2
:1022E000DC018A199B09AC09BD0982219321A42133
:1022F000B521EC81FD8186839783A087B187681A19
:10230000790A8A0A9B0A42895389648975893AC085
:10231000AC81BD811E964D915D916D917C915197DF
:10232000411551056105710529F589819A8140E0C2
:1023300050E060E070E00E94040FAB01BC0141304E
:1023400051056105710541F4EC81FD81848180684E
:102350008483F2E0FB8312C14F3F8FEF58078FEF6A
:1023600068078FEF7807B1F1EC81FD8146875787C9
:10237000608B718BAC81BD8152964D935D936D9353
:102380007C935597411551056105710509F059C0B8
:10239000C2C0EC81FD8184812081318181FF0DC02B
:1023A000C9010E94040FAB01BC0141155105610533
:1023B000710541F4350146014AC0C9010E94350D3D
:1023C000AB01BC014F3FFFEF5F07FFEF6F07FFEF70
:1023D0007F0751F4AC81BD8114968C91149780686D
:1023E00014968C93B1E087C04230510561057105A8
:1023F00008F4AACFAC81BD81ED91FC91828D938DC3
:10240000A48DB58D481759076A077B0708F09CCF44
:10241000AC81BD8152964D935D936D937C9355979E
:10242000FD0186819781A085B1858A0D9B1DAC1D1C
:10243000BD1D86839783A087B1876A187B088C08A7
:102440009D08A614B704C804D90408F4A2CFEC81EF
:10245000FD8186819781A085B185860D971DA81D78
:10246000B91D86839783A087B187D401C30191707A
:10247000A070B0700097A105B10509F44CC0C080F0
:10248000D1809EEFE92E9FEFF92E9FEF092F9FEF4E
:10249000192FE40EF51E061F171FF601828D938D6E
:1024A000A48DB58D0297A109B109E816F9060A07AE
:1024B0001B07C0F4228130E040E050E0C801B701C2
:1024C0000E947D299B01AC01F60182A593A5A4A5DC
:1024D000B5A5280F391F4A1F5B1F2115310541057E
:1024E000510559F4AC81BD8114968C911497806884
:1024F00014968C93B2E0BB8341C08401730189E0E0
:1025000016950795F794E7948A95D1F7E20EF31E96
:10251000041F151F03C0EE24FF248701EC81FD81F9
:1025200086819781A085B1859170A070B070009769
:10253000A105B10569F086899789A08DB18DE8164E
:10254000F9060A071B0721F0E68AF78A008F118F28
:10255000EC81FD8126813781408551858285938577
:10256000A485B58582179307A407B50738F4228799
:102570003387448755878481806284838B810F9061
:102580000F900F900F900F90CF91DF911F910F91AF
:10259000FF90EF90DF90CF90BF90AF909F908F9083
:1025A0007F906F905F904F903F902F900895CF93C2
:1025B000DF93EC016C817D810E94080E982F8823A7
:1025C00099F44E855F8568897989888199810E940F
:1025D000FA0A982F882341F4EA89FB8985EE8083E3
:1025E000E881F98181E08483892FDF91CF9108957B
:1025F0004F925F926F927F928F929F92AF92BF9213
:10260000CF92DF92EF92FF920F931F93CF93DF93BE
:10261000EC016B016C807D800894611C711C61145D
:10262000710409F44CC18E859F85A889B9890097EA
:10263000A105B10509F443C11FE0412E512C4620EC
:1026400057204114510409F027C10196A11DB11D65
:102650008E879F87A88BB98B4A855B856C857D8526
:10266000E881F981411551056105710539F48085CD
:1026700091856816790608F40FC121C1828190E026
:1026800001979301A4E036952795AA95E1F7822357
:102690009323892B09F000C1CF010E94350D7B01E6
:1026A0008C01623071058105910508F40AC18FEF34
:1026B000E8168FEFF8068FEF08078FEF180709F479
:1026C00002C1E881F981828D938DA48DB58DE816C4
:1026D000F9060A071B0708F4A6C0CD2809F4EFC0C5
:1026E0004A855B856C857D85CF010E94040F7B0147
:1026F0008C01611571058105910511F487E0E4C035
:1027000091E0E916F1040105110509F4DAC0AFEF13
:10271000EA16AFEFFA06AFEF0A07AFEF1A0709F4B0
:10272000D2C08881998140E050E060E070E00E9472
:10273000FA0A882309F0C7C0E881F981F29680E09F
:1027400092E001C011920197BFEF8F3F9B07D1F735
:10275000888099804EEFA42E4FEFB42E4FEFC42EF9
:102760004FEFD42EAE0CBF1CC01ED11EF401828DC3
:10277000938DA48DB58D0297A109B109A816B9064C
:10278000CA06DB0628F020E030E040E050E015C04B
:10279000D40112962C9130E040E050E0C601B50122
:1027A0000E947D299B01AC01F40182A593A5A4A5FB
:1027B000B5A5280F391F4A1F5B1FD4019E962D9384
:1027C0003D934D935C93D197DD24CC24C3941AC0E0
:1027D000C4828881998140E050E060E070E00E940E
:1027E000FA0A882309F06FC0E881F98186A597A5C8
:1027F000A0A9B1A90196A11DB11D86A797A7A0AB5D
:10280000B1ABD394E881F9818281D81608F386A50B
:1028100097A5A0A9B1A98D199109A109B10986A708
:1028200097A7A0ABB1ABEA86FB860C871D87C88053
:10283000D9808EEF9FEFAFEFBFEFE80EF91E0A1FB2
:102840001B1FF601828D938DA48DB58D0297A10972
:10285000B109E816F9060A071B0728F020E030E066
:1028600040E050E015C0D60112962C9130E040E0D7
:1028700050E0C801B7010E947D299B01AC01F6011F
:1028800082A593A5A4A5B5A5280F391F4A1F5B1FD4
:102890002E873F87488B598B7D826C8235E0440CB4
:1028A000551C3A95E1F782E390E0480E591E888165
:1028B0009981840D951D9B8B8A8B80E005C084E0F7
:1028C00003C082E001C081E0DF91CF911F910F91A1
:1028D000FF90EF90DF90CF90BF90AF909F908F9040
:1028E0007F906F905F904F9008959F92AF92BF92AC
:1028F000CF92DF92EF92FF920F931F93CF93DF93CC
:10290000EC016B01FB0180818F3211F08C3541F4B9
:102910000894C11CD11C1E821F82188619860AC009
:10292000E881F98186899789A08DB18D8E839F83F7
:10293000A887B987F6018081803248F4CE0160E033
:1029400070E00E94080E482F1B8A1A8A38C130E2B4
:10295000932E25E0E22E0C891D89F8018BE090E092
:1029600001C0919201972FEF8F3F9207D1F7F601A7
:1029700080818E3249F040E050E0A0E0B0E098E085
:10298000A92EB12CFF2421C0D80180E090E0F601EF
:10299000E80FF91FE0810196EE3231F483309105A2
:1029A00009F40AC1ED93F3CFEF3229F0EC3539F099
:1029B000E13208F001C1E13210F424E201C020E26A
:1029C000C80ED91EF801238707C1F601EA0FFB1FC5
:1029D00020811196213208F468C02F3209F406C113
:1029E0002C3509F403C12E3219F04A155B0580F02D
:1029F000F8E0AF16B10409F0DFC02E3209F0DCC0F8
:102A0000FF0CFF0C48E050E08BE0A82EB12CDDCF8E
:102A100027FF02C083E0F82A822F81588F3118F0F7
:102A20008F558D31F8F4F601EA0FFB1F3081832FAB
:102A300080548F3320F080548D3708F0BDC0C5011D
:102A400001974817590708F0B7C01196F801E40F2D
:102A5000F51F2083CA010196F801E80FF91F3083A2
:102A6000AC0120C0622F70E0E0EBF0E001C03196D5
:102A70008081882329F090E086179707C1F79CC0D2
:102A8000822F81548A3118F4E2E0FE2A07C0822F97
:102A900081568A3118F4F1E0FF2A2052F801E40F40
:102AA000F51F20834F5F5F4F90CF64E0452B09F403
:102AB00083C0F8018081853E09F4E082F8E0AF161A
:102AC000B10411F4FF0CFF0C2F2D30E0C90183700D
:102AD0009070019709F460612C70307024303105DA
:102AE00009F46860CA0EDB1EF801638775C04E8565
:102AF0005F8568897989888199810E94FA0A482FBF
:102B0000882321F5EA89FB898081882311F444E038
:102B10001DC0838583FD14C0DF018C899D899C01C4
:102B2000F9012BE030E0215030408FEF2F3F380784
:102B300069F09C918081981719F411963196F3CF22
:102B4000CE0160E070E00E94F8124BC0EC89FD8974
:102B500083854423B1F0443091F590E09C012470CA
:102B6000307085FF0BC01E821F82188619861B8A53
:102B70001A8A232B09F4EFCE40E021C0232BF1F079
:102B80001EC082FD1CC0EA89FB89838584FF16C0B4
:102B900084899589A0E0B0E0DC0199278827228DFF
:102BA000338D40E050E0822B932BA42BB52B8E83EA
:102BB0009F83A887B987CFCE46E001C045E0842F28
:102BC000DF91CF911F910F91FF90EF90DF90CF9009
:102BD000BF90AF909F900895CE0160E070E00E949A
:102BE000080E482F882309F482CFB0CF60E05ECF73
:102BF000EF92FF920F931F93DF93CF93CDB7DEB782
:102C0000A4970FB6F894DEBF0FBECDBF9CA38BA3D5
:102C10007B018E01035F1F4FCE018396B80141E017
:102C20000E945208882351F5CE0101969AA389A3E8
:102C30006BA17CA1C8010E9475148823F9F4E9A155
:102C4000FAA1838585FD19C0EF8DF8A13097A9F011
:102C5000D70116968D919C911797978B868B14961A
:102C60008D919C911597918F808FED85FE8581E0E8
:102C70008483CF010E94730B01C086E0A4960FB637
:102C8000F894DEBF0FBECDBFCF91DF911F910F91A2
:102C9000FF90EF900895EF92FF920F931F93DF93B1
:102CA000CF93CDB7DEB7A4970FB6F894DEBF0FBEB3
:102CB000CDBF9CA38BA3E62EF42E8E01035F1F4F86
:102CC000CE018396B80141E00E945208882331F575
:102CD000CE0101969AA389A36BA17CA1C8010E9491
:102CE00075148823D9F4E9A1FAA1838585FD15C05F
:102CF000EF8DF8A1309789F09F2D9772892F8095DD
:102D0000238582239E21892B8387ED85FE8581E0A3
:102D10008483CF010E94730B01C086E0A4960FB696
:102D2000F894DEBF0FBECDBFCF91DF911F910F9101
:102D3000FF90EF900895CF92DF92EF92FF921F9352
:102D4000DF93CF93CDB7DEB7A4970FB6F894DEBF6D
:102D50000FBECDBF9CA38BA36B014DE0E42EF12CE5
:102D6000EC0EFD1ECE018396B70140E00E94520892
:102D7000182F8823B1F4CE0101969AA389A36BA1E1
:102D80007CA1C7010E947514182F882351F48F8DE0
:102D900098A1892B11F416E004C0C701B6010E9466
:102DA000C302812FA4960FB6F894DEBF0FBECDBF2D
:102DB000CF91DF911F91FF90EF90DF90CF9008951A
:102DC0000F931F93DF93CF93CDB7DEB72E970FB638
:102DD000F894DEBF0FBECDBF8C017E876D87CE011C
:102DE0000D96B80140E00E9452088823F1F5CE010B
:102DF0000196D80155969C938E9354976D857E8548
:102E0000C8010E947514882369F5D8015296ED9186
:102E1000FC9153973097B9F0838584FF25C084894E
:102E20009589A0E0B0E0DC0199278827228D338DB9
:102E300040E050E0822B932BA42BB52BF801868326
:102E40009783A087B187D801ED91FC911197868176
:102E5000978113969C938E931297C80160E070E05F
:102E60000E94080E843009F485E02E960FB6F8947F
:102E7000DEBF0FBECDBFCF91DF911F910F9108959F
:102E80000F931F93DF93CF93CDB7DEB7A4970FB601
:102E9000F894DEBF0FBECDBF9CA38BA38E01035F52
:102EA0001F4FCE018396B80140E00E945208682F60
:102EB0008823D9F5CE0101969AA389A36BA17CA1A1
:102EC000C8010E947514682F882361F52F8D38A1E1
:102ED0002115310539F4ED85FE858B899C89AD89F5
:102EE000BE891BC0D9011B968C911B9784FF1CC007
:102EF0000D851E8554968D919C915597A0E0B0E06C
:102F0000DC0199278827F901228D338D40E050E0BC
:102F1000822B932BA42BB52BF801868B978BA08F3C
:102F2000B18F03C0843009F465E0862FA4960FB6F4
:102F3000F894DEBF0FBECDBFCF91DF911F910F91EF
:102F400008951F93CF93DF93EC0160E070E00E943F
:102F5000080E182F882381F54E855F856889798949
:102F6000888199810E94FA0A182F882329F5EA8915
:102F7000FB89E081E53E29F1EE2319F1CE0161E004
:102F800070E00E94F812E5CF4A895B89CA01FC0112
:102F900080E290E001C0119201972FEF8F3F9207DE
:102FA000D1F76C897D89CA014BE050E00E945A023A
:102FB000E881F98181E08483812FDF91CF911F9196
:102FC00008954E855F8568897989888199810E94F5
:102FD000FA0A182F8823C1F2EFCFAF92BF92CF9297
:102FE000DF92EF92FF920F931F93DF93CF93CDB7B2
:102FF000DEB7CF54D0400FB6F894DEBF0FBECDBFC2
:103000008E01025B1F4FD8018D939C936B0142E2AE
:10301000E42EF12CEC0EFD1EC801B70141E00E9428
:103020005208882309F0F3C08AA19BA199AF88AF09
:10303000CE0101969FAB8EABF80160817181C70113
:103040000E947514882309F0E2C0EEA9FFA98385C8
:1030500085FF02C086E0DBC06CA97DA96115710502
:1030600011F484E0D4C0655F7F4FCE010D9645E139
:1030700050E00E945A028E01085C1F4FC801B70140
:1030800046E150E00E945A02C801B6010E94751440
:10309000882311F488E0BBC0843009F0B8C0C801AF
:1030A0000E94A117882309F0B2C0FE01E65BFF4F22
:1030B000C080D180C6010D96BE01615F7F4F43E1A4
:1030C00050E00E945A028D858062D6011B968C9337
:1030D000EAA1FBA181E0848328A539A54AA55BA5C7
:1030E000FE01FE9680819181A281B3812817390764
:1030F0004A075B0709F47FC0F601838584FF7BC024
:10310000A8ACB9AC84899589A0E0B0E08C01FF241B
:10311000EE24828D938DA0E0B0E0E82AF92A0A2BF4
:103120001B2B8EEF9FEFAFEFBFEFE80EF91E0A1FCC
:103130001B1FF501828D938DA48DB58D0297A1097A
:10314000B109E816F9060A071B0708F05FC02281DB
:1031500030E040E050E0C801B7010E947D29AB019A
:10316000BC01F50182A593A5A4A5B5A5480F591FDB
:103170006A1F7B1F411551056105710509F446C0A1
:10318000C5010E94FA0A08AD19AD882309F03FC0B5
:10319000B8016E5A7F4FDB0111968C918E3259F532
:1031A000F80180818330A9F4FE01FE9620813181EF
:1031B00042815381F80186A197A1A0A5B1A5281746
:1031C00039074A075B0729F480E090E0A0E0B0E00F
:1031D00006C0FE01FE9680819181A281B381FB0130
:1031E000938F828FCD01AA27BB27958B848B81E09B
:1031F000D80114968C93CE0182960E94D712882310
:1032000031F48AA19BA10E94730B01C082E0C15BD3
:10321000DF4F0FB6F894DEBF0FBECDBFCF91DF9169
:103220001F910F91FF90EF90DF90CF90BF90AF90E4
:103230000895CF93DF93EC0194E019C088819981C0
:103240000E94FA0A982F8823E9F4EA89FB89808191
:10325000882301F1853E19F0838583FF17C0CE01D5
:1032600060E070E00E94F812982F882359F44E8590
:103270005F85688979894115510561057105F1F608
:10328000992321F01E861F86188A198A892FDF91BB
:10329000CF91089594E0F6CFEF92FF920F931F9392
:1032A000DF93CF93CDB7DEB72C970FB6F894DEBF80
:1032B0000FBECDBF8C017B01FC01628173818081D7
:1032C00091810E94FD07882361F5E114F10431F436
:1032D000C80160E070E00E94080E23C0CE01019694
:1032E000F801958B848BC8010E941919843031F440
:1032F000F80116861786108A118A02C0882389F47D
:10330000C801B7010E94C302C80160E070E00E94DA
:10331000F812843031F4F80116861786108A118A63
:1033200080E02C960FB6F894DEBF0FBECDBFCF91D4
:10333000DF911F910F91FF90EF9008953F924F9270
:103340005F926F927F928F929F92AF92BF92CF9235
:10335000DF92EF92FF920F931F93DF93CF93CDB73E
:10336000DEB7EA970FB6F894DEBF0FBECDBFFC0103
:103370009AAF89AF4B011082ADE0EA2EF12CEC0E32
:10338000FD1ECE01C996B70140E00E945208882375
:1033900011F0982FC6C0CE0101969AA389A3ED859E
:1033A000FE8586899789A08DB18D8B8B9C8BAD8B8B
:1033B000BE8B84015701F3E26F2E712C6C0E7D1EC3
:1033C000ECE24E2E512C4C0E5D1E7FE2372E7DC05E
:1033D000C50161E070E00E94080E982F882309F073
:1033E0007FC0C5010E941919982F882309F078C061
:1033F000EF8DF8A184899589A0E0B0E0DC019927E0
:103400008827228D338D40E050E0822B932BA42B14
:10341000B52B8B8B9C8BAD8BBE8BC50160E070E0B8
:103420000E94080E982F882309F05AC0C5010E94F7
:103430001919982F8823F9F4EF8DF8A184899589BB
:10344000A0E0B0E0DC0199278827228D338D40E091
:1034500050E0822B932BA42BB52BC816D906EA0675
:10346000FB0609F477C0C50160E070E00E94F81225
:10347000982F8823D9F2943099F592E031C02F5FCC
:103480003F4F81918823D9F7B901C90103960817E5
:10349000190710F491E124C0A8010BC0415050401D
:1034A00021503040A40FB51FF901E60DF71D8185AD
:1034B0008C93A9ADBAAD2115310581F76095709552
:1034C000060F171FA00FB11F3C92CB88DC88ED8838
:1034D000FE88C114D104E104F10409F079CF90E031
:1034E000A9ADBAAD9923E1F48091F100805DFD01B1
:1034F00081938AE311968C93DF01119608151905C3
:1035000021F48FE2818311960BC0E9ADFAADE00F93
:10351000F11F80818D930F5F1F4F08151905A8F3C8
:103520001C92892FEA960FB6F894DEBF0FBECDBF6E
:10353000CF91DF911F910F91FF90EF90DF90CF908F
:10354000BF90AF909F908F907F906F905F904F90C3
:103550003F900895C501B3010E94C302F20120E02B
:1035600030E08FCFCF92DF92EF92FF920F931F93B5
:10357000DF93CF93CDB7DEB7EA970FB6F894DEBFEF
:103580000FBECDBF9AAF89AF8E01035F1F4FCE0133
:10359000C996B80141E00E945208282F882309F0FB
:1035A0007BC0CE0101969AA389A369AD7AADC8010B
:1035B0000E947514282F882309F06EC0E9A1FAA192
:1035C000838585FF02C026E067C0EF8DF8A13097A4
:1035D00011F426E003C0838580FD27E08489958966
:1035E000428D538D222309F057C0A0E0B0E08C013A
:1035F000FF24EE24CA01A0E0B0E0E82AF92A0A2B51
:103600001B2B838584FF5AC082E0E816F104010574
:10361000110510F422E040C0B3E2CB2ED12CCC0E29
:10362000DD1EC601BE01635F7F4F46E150E00E9490
:103630005A02E9A6FAA60BA71CA7C60162E070E031
:103640000E94080E282F882339F5C6010E941919F7
:10365000282F882389F1EBA1FCA186899789A08D69
:10366000B18DE816F9060A071B0731F1243031F154
:1036700013C0E114F1040105110549F08D859E8503
:10368000B801A7010E94E40F282F882329F48D8513
:103690009E850E94730B282F822FEA960FB6F8940E
:1036A000DEBF0FBECDBFCF91DF911F910F91FF9075
:1036B000EF90DF90CF90089527E0EECFCE010D96EA
:1036C0000E94D712282F8823A1F2E6CF2F923F9293
:1036D0004F925F926F927F928F929F92AF92BF9222
:1036E000CF92DF92EF92FF920F931F93DF93CF93CE
:1036F00000D000D0CDB7DEB79C838B83162F072F69
:103700003A013A832983D9011D921C92FC016281FE
:103710007381808191810E94FD07882E882309F0A2
:10372000F3C1AB81BC8114968C9187FD7FC081FD74
:1037300003C077E0872EE8C1EB81FC8122853385C9
:1037400044855585C301A0E0B0E0820F931FA41FFC
:10375000B51F82179307A407B50710F466247724D2
:10376000812F902F9C01190144244394A8C1AB815F
:10377000BC8116962D913D914D915C911997DA017E
:10378000C9019170A070B0700097A105B10509F052
:103790003CC1AB81BC81ED91FC91DA01C90169E0CA
:1037A000B695A795979587956A95D1F792809A9443
:1037B000982209F04DC02115310541055105D9F474
:1037C000AB81BC811E966D917D918D919C9151979D
:1037D0006115710581059105F9F4CF0140E050E0D4
:1037E00060E070E00E94040FEB81FC8166877787C0
:1037F000808B918B0BC0AB81BC8152964D915D91BA
:103800006D917C915597CF010E94040F6115710550
:103810008105910509F457C1613071058105910554
:1038200041F4EB81FC8184818068848332E0832EC3
:103830006BC16F3FFFEF7F07FFEF8F07FFEF9F0722
:1038400009F4CCC0EB81FC81628B738B848B958BEC
:10385000AB81BC81ED91FC91119726A537A540A9BC
:1038600051A95696ED90FD900D911C9159972E15EA
:103870003F054007510751F4CF0140E050E060E0C0
:1038800070E00E94FA0A882309F0D3C0AB81BC81A2
:103890000D911C91119752962D913D914D915C91F6
:1038A00055972250304040405040F801828D938D12
:1038B000A48DB58D0297A109B109281739074A07C8
:1038C0005B07B8F45280652D70E080E090E00E94C4
:1038D0007D299B01AC01F80182A593A5A4A5B5A5FE
:1038E000280F391F4A1F5B1F21153105410551055E
:1038F00049F4AB81BC8114968C911497806814961E
:103900008C9394CF69017A01C90CD11CE11CF11C84
:103910005301AB2CBB24A694A114B10409F446C0F6
:10392000292D30E0C501820F931F652D70E06817C7
:10393000790718F45B01A21AB30AF8018181B10179
:10394000A70196010A2D0E945427882309F046C03A
:10395000AB81BC81ED91FC9126A537A540A951A969
:103960002C193D094E095F09C501A0E0B0E02817F8
:1039700039074A075B07A8F499E0220F331F441F59
:10398000551F9A95D1F7B101620F731FCF01C296EF
:1039900040E052E00E945A02AB81BC81ED91FC9163
:1039A00014828501102F0027110F6CC0EB81FC8160
:1039B000268137814085518582859385A485B5858B
:1039C000281739074A075B07D0F0C80140E050E0EC
:1039D00060E070E00E94FA0A882349F0AB81BC8164
:1039E00014968C911497806814968C9327C0AB81A1
:1039F000BC81ED91FC91C6A6D7A6E0AAF1AAEB8105
:103A0000FC81C68AD78AE08EF18EAB81BC81169686
:103A1000ED90FD900D911C91199756964D915D91E9
:103A20006D917C9159978D919C910E94FA0A8823FF
:103A300041F0EB81FC8184818068848388248394B5
:103A400063C0C701917020E032E0281B390B83016D
:103A50002615370508F48901AB81BC8116962D9196
:103A60003C91179731702E5C3F4F8D919C91820F46
:103A7000931FB101A8010E945A02AB81BC81ED9154
:103A8000FC914482200E311EC801A0E0B0E0EB8121
:103A9000FC812681378140855185280F391F4A1FB7
:103AA0005B1F2683378340875187E981FA818081B4
:103AB0009181800F911F91838083601A710A611434
:103AC000710409F054CEAB81BC8116962D913D91C5
:103AD0004D915C9119971A968D919D910D90BC9185
:103AE000A02D82179307A407B50730F4EB81FC8162
:103AF0002287338744875587AB81BC8114968C918C
:103B00001497806214968C93882D0F900F900F90CD
:103B10000F90CF91DF911F910F91FF90EF90DF9069
:103B2000CF90BF90AF909F908F907F906F905F905D
:103B30004F903F902F900895DF93CF9300D000D007
:103B40000F92CDB7DEB78B83CB01BE016D5F7F4F88
:103B500041E050E09E012F5F3F4F0E94661B89812C
:103B60009A81019719F02FEF3FEF02C021E030E07A
:103B7000C9010F900F900F900F900F90CF91DF9190
:103B80000895EF92FF920F931F93CF93DF938C01D1
:103B90007B01C0E0D0E00CC0B7010E949C1D8F5F8C
:103BA0009F4F19F4CFEFDFEF07C00F5F1F4F219634
:103BB000F8018081882381F7CE01DF91CF911F9199
:103BC0000F91FF90EF9008952F923F924F925F9246
:103BD0006F927F928F929F92AF92BF92CF92DF921D
:103BE000EF92FF920F931F93DF93CF93CDB7DEB782
:103BF00063970FB6F894DEBF0FBECDBF8E01045D94
:103C00001F4F1A8A198A20E030E0AAA5BBA58C9123
:103C1000882309F460C11196BBA7AAA7853271F069
:103C200068A579A50E949C1D9C01BFEF8F3F9B0753
:103C300009F482C0380121E030E041C1EAA5FBA5CA
:103C4000C190FBA7EAA7F0E3CF1611F01B8A07C0CB
:103C5000AAA5BBA5CD90BBA7AAA7B1E0BB8B882422
:103C6000992415C0C40153E0880F991F5A95E1F7B4
:103C7000880C991C880E991E8C0C911CE0EDFFEFAE
:103C80008E0E9F1EAAA5BBA5CD90BBA7AAA78C2D63
:103C900080538A3038F3BCE6CB1619F0ECE4CE162C
:103CA00041F4FB89F260FB8BAAA5BBA5CD90BBA715
:103CB000AAA7CC2009F40FC18C2D81568A3110F0AF
:103CC000EC2D02C0EC2DE052EF3481F0E03538F4F9
:103CD000E334E9F0E43461F0E23441F52FC0E53536
:103CE00039F0E83509F1E33509F504C028E027C0CB
:103CF0002AE025C082E0682E712C600E711EF8014A
:103D00008081918168A579A50E94C11D0BC0B2E098
:103D10006B2E712C600E711ED8018C9168A579A54F
:103D20000E949C1D9C01CBC020E109C08C2D68A580
:103D300079A50E949C1D9C013801C1C022E0BB896D
:103D4000B1FF0DC0A4E06A2E712C600E711ED80167
:103D5000ED90FD900D911C91E43409F513C0C8015C
:103D60000296D8016D917C91E43439F43C017B01D9
:103D70000027F7FC0095102F05C03C017B0100E0F7
:103D800010E00DC017FF0BC010950095F094E09463
:103D9000E11CF11C011D111DBB89B460BB8BAA2461
:103DA000BB24222E332444245524C801B701A20188
:103DB00091010E949C29D62EC801B701A201910150
:103DC0000E949C29C901DA017C018D01E9E0ED1511
:103DD00038F4F7E0DF0E28E7C21611F430E2D30E14
:103DE000E1E0F0E0EC0FFD1FEA0DFB1D40E3D40E17
:103DF000D0820894A11CB11C0097A105B10521F047
:103E000050E1A516B10489F685018B89282F30E091
:103E100082FF0AC0E1E0F0E0EC0FFD1FEA0DFB1DA0
:103E20009DE290830F5F1F4F80E090E0F1E0EF2E66
:103E3000F12CE222F32212C0E114F10411F480E229
:103E400001C080E368A579A50E949C1DA989BA8953
:103E50001196BA8BA98B0894810891080815190549
:103E600018F48F5F9F4F41F701501040E1E0EE2EB4
:103E7000F12CEC0EFD1EE00EF11E0F5F1F4F0150E6
:103E80001040F701808168A579A50E949C1D9C01C6
:103E900049895A894F5F5F4F5A8B498B011511052C
:103EA00041F00894E108F1085FEF8F3F950739F77B
:103EB00006C08FEF2F3F380711F020E030E0A989CE
:103EC000BA89A20FB31FBA8BA98BBFEF2F3F3B0755
:103ED00041F083019ACEEFEF2F3F3E0711F0298981
:103EE0003A89C90163960FB6F894DEBF0FBECDBF05
:103EF000CF91DF911F910F91FF90EF90DF90CF90C6
:103F0000BF90AF909F908F907F906F905F904F90F9
:103F10003F902F9008952F923F924F925F926F9211
:103F20007F928F929F92AF92BF92CF92DF92EF9249
:103F3000FF920F931F93DF93CF93CDB7DEB7AA976E
:103F40000FB6F894DEBF0FBECDBF9CA38BA30E941B
:103F500063006DA37EA38FA398A7ADE0EA2EF12C9A
:103F6000EC0EFD1ECE018396B70141E00E9452087F
:103F7000182F882309F026C1CE0101969AA389A3A0
:103F80006BA17CA1C7010E947514182F882351F0E2
:103F9000843009F017C1E9A1FAA1838585FF04C027
:103FA00016E010C118E00EC18D859E8540E050E0FE
:103FB00060E070E00E94040F4B015C016115710527
:103FC0008105910511F417E0DCC0613071058105B0
:103FD000910511F412E0D5C06F3F3FEF73073FEF3B
:103FE00083073FEF930709F407C18D859E8540E065
:103FF00050E060E070E00E94FA0A182F882309F070
:10400000C0C0CD84DE84FEEFEF2EFFEFFF2EFFEF6A
:104010000F2FFFEF1F2FE80CF91C0A1D1B1DF601C7
:10402000828D938DA48DB58D0297A109B109E816F3
:10403000F9060A071B0720F044245524320115C055
:10404000D60112962C9130E040E050E0C801B70153
:104050000E947D292B013C01F60182A593A5A4A510
:10406000B5A5480E591E6A1E7B1EE2E3EE2EF12C0A
:10407000EC0CFD1CF70180E092E001C01192019769
:104080002FEF8F3F9207D1F7F7018BE090E020E20E
:1040900001C0219301973FEF8F3F9307D1F71EE2B5
:1040A000D601D2961C93D29780E1DD968C938DA198
:1040B0009EA1AFA1B8A5F701868B978BA08FB18F7A
:1040C0009AA689A6938E828EC501AA27BB271C01BA
:1040D000958B848BC7018096B70140E250E00E9427
:1040E0005A0223E530E0C20ED31ED6011C932B8961
:1040F0003C894D895E89ED85FE858081833069F438
:1041000086A197A1A0A5B1A5281739074A075B0783
:1041100021F420E030E040E050E0D701DB963C9312
:104120002E93DA979A0144275527D5963C932E93E0
:10413000D4970281DD24D39421C0ED85FE8546A667
:1041400057A660AA71AAD482CF0140E050E060E097
:1041500070E00E94FA0A182F882399F4F70180E092
:1041600092E001C011920197BFEF8F3F9B07D1F7FB
:104170000894411C511C611C711C01500023E9F67C
:104180003DC08D859E85B501A4010E94E40F1AC033
:10419000EF8DF8A180E183878DA19EA1AFA1B8A585
:1041A000868B978BA08FB18FA9A5BAA5B38FA28F4D
:1041B000358A248AED85FE8581E08483CF010E94C3
:1041C000730B182F812FAA960FB6F894DEBF0FBE7F
:1041D000CDBFCF91DF911F910F91FF90EF90DF90B6
:1041E000CF90BF90AF909F908F907F906F905F9097
:1041F0004F903F902F90089511E0C3CFCE010D96C0
:104200000E94A117182F882319F2BBCF5F926F92DB
:104210007F928F929F92AF92BF92CF92DF92EF9256
:10422000FF920F931F93DF93CF93CDB7DEB7A49781
:104230000FB6F894DEBF0FBECDBF3C017CA36BA3CD
:10424000DC011D921C928FE1582E54228E01035FD7
:104250001F4F4E71CE018396B8010E945208282F3D
:10426000CE0101969AA389A3222331F46BA17CA1EC
:10427000C8010E947514282FCF8CD8A0222321F4C6
:10428000C114D10409F426E0452D50E0CA018C7117
:104290009070892B09F469C0222379F0243029F425
:1042A000CE010D960E94A117282FCF8CD8A02223D3
:1042B00009F0B5C0B8E05B2A09C052FE02C028E090
:1042C000AEC0F6018385817109F0C0C053FE5BC0AA
:1042D0000E946300D6011E966D937D938D939C93EF
:1042E00051971B961C92F601148E158E168E178E02
:1042F00084899589A0E0B0E08C01FF24EE24828DB2
:10430000938DA0E0B0E0E82AF92A0A2B1B2B138E2C
:10431000128E158A148AED85FE8581E08483E1146E
:10432000F1040105110579F186A497A4A0A8B1A80C
:10433000CF01B801A7010E94E40F282F882309F0BC
:104340006EC0ED85FE850894E108F10801091109A8
:10435000E286F38604871587CF01B501A4010E9488
:10436000FA0A282F882379F05AC0222309F057C06F
:10437000D6011B968C9184FF02C024E050C051FEF0
:1043800002C080FD63C053FE02C0B0E25B2A6D85AF
:104390007E85FB0126A537A540A951A9D3015A96D0
:1043A0002D933D934D935C935D975F96DC92CE92F7
:1043B0005E9714965C92F60184899589A0E0B0E03E
:1043C000DC0199278827228D338D40E050E0822B35
:1043D000932BA42BB52BF30186879787A08BB18BEA
:1043E000F601848D958DA68DB78DF3018287938715
:1043F000A487B587D30116961D921D921D921C921B
:104400001997168A178A108E118E71836083DB01CB
:1044100016968D919C9117979383828320E0822F2B
:10442000A4960FB6F894DEBF0FBECDBFCF91DF913B
:104430001F910F91FF90EF90DF90CF90BF90AF90C2
:104440009F908F907F906F905F90089527E0E7CFC7
:104450003F924F925F926F927F928F929F92AF9214
:10446000BF92CF92DF92EF92FF920F931F93DF9351
:10447000CF9300D000D0CDB7DEB79A8389837C83F9
:104480006B832A01CE010196BA0140E00E945208D6
:10449000682F882309F0BFC0D201ED91FC912685D9
:1044A000378540895189E28CF38C048D158DD801B4
:1044B000C7010297A109B10982179307A407B5079D
:1044C00038F0EB81FC812083318342835383A3C086
:1044D000308021E03216E1F5AA24BB24650192E088
:1044E000E92EF12C012D112DD2018D919C91B80155
:1044F000A7010E94350D6F3FBFEF7B07BFEF8B0712
:10450000BFEF9B0711F491E073C061307105810525
:10451000910511F492E06CC061157105810591055A
:1045200029F40894A11CB11CC11CD11C0894E11CE5
:10453000F11C011D111DD201ED91FC91828D938D15
:10454000A48DB58DE816F9060A071B0768F24FC05F
:1045500062A073A084A095A0AA24BB24650120E0DA
:1045600030E0E0E0F0E021153105A9F4F2018081AE
:104570009181B401A3010E94FA0A982F8823C1F502
:104580000894611C711C811C911CD201ED91FC915D
:10459000F29620E032E0B2E03B1669F4808191812E
:1045A000892B29F40894A11CB11CC11CD11C329682
:1045B0002250304011C080819181A281B381BF70AF
:1045C0000097A105B10529F40894A11CB11CC11CD8
:1045D000D11C3496245030400894E108F1080109B8
:1045E0001109E114F1040105110509F0BCCF90E0B7
:1045F000D201ED91FC91A686B786C08AD18AB3E03C
:104600003B1611F481E08583EB81FC81A082B182AD
:10461000C282D382692F862F0F900F900F900F9038
:10462000CF91DF911F910F91FF90EF90DF90CF908E
:10463000BF90AF909F908F907F906F905F904F90C2
:104640003F9008953F924F925F926F927F928F9228
:104650009F92AF92BF92CF92DF92EF92FF920F9311
:104660001F93DF93CF9300D000D0CDB7DEB79C83EC
:104670008B83162F072F3A013A832983D9011D9284
:104680001C92FC0162817381808191810E94FD07EF
:10469000882E882309F071C1AB81BC8114968C915E
:1046A00087FD65C080FD03C007E0802E66C1EB81F9
:1046B000FC81228533854485558586819781A08537
:1046C000B185281B390B4A0B5B0BC301A0E0B0E09E
:1046D000281739074A075B0708F43901812F902F03
:1046E0009C01290146C1AB81BC8116962D913D915B
:1046F0004D915C911997DA01C9019170A070B07069
:104700000097A105B10509F0E0C0AB81BC81ED9136
:10471000FC91DA01C90119E0B695A795979587959F
:104720001A95D1F792809A94982299F5211531051E
:104730004105510539F4EB81FC81668577858089D7
:1047400091890BC0AB81BC8152964D915D916D9169
:104750007C915597CF010E94350D6230710581051E
:10476000910540F4EB81FC81848180688483E2E0E0
:104770008E2E03C16F3FFFEF7F07FFEF8F07FFEF25
:104780009F0709F467C0EB81FC81628B738B848B7C
:10479000958BAB81BC810D911C91119752962D91F7
:1047A0003D914D915C915597225030404040504092
:1047B000F801828D938DA48DB58D0297A109B10961
:1047C000281739074A075B07B8F43280632D70E079
:1047D00080E090E00E947D299B01AC01F80182A558
:1047E00093A5A4A5B5A5280F391F4A1F5B1F211546
:1047F00031054105510549F4AB81BC8114968C917A
:104800001497806814968C93B2CF69017A01C90C11
:10481000D11CE11CF11C5301AB2CBB24A694A114A8
:10482000B10409F44CC0292D30E0C501820F931F5B
:10483000632D70E06817790718F45B01A21AB30AB8
:10484000F8018181B201A70196010A2D0E94FC2680
:10485000882349F0AB81BC8114968C9114978068B1
:1048600014968C934BC0AB81BC81ED91FC918481FB
:10487000882301F126A537A540A951A92C193D0986
:104880004E095F09C501A0E0B0E0281739074A07C3
:104890005B0780F469E0220F331F441F551F6A95A0
:1048A000D1F7C201820F931FF296BF0140E052E0A0
:1048B0000E945A028501102F0027110F3DC0EB8185
:1048C000FC81C68AD78AE08EF18EAB81BC811696B8
:1048D000ED90FD900D911C91199756964D915D911B
:1048E0006D917C9159978D919C910E94FA0A882331
:1048F00041F0EB81FC8184818068848388248394E7
:104900003CC0C701917020E032E0281B390B8301C5
:104910002615370508F48901AB81BC8116968D9167
:104920009C9117979170C2966D917C91680F791F39
:10493000C201A8010E945A02400E511EC801A0E007
:10494000B0E0EB81FC812681378140855185280FBD
:10495000391F4A1F5B1F2683378340875187E981B0
:10496000FA8180819181800F911F91838083601AE9
:10497000710A6114710409F0B6CE882D0F900F9062
:104980000F900F90CF91DF911F910F91FF90EF90BB
:10499000DF90CF90BF90AF909F908F907F906F905F
:1049A0005F904F903F9008954F925F926F927F92E9
:1049B0008F929F92AF92BF92CF92DF92EF92FF922F
:1049C0000F931F93DF93CF9300D000D0CDB7DEB706
:1049D0006C015B014A017C0100E010E00894A10831
:1049E000B10883E0482E512C4C0E5D1E3E01089408
:1049F000611C711C13C0C401B30141E050E092017D
:104A00000E9422238B819C81019759F48981F701AF
:104A100081937F010F5F1F4F8A3019F00A151B0524
:104A200054F3F7011082012B11F4CC24DD24C601CC
:104A30000F900F900F900F90CF91DF911F910F91DA
:104A4000FF90EF90DF90CF90BF90AF909F908F90AE
:104A50007F906F905F904F90089582E38093F30072
:104A60008FEF8FB9779BFECF8FB19FEF9FB9779B69
:104A7000FECF8FB18F3F19F421E030E006C0809166
:104A8000F300882399F720E030E0C9010895C49825
:104A90000E942D25892B19F021E030E008C0C49A2E
:104AA0008FEF8FB9779BFECF8FB120E030E0C90147
:104AB0000895FC0184E18093F2009FEF9FB9779BFA
:104AC000FECF8FB18F3F29F48091F2008823B1F798
:104AD00029C08E3F39F59FEF9FB9779BFECF8FB1ED
:104AE00080839FB9779BFECF8FB181839FB9779BDE
:104AF000FECF8FB182839FB9779BFECF8FB1838327
:104B00006450704011F03496E7CF8FEF8FB9779BE8
:104B1000FECF8FB18FEF8FB9779BFECF8FB121E0A2
:104B200030E002C020E030E0C90108951F93CF9328
:104B3000DF93EC01162F0E942D25892B19F420E01C
:104B400030E02BC01FB9779BFECF1D3F19F421E049
:104B500030E023C090E088818FB9779BFECF8981B8
:104B60008FB9779BFECF915011F02296F4CF8FEF43
:104B70008FB9779BFECF8FEF8FB9779BFECF8FEFEB
:104B80008FB9779BFECF8FB190E08F71853009F0A0
:104B900091E081E09827292F30E0C901DF91CF9182
:104BA0001F910895DF92EF92FF920F931F93D82EDB
:104BB0007A018B0187FF0CC087E340E050E060E0A2
:104BC00070E00E94D225823008F049C08FE7D822D9
:104BD000C49A8FEF8FB9779BFECF8FB10E94472584
:104BE000892B11F48FEF3BC08D2D80648FB9779B9B
:104BF000FECF812F9927AA27BB278FB9779BFECF9E
:104C0000C801AA27BB278FB9779BFECFBB27A12F4F
:104C1000902F8F2D8FB9779BFECFEFB8779BFECF6C
:104C2000DD2011F485E906C088E0D81611F487E884
:104C300001C081E08FB9779BFECF8CE0D81629F4B4
:104C40008FEF8FB9779BFECF8FB19AE02FEF2FB9FF
:104C5000779BFECF8FB187FF02C09150C1F71F91A4
:104C60000F91FF90EF90DF900895EF92FF920F93D6
:104C70001F93DF93CF9300D000D0CDB7DEB788234A
:104C800011F081E0A7C08091EB0081FDA1C0699A7D
:104C90008AE09FEF9FB9779BFECF2FB18150D1F76C
:104CA00040E050E060E070E00E94D225813009F0E1
:104CB0007CC084E68093F20088E04AEA51E060E03C
:104CC00070E00E94D225813009F048C07E0108942E
:104CD000E11CF11C87019FEF9E012B5F3F4F9FB9A5
:104CE000779BFECF8FB1F80181938F01E217F30715
:104CF000B1F78B81813009F058C08C818A3A09F074
:104D000054C08091F200882349F089EA40E050E0E5
:104D100060E070E40E94D225882399F78091F20028
:104D2000882309F442C08AE340E050E060E070E08C
:104D30000E94D2258823C9F59FEF9FB9779BFECFAC
:104D40008FB1F70181937F01E017F107B1F78981F6
:104D500086FD02C014E02AC01CE028C089EA40E0B9
:104D600050E060E070E00E94D225823018F001E04F
:104D700011E002C009EA12E08091F200882349F0B4
:104D8000802F40E050E060E070E00E94D225882350
:104D900099F78091F200882341F080E140E052E0F1
:104DA00060E070E00E94D225811110E01093F400C1
:104DB000C49A8FEF8FB9779BFECF8FB1112341F04B
:104DC0008091EB008E7F8093EB008DB18C7F8DB94D
:104DD0008091EB000F900F900F900F90CF91DF918B
:104DE0001F910F91FF90EF900895882311F081E0BB
:104DF00008958091EB0008950F93CF93DF93EB011B
:104E0000882309F04BC0002309F448C08091EB00CF
:104E100080FF02C003E043C08091F40083FD07C01F
:104E200069E0220F331F441F551F6A95D1F70130E7
:104E300089F481E1BA01A9010E94D225882321F5D4
:104E4000CE0160E072E00E94592500E0892BE1F478
:104E500001E01AC082E1BA01A9010E94D22588238B
:104E600099F4CE0160E072E00E945925892B29F067
:104E7000015019F0C050DE4FF4CF8CE040E050E01C
:104E800060E070E00E94D225C49A8FEF8FB9779BC3
:104E9000FECF8FB1002319F001E001C004E0802FA4
:104EA000DF91CF910F910895CF92DF92EF92FF9211
:104EB0000F93CF93DF93EB0169017A01882309F007
:104EC00059C0002309F456C08091EB0080FF02C056
:104ED00003E051C08091EB0082FF02C002E04BC0B2
:104EE0008091F40090E083FD07C079E0CC0CDD1CDC
:104EF000EE1CFF1C7A95D1F7013069F488E1B70107
:104F0000A6010E94D225882359F5CE016EEF0E949A
:104F1000962500E022C086709070892B39F0402FD2
:104F200050E060E070E087E90E94D22589E1B70196
:104F3000A6010E94D225882399F4CE016CEF0E942D
:104F40009625892B29F0015019F0C050DE4FF5CF7E
:104F500080E090E06DEF0E949625892B09F401E036
:104F6000C49A8FEF8FB9779BFECF8FB1002319F0D2
:104F700001E001C004E0802FDF91CF910F91FF90FD
:104F8000EF90DF90CF900895FF920F931F93DF93E0
:104F9000CF93CDB7DEB760970FB6F894DEBF0FBEE4
:104FA000CDBF8A01882309F082C1653059F4FA0126
:104FB0008081882329F0813009F079C1FA01818349
:104FC00020E076C18091EB0080FF02C023E070C139
:104FD0006A3009F422C16B3050F4613011F1613054
:104FE000A0F0623009F483C0633069F486C06C308D
:104FF00009F41AC16C3008F415C16D3009F421C1EF
:105000006E3009F436C124E04BC10E944725892B3C
:1050100009F445C1C49A8FEF8FB9779BFECF8FB14A
:10502000FAC089E040E050E060E070E00E94D225E4
:10503000882309F034C1CE01019660E170E00E943E
:105040005925892B09F42BC18981829586958695EE
:1050500083707A8549858130B1F4872F90E001967D
:10506000342F20E0820F931FA0E0B0E03AE0880FD9
:10507000991FAA1FBB1F3A95D1F7F801808391832E
:10508000A283B3830DC1429546954695437028850A
:1050900030E0220F331F220F331F240F311D2F5FEB
:1050A0003F4F8F8190E083709070982F8827990FE1
:1050B000990F280F391F40E050E08E818F706B856B
:1050C000661F6627661F860F8E5F7370770F870FC8
:1050D00090E0099704C0220F331F441F551F8A9583
:1050E000D2F7F801208331834283538394C080E058
:1050F00092E0FA01918380838EC08091F400F82EB3
:1051000082FF2FC08DE840E050E060E070E00E9438
:10511000D225882309F0C3C08FEF8FB9779BFECFCC
:105120008FB1CE01019660E170E00E945925892B74
:1051300009F4B5C080E39FEF9FB9779BFECF2FB1F5
:105140008150D1F72B8522952F7080E190E0A0E06F
:10515000B0E004C0880F991FAA1FBB1F2A95D2F781
:1051600055C089E040E050E060E070E00E94D22548
:10517000882309F094C0CE01019660E170E00E949E
:105180005925892B09F48BC04B858C85F1FE1BC0FA
:10519000881F8827881F90E00196242F30E02F7306
:1051A0003070220F331F820F931F2E852295269574
:1051B0002695237030E02150304002C0880F991F9F
:1051C0002A95E2F721C0282F30E023703070F3E0F9
:1051D000220F331FFA95E1F7829586958770280F85
:1051E000311D2F5F3F4F842F90E08C779070959505
:1051F0008795959587950196AC01249FC001259FC1
:10520000900D349F900D1124A0E0B0E0F801808350
:105210009183A283B38320E043C08091F400FA011C
:105220008083F9CF89E001C08AE040E050E060E08F
:1052300070E00E94D225882391F5C80160E170E0FA
:1052400029C08AE340E050E060E070E00E94D2258F
:10525000882329F5F8019FEF98012D5F3F4F9FB9F3
:10526000779BFECF8FB18083E217F307A1F23196CF
:10527000F6CF8DE840E050E060E070E00E94D2257B
:10528000882369F48FEF8FB9779BFECF8FB1C80168
:1052900060E470E00E94592520E0892B09F421E0A8
:1052A000C49A8FEF8FB9779BFECF8FB101C024E0F6
:1052B000822F60960FB6F894DEBF0FBECDBFCF91A0
:1052C000DF911F910F91FF9008958091F200882344
:1052D00019F081508093F2008091F300882319F037
:1052E00081508093F3008091EB009A9902C08D7FEA
:1052F00001C083608093EB000895629FD001739F8B
:10530000F001829FE00DF11D649FE00DF11D929F61
:10531000F00D839FF00D749FF00D659FF00D9927A0
:10532000729FB00DE11DF91F639FB00DE11DF91FC4
:10533000BD01CF0111240895A1E21A2EAA1BBB1BA7
:10534000FD010DC0AA1FBB1FEE1FFF1FA217B30751
:10535000E407F50720F0A21BB30BE40BF50B661F67
:10536000771F881F991F1A9469F76095709580952B
:1053700090959B01AC01BD01CF010895FB019F01F8
:10538000E8944230C4F04532B4F44A3029F497FB33
:105390001EF4909581959F4F642F77270E94EF29E7
:1053A000805D8A330CF0895D8193CB010097A1F772
:1053B00016F45DE251931082C9010C94DF29DC01DF
:1053C000FC01672F71917723E1F7329704C07C913C
:1053D0006D9370836291AE17BF07C8F30895AA1B3F
:1053E000BB1B51E107C0AA1FBB1FA617B70710F0D0
:1053F000A61BB70B881F991F5A95A9F78095909502
:0A540000BC01CD010895F894FFCF20
:10540A00627566616464006E6F7779352E7478749C
:10541A00006B6F6420626C653A002D00EBFE904DC4
:10542A0053444F53352E30004E4F204E414D4520A8
:10543A002020204641543332202020004E4F204E57
:10544A00414D452020202046415420202020200084
:10545A00222A2B2C3A3B3C3D3E3F5B5D7C7F000081
:10546A0080004000200010000800400020001000CA
:10547A00080004000200040002000180004000202D
:0C548A00001000080004000200000001F7
:00000001FF
