:100000000C942A000C9447000C9447000C94470071
:100010000C9447000C9447000C94B5030C944700D3
:100020000C9447000C9447000C9447000C94490032
:100030000C9447000C9447000C9447000C94470024
:100040000C9447000C9447000C9447000C94470014
:100050000C94470011241FBECFE5D8E0DEBFCDBF12
:1000600011E0A0E6B0E0E8E7F9E002C005900D92EB
:10007000A633B107D9F711E0A6E3B1E001C01D92A4
:10008000A834B107E1F70E94FB010C94BA040C9468
:1000900000001F920F920FB60F9211248F93809140
:1000A00036018F5F809336018C3341F41092410109
:1000B0001092360113BE83B7887F83BF8F910F9054
:1000C0000FBE0F901F9018950F931F93CF93DF9340
:1000D0000E94170380E060E00E940F0380E690E03A
:1000E0000E94AF0210924701C8ECD0E011E00AE094
:1000F00020914101222311F4A89803C0213009F472
:10010000A89A80914701882309F449C0DF9880EDBF
:1001100097E0FE013197F1F70197D9F7DF9A8091C7
:1001200045018A3010F0109247018091450180917D
:1001300045018A30A0F510924701213079F4809171
:100140003D01809FC001112480933D012091450114
:10015000280F20933D011092410121C083B7856093
:1001600083BF8091450180933D011093410110931D
:10017000420180913E018F5F80933E0180E060E00C
:100180000E940F0380E790E00E94AF02809145013A
:1001900090E00E9489038AE790E00E94AF0280917C
:1001A0004101882309F0A4CF80914201813009F0F8
:1001B0009FCF80E060E00E940F0380E790E00E9404
:1001C000AF0280913D0190E00E94890381E890E0B8
:1001D0000E94AF0290913D0180913F01891740F448
:1001E00081E060E00E940F0388E890E00E94AF0287
:1001F00090913D0180913F01981740F481E060E0CB
:100200000E940F0380E990E00E94AF0290913D01AF
:1002100080913F01981709F06BCF81E060E00E9468
:100220000F0388E990E00E94AF0280913E0190E0C8
:100230000E94890384EA90E00E94AF028091470106
:100240008823E1F380914501873111F40E942B014D
:1002500010924701F3CFCF93DF930E941703809151
:100260004501873181F080E060E00E940F0386EA5B
:1002700090E00E94AF0281E060E00E940F0381EBFA
:1002800090E00E94AF02C8ECD0E080914701882343
:10029000F1F0DF9880ED97E0FE013197F1F70197DB
:1002A000D9F7DF9A80914501873189F48CB59DB5E6
:1002B00063E670E00E946D048F5F80933F011092AF
:1002C0003E0110923D01109242010E946400109282
:1002D0004701DBCFCF93DF9380E060E00E940F0304
:1002E00082EC90E00E94AF02C8ECD0E02091400187
:1002F000809147018823A1F080914501813151F41B
:10030000223040F42F5F80ED97E0FE013197F1F746
:100310000197D9F780914501803111F421112150C5
:10032000109247012130F1F0213018F0223001F70E
:1003300034C02093400181E060E00E940F0382ED11
:1003400090E00E94AF0280914701882379F280916A
:100350004501873121F080914501863139F60E94AF
:100360002B01C4CF2093400181E060E00E940F0385
:1003700083EE90E00E94AF0280914701882309F448
:10038000B5CF80914501873129F0809145018631B3
:1003900009F0ACCF0E94D801A9CF2093400181E0A1
:1003A00060E00E940F0384EF90E00E94AF029ECFB6
:1003B0001F930E94170311E080914701882341F0A9
:1003C00080914501853121F4109340010E946A011A
:1003D0001092470180E060E00E940F0385E091E009
:1003E0000E94AF0281E060E00E940F0385E191E08E
:1003F0000E94AF02E1CFDF93CF93CDB7DEB7609716
:100400000FB6F894DEBF0FBECDBF88EE93E028ECA8
:1004100030E0F9013197F1F70197D9F7D79AA09A0F
:100420008FEF85BBDF9A83B7856083BF89B7816013
:1004300089BF13BE0E941B030E94A5037894DE01AE
:100440001196EEE2F1E088E001900D928150E1F723
:10045000DE011996E6E2F1E088E001900D9281500C
:10046000E1F780E8BE016F5F7F4F0E94D70281E80D
:10047000BE01675F7F4F0E94D7020E946A0180E041
:1004800090E060960FB6F894DEBF0FBECDBFCF915F
:10049000DF91089580FF02C0DB9A01C0DB9881FFE5
:1004A00002C0DC9A01C0DC9882FF02C0DD9A01C064
:1004B000DD9883FF02C0DE9A0895DE98089589B31F
:1004C00090E023E0969587952A95E1F78170CC9985
:1004D0008260CD998460CE99886008951F93D698E4
:1004E000D598D498D398D99ADA9A0E945F02182F97
:1004F0001295107FDA98DA9A0E945F02DA98812BBF
:100500001F910895D8980E946E0208951F93182F86
:10051000D69AD59AD49AD39AD998DA9A82958F7026
:100520000E944A02DA98DA9A812F0E944A02DA98E7
:100530000E94820287FDFCCF1F910895D8980E94E7
:1005400086020895D89A0E9486020895982F8058AE
:10055000883008F49770892F0E94A2020895CF93E3
:10056000DF93EC0108C0892F8058883008F4977019
:10057000892F0E94A20299919923A9F7DF91CF9127
:100580000895CF93DF93EC010AC0892F80588830FB
:1005900010F0892F02C0892F87700E94A202FE01ED
:1005A00021969491992389F7DF91CF9108951F9314
:1005B000CF93DF93EB0190E0877090700896880FDF
:1005C000880F880F0E949E0210E089910E94A2026B
:1005D0001F5F1830D1F7DF91CF911F9108950F93CE
:1005E0001F93CF93DF938B0190E0877090700896F4
:1005F000880F880F880F0E949E02C0E0D0E0F801AB
:10060000EC0FFD1FE4918E2F0E94A2022196C830AC
:10061000D105A9F7DF91CF911F910F9108958130F6
:1006200009F480E46058860F0E949E02089581E0DC
:100630000E949E0208950F931F93D69AD59AD49A3A
:10064000D39AD09AD29AD19AD898DA98D99880E346
:1006500095E70197F1F7D898D99880E30E944A026C
:1006600088E090E20197F1F780E30E944A0208ECEB
:1006700010E0C8010197F1F780E20E944A02C80128
:100680000197F1F788E20E949E0288E00E949E0294
:100690008CE00E949E0286E00E949E020E94170348
:1006A0001F910F9108950F931F93CF93DF938B01A9
:1006B00090E0877090700896880F880F880F0E94CE
:1006C0009E02C0E0D0E0C8018C0F9D1F0E94A204D2
:1006D0000E94A2022196C830D105A9F7DF91CF91DF
:1006E0001F910F910895CF93DF93EC0121960E9403
:1006F000A204982F81508E3F48F48F57883008F419
:100700009770892F0E94A202CE01EFCFDF91CF9187
:100710000895DF93CF93CDB7DEB761970FB6F89406
:10072000DEBF0FBECDBFBE016F5F7F4F4AE050E01E
:100730000E9481040E94AF0261960FB6F894DEBF5A
:100740000FBECDBFCF91DF9108958E98969A8EB54A
:1007500082608EBD8EB58F7B8EBD1092460189B7AB
:10076000806289BF1092470108951F920F920FB6C1
:100770000F9211242F933F938F939F9326B537B5F4
:1007800080913B0190913C01281B390B86B597B5B0
:1007900090933C0180933B018EB590E489278EBDF8
:1007A00087E02B3B380710F01092460180914601FC
:1007B000882319F081E080933701809146018823D6
:1007C00089F4109239011092380110923A018EB5D5
:1007D00080648EBD809146018F5F8093460182E0E8
:1007E0008093370180913701813009F064C082E045
:1007F000213B380710F41092370187E02B3B380774
:1008000010F01092370180913701813009F053C008
:100810002254344028F0809146018F5F8093460136
:1008200080914601823008F441C08091460180FDEC
:100830003DC08091380190913901880F991F9093A4
:100840003901809338010EB406FE05C08160909393
:1008500039018093380180913A018F5F80933A018A
:100860008D3020F1809147018823D9F420913801FF
:1008700030913901822F8F7380934501C901807CAB
:100880009770689415F8969587951694E1F780937C
:10089000440120703870832F8695869586958093C5
:1008A00043011092370181E0809347018091460116
:1008B0008F5F8093460180913701882329F410923D
:1008C00046018EB58F7B8EBD9F918F913F912F9169
:1008D0000F900FBE0F901F901895AA1BBB1B51E1E4
:1008E00007C0AA1FBB1FA617B70710F0A61BB70BA0
:1008F000881F991F5A95A9F780959095BC01CD0145
:100900000895FB019F01E8944230C4F04532B4F4ED
:100910004A3029F497FB1EF4909581959F4F642FE0
:1009200077270E946D04805D8A330CF0895D819386
:10093000CB010097A1F716F45DE251931082C90133
:100940000C94AA04E199FECF9FBB8EBBE09A992735
:100950008DB30895DC01FC01672F71917723E1F7D6
:10096000329704C07C916D9370836291AE17BF077C
:08097000C8F30895F894FFCFCD
:100978004B6C696B6E696A206B6C617769737A007E
:1009880057796272616C65733A005F2020202020DD
:1009980000202020202020005A612064757A6F00F2
:1009A8005A61206D616C6F005A6761646C657320D1
:1009B8007A6120007800576369736E696A204F4B2B
:1009C8000041627920777973746172746F7761631B
:1009D800210020204D454E5520474C4F574E45206D
:1009E80020003129537461727420477279202020C5
:1009F8002020003229496E666F20202020202020E8
:100A0800202020003329557374617769656E696108
:100A1800202020200050726F6772616D206E617017
:100A28006973616C002020202A2A58616D7265580C
:100A38002A2A202020000404040404150E04040EAD
:060A48001504040404047F
:00000001FF
