:100000000C9439000C9456000C9456000C94560035
:100010000C9456000C9456000C9456000C94560008
:100020000C9456000C9456000C9456000C945600F8
:100030000C9456000C9456000C9456000C945600E8
:100040000C9456000C9456000C9456000C945600D8
:100050000C945600464C415348000E111B111115CB
:10006000110E040A0A0A111F1F0E4C696E696131D4
:10007000000011241FBECFE5D8E0DEBFCDBF10E0E9
:10008000A0E6B0E0EAEDF4E002C005900D92A437DE
:10009000B107D9F710E0A4E7B0E001C01D92AB387A
:1000A000B107E1F70E9458000C946B020C94000019
:1000B00084E790E06FE070E04DE050E00E942F0296
:1000C000889A909A0E947E0184E590E00E94240123
:1000D00080E06AE00E9472018AE690E00E942401BA
:1000E00081E060E00E94720180E090E00E94DC010B
:1000F00081E06AE00E94720180E690E00E941201B5
:1001000080E86BE670E00E943A0181E867E070E009
:100110000E94BC0182E86AE570E00E94520183E817
:1001200062E670E00E94520180E067E00E94720186
:1001300084E690E00E94120181E068E00E94720172
:1001400087E690E00E94120181E067E00E94720160
:1001500089E690E00E941201FFCF80FF02C0AC9AB6
:1001600001C0AC9881FF02C0AD9A01C0AD9882FF7A
:1001700002C0AE9A01C0AE9883FF02C0AF9A089544
:10018000AF98089583B390E024E0969587952A95DB
:10019000E1F781709D9982609E9984609F99886043
:1001A00008951F93A798A698A598A498A99AAA9A83
:1001B0000E94C200182F1295107FAA98AA9A0E9436
:1001C000C200AA98812B1F910895A8980E94D1007F
:1001D00008951F93182FA79AA69AA59AA49AA9984A
:1001E000AA9A82958F700E94AD00AA98AA9A812F30
:1001F0000E94AD00AA980E94E50087FDFCCF1F91E8
:100200000895A8980E94E9000895A89A0E94E9001C
:100210000895982F8058883008F49770892F0E948D
:1002200005010895CF93DF93EC0108C0892F805812
:10023000883008F49770892F0E94050199919923BD
:10024000A9F7DF91CF910895CF93DF93EC010AC016
:10025000892F8058883010F0892F02C0892F87702D
:100260000E940501FE0121969491992389F7DF915F
:10027000CF9108951F93CF93DF93EB0190E08770A8
:1002800090700896880F880F880F0E94010110E077
:1002900089910E9405011F5F1830D1F7DF91CF913E
:1002A0001F9108950F931F93CF93DF938B0190E0DD
:1002B000877090700896880F880F880F0E94010140
:1002C000C0E0D0E0F801EC0FFD1FE4918E2F0E94FA
:1002D00005012196C830D105A9F7DF91CF911F9173
:1002E0000F910895813009F480E46058860F0E94D0
:1002F0000101089581E00E9401010895CF93DF93E9
:10030000A79AA69AA59AA49AA09AA29AA19AA898FE
:10031000AA98A99826E930E044EF51E0C4EFD1E073
:10032000CA010197F1F721503040C1F7A898A99868
:1003300080E30E94AD0084E190E50197F1F780E34E
:100340000E94AD00CE010197F1F780E20E94AD005E
:10035000CE010197F1F788E20E94010188E00E9436
:1003600001018CE00E94010186E00E9401010E94CF
:100370007A01DF91CF9108950F931F93CF93DF936D
:100380008B0190E0877090700896880F880F880F17
:100390000E940101C0E0D0E0C8018C0F9D1F0E94A7
:1003A0003F020E9405012196C830D105A9F7DF91CF
:1003B000CF911F910F910895CF93DF93EC01219678
:1003C0000E943F02982F81508E3F48F48F5788300B
:1003D00008F49770892F0E940501CE01EFCFDF91BD
:1003E000CF910895DF93CF93CDB7DEB761970FB666
:1003F000F894DEBF0FBECDBFBE016F5F7F4F4AE0F6
:1004000050E00E940E020E94120161960FB6F8940D
:10041000DEBF0FBECDBFCF91DF910895FB019F01DD
:10042000E8944230C4F04532B4F44A3029F497FBE2
:100430001EF4909581959F4F642F77270E94570255
:10044000805D8A330CF0895D8193CB010097A1F721
:1004500016F45DE251931082C9010C944702DC014D
:10046000CB01FC01E199FECF06C0FFBBEEBBE09AD9
:1004700031960DB20D9241505040B8F70895E19970
:10048000FECF9FBB8EBBE09A99278DB30895DC0108
:10049000FC01672F71917723E1F7329704C07C91BB
:1004A0006D9370836291AE17BF07C8F30895AA1BBE
:1004B000BB1B51E107C0AA1FBB1FA617B70710F04F
:1004C000A61BB70B881F991F5A95A9F78095909581
:0A04D000BC01CD010895F894FFCFA0
:1004DA00747874008081008200830010101214184E
:0404EA00101F0000DF
:00000001FF
