:100000000C9432000C944F000C944F000C944F0051
:100010000C944F000C944F000C944F000C944F0024
:100020000C944F000C944F000C9466000C944F00FD
:100030000C944F000C944F000C944F000C944F0004
:100040000C944F000C944F000C944F000C944F00F4
:100050000C944F00C0F9A4B0999282D88090FFC64A
:10006000C0C7860011241FBECFE5D8E0DEBFCDBFDC
:1000700010E0A0E6B0E0E0EAFDE002C005900D92DD
:10008000A236B107D9F710E0A2E6B0E001C01D9298
:10009000AA36B107E1F70E94BA030C94CE060C947D
:1000A00000008FEF84BB85BB81B3806F81BB82B3BF
:1000B000806F82BB83B7886083BF83B7856083BF4F
:1000C00089E08CBF89B7826089BF08951F920F9223
:1000D0000FB60F9211242F938F939F93EF93FF935B
:1000E00082B3807F82BB20916000213041F4E09197
:1000F0006400F0916500EC5AFF4FE4911DC022307E
:1001000041F4E0916600F0916700EC5AFF4FE491F2
:1001100013C0243041F4E0916800F0916900EC5A7A
:10012000FF4FE49109C0283041F4E0916200F09162
:100130006300EC5AFF4FE491E5BB82B3922F909598
:100140009F70807F982B92BB822F880F80936000D6
:10015000893018F081E080936000FF91EF919F91CA
:100160008F912F910F900FBE0F901F9018952F9287
:100170003F920F931F93CF93DF938C01E1018A8508
:100180009B851801281A390A37FE04C0309421943F
:1001900031083394C80168EE73E00E946E067987D7
:1001A0006887C80168EE73E00E946E0664E670E03E
:1001B0000E946E067F836E83C80164E670E00E9431
:1001C0006E066AE070E00E946E067D836C83C80153
:1001D0006AE070E00E946E069B838A8380916400CF
:1001E0009091650028853985821B930B8B5F9F4F0B
:1001F00094F1809164009091650028853985821B77
:10020000930B181619060CF04FC080916400909162
:10021000650028853985821B930B0597E4F044C05F
:1002200080916400909165000197909365008093A0
:100230006400809164009091650097FF04C0709302
:1002400065006093640080E496E0FA013197F1F76D
:10025000019729F0FACF69E070E048EC50E0209176
:100260006400309165008885998528173907C1F6A3
:1002700026C080916400909165000196909365007E
:100280008093640080916400909165000A9721F446
:10029000109265001092640080E496E0FA013197B4
:1002A000F1F7019719F0FACF48EC50E02091640083
:1002B000309165008885998528173907D1F688859A
:1002C00099859101200F311F019648EE53E0BC0142
:1002D000649FC001659F900D749F900D1124281795
:1002E00039078CF488859985980122193309DC0136
:1002F000A49FC001A59F900DB49F900D112482175B
:1003000093070CF4D89888EB9BE028EC30E0F901D7
:100310003197F1F70197D9F78091660090916700C6
:100320002E813F81821B930B8B5F9F4F94F18091B5
:100330006600909167002E813F81821B930B1816F7
:1003400019060CF04FC080916600909167002E81D5
:100350003F81821B930B0597E4F044C080916600B7
:100360009091670001979093670080936600809159
:1003700066009091670097FF04C0709367006093D8
:10038000660080E496E0FA013197F1F7019729F0D1
:10039000FACF69E070E048EC50E0209166003091BF
:1003A00067008E819F8128173907C1F626C080918A
:1003B00066009091670001969093670080936600B5
:1003C00080916600909167000A9721F4109267006F
:1003D0001092660080E496E0FA013197F1F70197F8
:1003E00019F0FACF48EC50E0209166003091670098
:1003F0008E819F8128173907D1F6888599852E81AE
:100400003F8168E17CEFFC01E69FC001E79F900D12
:10041000F69F900D1124800F911F820D931D2F5F69
:100420003F4F44E650E0D901A49F9001A59F300DB5
:10043000B49F300D112482179307E4F488859985C1
:100440002E813F81FC01E69FC001E79F900DF69F42
:10045000900D1124800F911F82199309B901649F97
:100460009001659F300D749F300D112428173907B6
:100470000CF4D99888EB9BE028EC30E0F901319737
:10048000F1F70197D9F780916800909169002C816C
:100490003D81821B930B8B5F9F4F94F1809168008D
:1004A000909169002C813D81821B930B18161906CF
:1004B0000CF04FC080916800909169002C813D81C3
:1004C000821B930B0597E4F044C0809168009091E3
:1004D000690001979093690080936800809168009B
:1004E0009091690097FF04C0709369006093680061
:1004F00080E496E0FA013197F1F7019729F0FACFFD
:1005000069E070E048EC50E02091680030916900AB
:100510008C819D8128173907C1F626C0809168001B
:100520009091690001969093690080936800809192
:100530006800909169000A9721F410926900109266
:10054000680080E496E0FA013197F1F7019719F01D
:10055000FACF48EC50E020916800309169008C811E
:100560009D8128173907D1F66E817F81888599850D
:100570004C815D81A8E1BCEF8A9F90018B9F300D7B
:100580009A9F300D1124ECE9FFEF6E9FC0016F9F21
:10059000900D7E9F900D1124280F391F200F311FC1
:1005A000220D331D4F5F5F4FCA0173E0880F991F03
:1005B0007A95E1F7440F551F840F951F28173907C7
:1005C00054F52E813F81888599854C815D81BC01E0
:1005D0006A9FC0016B9F900D7A9F900D1124D901E5
:1005E000AE9F9001AF9F300DBE9F300D1124820F42
:1005F000931F800F911F821993099A01F3E0220F34
:10060000331FFA95E1F7440F551F240F351F2817A4
:1006100039070CF4DA9888EB9BE028EC30E0F9011C
:100620003197F1F70197D9F78091620090916300BB
:100630002A813B81821B930B8B5F9F4F94F18091AA
:100640006200909163002A813B81821B930B1816F4
:1006500019060CF04FC080916200909163002A81CE
:100660003B81821B930B0597E4F044C080916200AC
:100670009091630001979093630080936200809152
:1006800062009091630097FF04C0709363006093D1
:10069000620080E496E0FA013197F1F7019729F0C2
:1006A000FACF69E070E048EC50E0209162003091B0
:1006B00063008A819B8128173907C1F626C0809183
:1006C00062009091630001969093630080936200B2
:1006D00080916200909163000A9721F41092630068
:1006E0001092620080E496E0FA013197F1F70197E9
:1006F00019F0FACF48EC50E020916200309163008D
:100700008A819B8128173907D1F6288539856E8122
:100710007F814C815D81EA81FB8188EE93E0DC0181
:100720002A9FC0012B9F900D3A9F900D112424E623
:1007300030E0D9016A9F90016B9F300D7A9F300D98
:100740001124820F931F8E0F9F1F9A0173E0220FB7
:10075000331F7A95E1F7440F551F240F351F820F81
:10076000931F9B878A87DF91CF911F910F913F90B5
:100770002F9008952F923F92AF92BF92CF92DF9227
:10078000EF92FF920F931F93DF93CF93CDB7DEB716
:100790002C970FB6F894DEBF0FBECDBF0E9451005C
:1007A00078940E94E40584E190E00E94520688EE6D
:1007B00093E028EC30E0F9013197F1F70197D9F790
:1007C00084E190E060E070E00E946E06CB010E9440
:1007D000520617BA88B38F6188BB8FEF8ABB8BBB79
:1007E00088EE93E028EC30E0F9013197F1F70197BA
:1007F000D9F785E090E09093650080936400909332
:1008000067008093660090936900809368009093DE
:1008100063008093620028EC30E0B0991AC088E051
:1008200097E0F9013197F1F70197D9F780916400CA
:10083000909165000196909365008093640080918B
:100840006400909165000A9724F010926500109260
:100850006400B1991AC088E097E0F9013197F1F787
:100860000197D9F780916600909167000196909367
:1008700067008093660080916600909167000A97F8
:1008800024F01092670010926600B2991AC088E0B6
:1008900097E0F9013197F1F70197D9F78091680056
:1008A000909169000196909369008093680080910F
:1008B0006800909169000A9724F0109269001092E4
:1008C0006800B3991AC088E097E0F9013197F1F711
:1008D0000197D9F7809162009091630001969093FF
:1008E00063008093620080916200909163000A9798
:1008F00024F01092630010926200B4998ECF209180
:1009000064003091650060916600709167004091CD
:10091000680050916900E0916200F091630088EEF8
:1009200093E0DC012A9FC0012B9F900D3A9F900D10
:10093000112424E630E0D9016A9F90016B9F300DAD
:100940007A9F300D1124820F931F8E0F9F1F9A01E3
:10095000A3E0220F331FAA95E1F7440F551F240F80
:10096000351F820F931F9A83898307E813E1EFE015
:10097000EE2EE7E2FE2ECC24DD245E010894A11CBD
:10098000B11C1CC01501C8010E94B70089819A8161
:100990000817190754F4C701800F911F62E070E037
:1009A0000E946E066801870107C0C601800F911F73
:1009B00062E070E00E946E0678018B0189819A8165
:1009C00008171907F9F61501C8010E94B700DB984E
:1009D0008BE090E090936500809364008CE090E061
:1009E00090936700809366001092690010926800EF
:1009F0008DE090E09093630080936200FFCF80FFD2
:100A000002C0949A01C0949881FF02C0959A01C0D7
:100A1000959882FF02C0969A01C0969883FF02C003
:100A2000979A08959798089580B390E024E096955A
:100A300087952A95E1F7817085998260869984600F
:100A40008799886008951F938F988E988D988C98B9
:100A5000C59AC79A0E941405182F1295107FC7983F
:100A6000C79A0E941405C798812B1F910895C698B4
:100A70000E94230508951F93182F8F9A8E9A8D9A9E
:100A80008C9AC598C79A82958F700E94FF04C79868
:100A9000C79A812F0E94FF04C7980E94370587FDDF
:100AA000FCCF1F910895C6980E943B050895C69AF1
:100AB0000E943B050895982F8058883008F497705D
:100AC000892F0E9457050895CF93DF93EC0108C04A
:100AD000892F8058883008F49770892F0E94570515
:100AE00099919923A9F7DF91CF910895CF93DF933F
:100AF000EC010AC0892F8058883010F0892F02C07D
:100B0000892F87700E945705FE01219694919923A1
:100B100089F7DF91CF9108951F93CF93DF93EB0176
:100B200090E0877090700896880F880F880F0E9459
:100B3000530510E089910E9457051F5F1830D1F7C7
:100B4000DF91CF911F9108950F931F93CF93DF9360
:100B50008B0190E0877090700896880F880F880F3F
:100B60000E945305C0E0D0E0F801EC0FFD1FE491B6
:100B70008E2F0E9457052196C830D105A9F7DF9125
:100B8000CF911F910F910895813009F480E460584E
:100B9000860F0E945305089581E00E945305089531
:100BA00083E00E94530508958EE00E945305089546
:100BB0008CE00E94530508958FE00E94530508952C
:100BC0008CE00E94530508950F931F938F9A8E9A7D
:100BD0008D9A8C9ABE9ABF9ABD9AC698C798C598A6
:100BE00080E395E70197F1F7C698C59880E30E94E6
:100BF000FF0488E090E20197F1F780E30E94FF0490
:100C000008EC10E0C8010197F1F780E20E94FF04B0
:100C1000C8010197F1F788E20E94530588E00E941D
:100C200053058CE00E94530586E00E9453050E9404
:100C3000CC051F910F9108950F931F93CF93DF93CE
:100C40008B0190E0877090700896880F880F880F4E
:100C50000E945305C0E0D0E0C8018C0F9D1F0E9488
:100C6000B6060E9457052196C830D105A9F7DF9135
:100C7000CF911F910F910895CF93DF93EC012196AF
:100C80000E94B606982F81508E3F48F48F578830C7
:100C900008F49770892F0E945705CE01EFCFDF919E
:100CA000CF910895DF93CF93CDB7DEB761970FB69D
:100CB000F894DEBF0FBECDBFBE016F5F7F4F4AE02D
:100CC00050E00E9495060E94640561960FB6F89464
:100CD000DEBF0FBECDBFCF91DF91089597FB092EE8
:100CE00007260AD077FD04D00CD006D000201AF4D5
:100CF000709561957F4F0895F6F7909581959F4F78
:100D00000895AA1BBB1B51E107C0AA1FBB1FA61752
:100D1000B70710F0A61BB70B881F991F5A95A9F7A4
:100D200080959095BC01CD010895FB019F01E89449
:100D30004230C4F04532B4F44A3029F497FB1EF433
:100D4000909581959F4F642F77270E948106805D43
:100D50008A330CF0895D8193CB010097A1F716F4DB
:100D60005DE251931082C9010C94BE06E199FECF59
:100D70009FBB8EBBE09A99278DB30895DC01FC01DF
:100D8000672F71917723E1F7329704C07C916D93BF
:100D900070836291AE17BF07C8F30895F894FFCF30
:020DA000010050
:00000001FF
