:100000000C942A000C943C000C943C000C943C0092
:100010000C943E000C943C000C943C000C943C006E
:100020000C943C000C943C000C943C000C943C0060
:100030000C943C000C943C000C943C000C943C0050
:100040000C943C000C943C000C943C000C943C0040
:100050000C943C0011241FBECFE5D8E0DEBFCDBF1D
:1000600010E0A0E6B0E001C01D92A536B107E1F7AF
:100070000E946C000C9441020C9400001F920F929D
:100080000FB60F9211248F939F938091640090E09C
:10009000009719F00197809364008091630090E0CD
:1000A000009719F00197809363008091600090E0C1
:1000B000009719F00197809360008091610090E0B3
:1000C000009719F00197809361009F918F910F9095
:1000D0000FBE0F901F901895789487B3836087BBED
:1000E0008FEF88BB85B5886085BD85B5876085BD88
:1000F0008CE683BD80E889BF0E946A01109264008B
:100100008AE0809363009AE031E022E0809164000D
:10011000882329F49093640088B3832788BB809157
:100120006300882399F79093630088B3822788BB84
:10013000EDCF80FF02C0DB9A01C0DB9881FF02C0D7
:10014000DC9A01C0DC9882FF02C0DD9A01C0DD9814
:1001500083FF02C0DE9A0895DE98089589B390E087
:1001600023E0969587952A95E1F78170CC99826076
:10017000CD998460CE99886008951F93D698D598BC
:10018000D498D398D99ADA9A0E94AE00182F129573
:10019000107FDA98DA9A0E94AE00DA98812B1F91CC
:1001A0000895D8980E94BD0008951F93182FD69ADD
:1001B000D59AD49AD39AD998DA9A82958F700E9458
:1001C0009900DA98DA9A812F0E949900DA980E94B1
:1001D000D10087FDFCCF1F910895D8980E94D500CB
:1001E0000895D89A0E94D5000895982F8058883095
:1001F00008F49770892F0E94F1000895CF93DF9340
:10020000EC0108C0892F8058883008F49770892F36
:100210000E94F10099919923A9F7DF91CF91089558
:10022000CF93DF93EC010AC0892F8058883010F0FB
:10023000892F02C0892F87700E94F100FE0121964C
:100240009491992389F7DF91CF9108951F93CF93CC
:10025000DF93EB0190E0877090700896880F880F0D
:10026000880F0E94ED0010E089910E94F1001F5F4D
:100270001830D1F7DF91CF911F9108950F931F93FD
:10028000CF93DF938B0190E0877090700896880F72
:10029000880F880F0E94ED00C0E0D0E0F801EC0F5D
:1002A000FD1FE4918E2F0E94F1002196C830D105E8
:1002B000A9F7DF91CF911F910F910895813009F433
:1002C00080E46058860F0E94ED00089581E00E944E
:1002D000ED0008950F931F93D69AD59AD49AD39A86
:1002E000D09AD29AD19AD898DA98D99880E395E79B
:1002F0000197F1F7D898D99880E30E94990088E097
:1003000090E20197F1F780E30E94990008EC10E079
:10031000C8010197F1F780E20E949900C801019796
:10032000F1F788E20E94ED0088E00E94ED008CE089
:100330000E94ED0086E00E94ED000E9466011F9180
:100340000F9108950F931F93CF93DF938B0190E04C
:10035000877090700896880F880F880F0E94ED00B4
:10036000C0E0D0E0C8018C0F9D1F0E9415020E94C2
:10037000F1002196C830D105A9F7DF91CF911F91E7
:100380000F910895CF93DF93EC0121960E941502FF
:10039000982F81508E3F48F48F57883008F497701B
:1003A000892F0E94F100CE01EFCFDF91CF91089508
:1003B000DF93CF93CDB7DEB761970FB6F894DEBF6A
:1003C0000FBECDBFBE016F5F7F4F4AE050E00E947D
:1003D000F4010E94FE0061960FB6F894DEBF0FBED6
:1003E000CDBFCF91DF910895FB019F01E89442308A
:1003F000C4F04532B4F44A3029F497FB1EF49095CA
:1004000081959F4F642F77270E942D02805D8A334C
:100410000CF0895D8193CB010097A1F716F45DE2A2
:1004200051931082C9010C941D02E199FECF9FBB2C
:100430008EBBE09A99278DB30895DC01FC01672FEC
:1004400071917723E1F7329704C07C916D937083AB
:100450006291AE17BF07C8F30895AA1BBB1B51E1F9
:1004600007C0AA1FBB1FA617B70710F0A61BB70B24
:10047000881F991F5A95A9F780959095BC01CD01C9
:060480000895F894FFCF7F
:00000001FF
