:100000000C942A000C9434000C9434000C943400AA
:100010000C9434000C9434000C9434000C94340090
:100020000C9434000C9434000C9434000C94340080
:100030000C9434000C9434000C9434000C94340070
:100040000C9434000C9434000C9434000C94340060
:100050000C94340011241FBECFE5D8E0DEBFCDBF25
:100060000E9436000C9453000C940000BB9A88E365
:1000700085BD83B7806383BF83B7846083BF20E07F
:1000800040E25EE405C02CBFCA010197F1F72F5F83
:100090002F3FC9F72CBFCA010197F1F7215021303A
:0A00A000C9F720E0F0CFF894FFCF7D
:00000001FF
