:100000000C942A000C9434000C9434000C943400AA
:100010000C9434000C9434000C9434000C94340090
:100020000C9434000C9434000C9434000C94340080
:100030000C9434000C9434000C9434000C94340070
:100040000C9434000C9434000C9434000C94340060
:100050000C94340011241FBECFE5D8E0DEBFCDBF25
:100060000E9436000C944B000C94000081E084BB8D
:1000700024EF31E0A89A80E197E2F9013197F1F796
:100080000197D9F7A89880E197E2F9013197F1F744
:0A0090000197D9F7EFCFF894FFCFE6
:00000001FF
