:100000000C94452C0C94622C0C94622C0C94622C55
:100010000C94622C0C94622C0C94622C0C94622C28
:100020000C94622C0C94622C0C94622C0C94622C18
:100030000C94622C0C94622C0C94622C0C94622C08
:100040000C94622C0C94622C0C94622C0C94622CF8
:100050000C94622C05A84CCDB2D44EB93836A90206
:100060000C50B9918688083CA6AAAA2ABE000000B6
:10007000803F573B573B573B573B573B573B573BC3
:10008000573B573B573B573B573B573B573B573BE0
:10009000573B573B573B573B573B573B573B573BD0
:1000A000573B573B573B573B573B573B573B573BC0
:1000B000373B373B573B573B573B573B373B373338
:1000C000373B373B373B373B373B373B373B373BA0
:1000D000373B373B373B373B373B373B373B373B90
:1000E000373B373B373337331733163337333733F1
:1000F00017331733163316331633163316331633B6
:10010000163316331633F632F632F632F632F6324C
:10011000F632F632F632F632F632F632F632F6329F
:10012000F632F632F632F632F632F62AF52AD42ACA
:10013000143BD65B1764F33AD432F52AD52AD52A74
:10014000D52AD52AD52AD52AB52AB52AB52AB52A37
:10015000B52AB52AB52AB52AB52AB52AB52AB522AF
:10016000B522B522B522B522B522B522B522B522D7
:1001700095229522952295229422573B573B573B37
:10018000573B573B573B573B573B573B573B573BDF
:10019000573B573B573B583B583B583B583B583BCA
:1001A000573B573B573B573B573B573B573B573BBF
:1001B000573B573B573B573B373B373B573B573BEF
:1001C000573B573B373B373B373B373B573B373B3F
:1001D000373B373B373B373B373B373B373B373B8F
:1001E000373B373B373B373B373B373B373337338F
:1001F0001733173337333733173317331633163371
:100200001633163316331633163316331633F632C7
:10021000F632F632F632F632F632F632F632F6329E
:10022000F632F632F632F632F632F632F632F6328E
:10023000F632F632F52AF52AF43AB65B376CF33A21
:10024000F432F52AD52AD52AD52AD52AD52AD52A6F
:10025000D52AD52AD52AD52AD52AB52AB52AB52A06
:10026000B52AB52AB52AB52AB522B522B522B522B6
:10027000B522B522B522B522952295229522952246
:100280009422573B573B573B573B573B573B573BBA
:10029000573B573B583B583B583B583B583B583BC8
:1002A000583B583B583B583B573B573B573B573BBA
:1002B000573B573B573B573B573B573B573B573BAE
:1002C000373B373B573B573B573B573B573B373BFE
:1002D000573B573B573B573B573B573B573B573B8E
:1002E000373B373B373B373B373B373B373B373B7E
:1002F000373B373B373B373B37333733373337338E
:1003000017331733163316331633163316331633A3
:100310001633163316331633163316331633163395
:10032000163316331633F632F632F632F632F6322A
:10033000F632F632F632F632F632F632F632F6327D
:10034000F53A9653586CF33AF432F52AF62AD62A3F
:10035000D62AD52AD52AD52AD52AD52AD52AD52AA4
:10036000D52AD52AB52AB52AB52AB52AB52AB52A55
:10037000B52AB52AB522B52AB52AB52AB52AB52A8D
:10038000B522B522B522B5229522573B573B573BA4
:10039000573B573B583B583B583B583B583B583BC7
:1003A000583B583B583B783B783B783B783B783B15
:1003B000583B583B583B583B573B573B573B573BA9
:1003C000573B573B573B573B373B373B573B573BDD
:1003D000573B573B573B573B573B573B573B573B8D
:1003E000573B573B573B573B373B373B373B373BFD
:1003F000373B373B373B373B373B373B373B373B6D
:10040000373B373337333733173317331633173315
:10041000173317331733173317331633163316338F
:100420001633163316331633163316331633F632A5
:10043000F632F632F632F632F632F632F632F6327C
:10044000F632F632F62A1733F53A76537974F33AE0
:10045000F432F52AF62AF62AD62AD52AD52AD52A1A
:10046000D52AD52AD52AD52AD52AD52AD52AD52A94
:10047000D52AD52AD52AB52AB52AB52AB522B52A2C
:10048000B52AB52AB52AB52AB522B522B522B52294
:10049000B522573B573B573B573B573B583B583B85
:1004A000583B583B783B783B783B783B783B783BF4
:1004B000783B783B783B583B583B583B583B583B44
:1004C000573B573B573B573B573B573B573B573B9C
:1004D000573B573B573B573B573B573B573B573B8C
:1004E000573B583B583B573B573B573B573B573B7A
:1004F000573B573B573B573B573B373B373B373BCC
:10050000373B373B373B373B373B373B373337336B
:10051000373337331733173317331733173317334B
:100520001733163316331633163316331633163382
:100530001633163316331633163316331633163373
:10054000F632F6321633F632F632F632F632173328
:10055000163B5553797CF342F432F532F62AF62AEB
:10056000D62AD62AD62AD52AD52AD52AD52AD52A90
:10057000D52AD52AD52AD52AD52AD52AD52AB52AA3
:10058000B52AB52AB52AB52AB52AB52AB52AB52A73
:10059000B52AB52AB52AB52AB52A583B583B583B47
:1005A000583B583B783B783B783B783B783B783BF3
:1005B000783B783B783B783B783B583B583B583B03
:1005C000783B783B783B783B583B573B573B573B16
:1005D000573B573B573B573B573B573B583B583B89
:1005E000583B583B583B573B573B573B573B573B78
:1005F000373B373B373B373B573B573B573B573BEB
:10060000573B373B373B373B373B373B373B373B3A
:10061000373B373B373B373B373B373B373337335A
:10062000373337333733373337333733373337337A
:10063000173317331733173317331633163316336D
:100640001633163316331633F632F632F632F632E6
:10065000F632F632F63216331543344B787C134BB0
:10066000754B1533D52AD52AF62AF62AF62AD62A24
:10067000D62AD52AD52AD52AD52AD52AD52AD52A81
:10068000D52AD52AD52AB52AB52AB52AB52AB52A12
:10069000B52AB52AB52AB52AB52AB52AB52AB5226A
:1006A000B52A583B583B583B583B583B783B783B26
:1006B000783B783B783B783B783B783B783B783BA2
:1006C000783B783B583B583B783B783B783B783BD2
:1006D000583B583B583B583B583B583B583B583B82
:1006E000583B583B583B583B583B583B583B573B73
:1006F000573B573B573B573B573B573B573B573B6A
:10070000573B573B573B573B573B373B373B373BB9
:10071000373B373B373B373B373B373B373B373B49
:10072000373B373B37333733373337333733373369
:1007300037333733373337331733173317331733E9
:100740001733163316331633163316331633163360
:10075000F632F63216331633163316331633153B8C
:10076000F33A94631995735B1EA6B753163BD52ACB
:10077000F632F632F62AD62AD62AD62AD52AD52A0B
:10078000D52AD52AD52AD52AD52AD52AD52AD52A71
:10079000D52AD52AD52AD52AD52AD52AD52AB52A81
:1007A000B52AB52AB52AB522B52A583B583B583B3D
:1007B000583B783B783B783B783B783B783B783BC1
:1007C000783B783B783B7843783B783B783B783B89
:1007D000783B783B783B783B783B583B583B583BE1
:1007E000583B583B583B583B583B583B573B573B73
:1007F000573B573B573B573B573B573B573B573B69
:10080000573B573B573B573B573B573B573B573B58
:10081000573B573B373B373B373B373B373B373B08
:10082000373B373B373B373B373B373B373B373340
:100830003733373337333733373337333733373368
:100840003733373337333733373337333733373358
:10085000373317331633163316331633163316332E
:10086000163316331633343B366CF88C39A51474B2
:100870001EAEF763F53A163BF632F632F632F62A3A
:10088000F62AD62AD62AD52AD52AD52AD62AD62A4B
:10089000D62AD62AD52AD52AD52AD52AD52AD52A5E
:1008A000D52AD52AD52AD52AB52AB52AB52AB52AD0
:1008B000B52A583B583B583B583B783B783B783BF4
:1008C000783B783B783B783B783B783B783B784388
:1008D0007843783B783B783B783B783B783B783B78
:1008E000783B783B783B783B783B783B783B783B70
:1008F000783B783B573B573B573B573B573B573B26
:10090000573B573B573B583B583B583B583B583B52
:10091000573B573B573B573B573B573B573B373B67
:10092000373B573B573B573B573B573B373B373B97
:10093000373B373B373B373337333733373337334F
:100940003733373337333733373337333733373357
:100950003733373B373B373B373B37333733173347
:10096000163316331733163316331633363B375CCC
:100970003A8DD68C99AD137C1DB6386CF53AF63AA3
:10098000F632F632F632F632F62AF62AF62AD62A67
:10099000D52AD52AD62AD62AD62AD62AD52AD52A5B
:1009A000D52AD52AD52AD52AD52AD52AD52AD52A4F
:1009B000D52AB52AB52AB52AB52A783B783B783BA3
:1009C000783B783B783B783B783B783B783B783B8F
:1009D000783B783B783B783B783B783B783B783B7F
:1009E000783B783B783B783B783B783B783B783B6F
:1009F000783B583B583B583B583B583B573B573B41
:100A0000573B573B573B583B583B583B583B583B51
:100A1000583B583B583B773B573B573B573B573B23
:100A2000573B573B573B373B373B573B573B573B76
:100A3000573B573B573B573B373B373B373B373BA6
:100A4000373B373B373B373B373B373B3733373326
:100A5000373B373B373B373B373B373B373B373B06
:100A6000373B363B163B163B17331733373336339A
:100A7000F43A554BF663F884178D758478A5F6948F
:100A80001DB67874D43AF632F632F632F632F632D1
:100A9000F632F632F632F62AF62AF62AF62AF62A3E
:100AA000D62AD62AD62AD62AD62AD62AD62AD52A47
:100AB000D52AD52AD52AD52AD52AD52AD52AB52A5E
:100AC000B52A783B783B783B783B783B783B783B62
:100AD000783B783B78437843784378437843783B56
:100AE000783B783B783B783B783B783B783B783B6E
:100AF00078437843783B783B783B783B783B783B4E
:100B0000783B783B573B573B573B573B573B583B12
:100B1000583B583B583B583B583B583B583B773B1E
:100B2000573B573B573B573B573B573B573B573B35
:100B30003743573B573B573B573B573B573B573B3D
:100B4000373B363B373B373B373B373B373B373B16
:100B5000373B373B37333733373B373B373B373B15
:100B6000373B373B373B373B373B363B363B173B17
:100B7000173317333733353B744B577CB78CD694C8
:100B8000F58C589D779DF6943CB6B77CD43AF632F6
:100B900016331633F632F632F632F632F632F632D3
:100BA000F632F632F62AF62AF62AD62AF62AF62A55
:100BB000F62AF62AF62AD62AD62AD52AD52AD52AD8
:100BC000D52AD52AD52AD52AB52A783B783B783B31
:100BD000783B783B783B783B783B783B784378436D
:100BE000784378437843783B783B783B783B783B55
:100BF000783B783B783B783B78437843783B783B4D
:100C0000783B783B783B783B783B783B583B583B8C
:100C1000583B583B583B583B583B583B583B583B3C
:100C2000583B583B583B583B573B573B573B573B30
:100C3000573B573B573B573B5743573B573B573B1C
:100C4000573B573B573B573B573B573B573B573B14
:100C5000573B573B573B573B563B563B363B363350
:100C6000573B573B573B573B573B373B373B373B54
:100C7000373B57335733373B163B16331533554302
:100C8000576C777C968C179DB4843474D58C337CE8
:100C9000FBADB77CF43A1633163316331633F632FF
:100CA000F632F632F632F632F632F632F62AF62A14
:100CB000F62AF62AF62AF62AF62AF62AF62AD62A54
:100CC000D62AD52AD52AD52AD52AD52AD52AD52A2B
:100CD000D52A984398439843984398439843984318
:100CE00098439843784378437843784378437843EC
:100CF000784378437843784378437843784378431C
:100D00007843784378437843783B783B783B783B2B
:100D1000783B783B783B783B783B783B783B583B5B
:100D2000583B583B583B583B583B583B583B783B0B
:100D3000773B773B773B773B773B773B573B57435B
:100D40005743573B573B773B773B783B783B583B88
:100D5000573B583B573B563B563B563B563B563B07
:100D6000563B563B563B5633573B573B573B573BFF
:100D7000573B373337333733373357335733363BB4
:100D8000363B3543754B5864987476749584D68C8D
:100D9000B484547C989D13749AA5D884143B373B33
:100DA00017331633163316331633F632F632F6325D
:100DB000F632F632F632F62AF62AF62AF62AF62A1B
:100DC000F62AF62AF62AD62AD62AD52AD52AD52AC6
:100DD000D52AD52AD52AD52AD52A98439843984387
:100DE000984398439843984398439843984398432B
:100DF00098439843984378437843784378437843BB
:100E0000784378437843784378437843784378430A
:100E1000783B783B783B783B783B783B783B783B3A
:100E2000783B783B783B583B583B583B583B583BCA
:100E3000583B583B583B783B773B773B773B773B7E
:100E4000773B773B573B5743574357435743573BB2
:100E5000773B783B783B583B783B5833583B573B84
:100E6000573B573B573B573B573B573B573B573BF2
:100E7000573B57335733573357333733373337337A
:100E80003733372B372B36335543744B376C786CED
:100E90001564346CD584D68CB58C1374B484B58C3D
:100EA000BBA5198D1543F532163316331633163399
:100EB0001633F632F632F632F632F632F632F632D1
:100EC000F62AF62AF62AF62AF62AF62AF62AD62A42
:100ED000D62AD52AD52AD52AD52AD52AD52AD52A19
:100EE000D52A984398439843984398439843984306
:100EF000984398439843984398439843984398431A
:100F00009843984398439843984378437843784369
:100F100078437843784378437843784378437843F9
:100F200078437843783B783B783B783B783B784311
:100F3000583B783B7843783B783B783B573B573B73
:100F4000773B98439843573B563B7743564376430A
:100F5000774377437743563B573B573B573B583B89
:100F6000783B783B583B583B78435843573B784352
:100F7000573B373B373B373B3733373B573B783B68
:100F8000783B373337333733373358335733353B81
:100F9000744B576C586CD65B324B556CF68CF69490
:100FA000B58C1374D58C789DBBAD7A95D43A163335
:100FB00016331633163316331633163316331633E9
:100FC000F632F6321633163316331633F632F62A65
:100FD000F62AF62AF62AF62AF62AF62AF62AF62A11
:100FE000D62AD62AD52AD52AD52A98439843984373
:100FF0009843984398439843984398439843984319
:101000009843984398439843984398439843984308
:1010100098439843784378437843784378437843B8
:10102000784378437843784378437843783B783BF8
:10103000783B783B573B783B783B783B583B783B59
:1010400078437843783B783B7743774377439743BC
:10105000B74BF85359645A645964D853B84B984BFA
:10106000974377437743773B773B773B77435743C8
:1010700057433743373B3743373B5743784357430F
:10108000773B773B573B573B573B573B573B573B90
:10109000573B573B7743954B576C576C3864754BB0
:1010A0003343D77CF68CD68CB484547C9484547CA3
:1010B0003995BB9D3543363B1733163316331633FC
:1010C00016331633163316331633F63216331633F9
:1010D00016331633F632F62AF62AF62AF62AF62AB6
:1010E000F62AF62AF62AF62AF62AD62AD62AD52A61
:1010F000D52A9843984398439843984398439843F4
:101100009843984398439843984398439843984307
:101110009843984398439843984398439843784317
:1011200078437843784378437843784378437843E7
:101130007843784378437843784378437843783BDF
:10114000573B573B783B78437843984398439843C1
:10115000974B974BD853395C7A6C9A6CDB74DB7481
:10116000796C39641A5CF95BB84B5643974B7743FB
:1011700077437743774BB753F85B195CF85BF85BC1
:10118000D853974B974B774B774377435743573B0E
:10119000573B5743574357435743774396539774A7
:1011A000556C576CB74B77433443D77C5795F694BF
:1011B000D58C1374747C547CF894DBA53543363B92
:1011C00037331733173316331633163316331633B4
:1011D000163316331633163316331633F632F63209
:1011E000F632F632F632F62AF62AF62AF62AF62AE7
:1011F000F62AF62AF62AD62AD62A984398439843FE
:101200009843984398439843984398439843984306
:1012100098439843984398439843984398439843F6
:101220009843984398437843784378437843784386
:1012300078437843784378437843784378437843D6
:101240007843784378437843994398437843784385
:1012500098439843B943B94BF853195C59649A6C55
:101260009A749A749974796C3864D853B853B84B9B
:10127000974B974BD853196439643964396CBA7CED
:101280001B853B85FB7CFB7C99743864386438642F
:10129000195CF953B84B77437743774377437743E8
:1012A000774396537874356C556CB44B7743583B01
:1012B000363BF9843795F694F58C3474737C13744B
:1012C000D78CDCA5764B373B3733173317331633C0
:1012D00016331733163316331633163316331633C5
:1012E00016331633F632F632F632F632F632F62A84
:1012F000F62AF62AF62AF62AF62AF62AF62AD62A0E
:10130000D62A9843984398439843984398439843E0
:1013100098439843984398439843984398439843F5
:1013200098439843984398439843984398439843E5
:1013300098439843984398439843984398439843D5
:101340009843984398437843784378437843984345
:101350001A54F9539843984398439843B84BD94B40
:101360003A5C3A64596438641864386418641764E1
:101370001864F85BF85BD85BD753D75B7A6CFB8457
:101380005D8D3C8D1B851A85D97CB974B974B9748F
:101390009974B974FA7CFA7CFC7CBB6C3964B74BE9
:1013A0007743774B774B974BB64B576C5574556CCF
:1013B000B353543B573B383B163B19851795F6946E
:1013C000D58C33741274337C389DBA9D754B363B83
:1013D000373337331733173316331733173316337F
:1013E000163316331633163316331633F632F632F7
:1013F000F632F632F632F632F632F632F632F632AD
:10140000F62AF62AF62AF62AD62AB943B943B94368
:10141000B943B943984398439843984398439843B2
:1014200098439843984398439843984398439843E4
:1014300098439843984398439843984398439843D4
:1014400098439843984398439843984398439843C4
:1014500098439843B84B395C395C19541954D84BAC
:10146000B74BB74BD84BF853D94BD84BB74BD75397
:101470003864796C7974396CF863F863396C7A7410
:10148000596CF7635874B97C3B8D1A8DB87CD87C45
:101490009774986C78643864385C5864996C9A7462
:1014A000BA74786C5964F85B9853984B9753175CEF
:1014B000776CB674756C1464744B56435843574339
:1014C0001443198DF794F694D58C537C3374747C43
:1014D000579DB99DB44B573B3733373337331733A9
:1014E00017331733173316331633163317331733AF
:1014F000173317331633F632F632F632F632163326
:101500001633F632F632F632F632F632F632F62A82
:10151000F62AB943B943B943B943B943B943B943C7
:10152000B943B943984398439843984398439843A1
:1015300098439843984398439843984398439843D3
:1015400098439843984398439843984398439843C3
:10155000984398439843B843D94BD94B3A547A644B
:101560005A5C5A5CF853D84BF853F853F853F85375
:101570005A5C395C185C996C1B851A85B97C997C1E
:10158000BA84997CDA845C957C9D5B955B957B95B0
:101590007B953A8DD984D97CD97CD974596C185CE7
:1015A000F85B195C195CB753764BB753D75B5A6C31
:1015B0003A6C1A64F86378749774766C3664D65B08
:1015C000774B994BBA4BB94B554B5A951795F694A7
:1015D000D48C537C337413749484D9A5B44B573B87
:1015E000373B373337331733173337331733173323
:1015F000163316331733173317331733163316339F
:1016000016331633163316331633F632F632F632F5
:10161000F632F632F632F62AF62AB943B943B9431E
:10162000B943B943B943B943B943B943984398431C
:1016300098439843984398439843984398439843D2
:1016400098439843984398439843984398439843C2
:101650009843984398439843984398439843B84392
:10166000D94BF94B3A54195419541954B74BB74B39
:10167000D84BF853F853D84B185C596C79741B85C8
:10168000BC9DDCA5DCA5DCADFDADBCA5DCA5FCAD41
:10169000FDADDCADFCADBCA57B9D3A9519951A95C9
:1016A000FA84BA7C596CF85BB853984B984B784BDA
:1016B000784B984B97531864386C186C5874987C16
:1016C0005674566CF75B975378539A4B9A439843EA
:1016D0005443398DF68CF594D48C527C1274137467
:1016E000747CFAA5944B373B373B3733373337336A
:1016F00037333733373317331733173337333733FA
:10170000373337331733163316331633163316334E
:1017100016331633F632F6321633F632F632F63226
:10172000F632B943B943B943B943B943B943B943AD
:10173000B943B943B943B943B943B943B943B943C9
:10174000B943B943B943B943B943B943B943B943B9
:10175000B943B943B943B943B843B843B843B843AD
:10176000B843B843B843B843B84BD94BD84BD84B20
:10177000F853D84B9743D84BD84BD84BF84BF8532A
:10178000596C1C8D7D959C9DDCA5FCAD1CB63CBEAA
:101790005DC63CB63CB65CBE5DBE5DBEFCADDBADC1
:1017A0007A9D5A9D9BA59CA55B95DA84386CB753AE
:1017B000974B984BD953D953994B784B764B9553BC
:1017C0001564156C567C3474347CF46B95537653E5
:1017D00097537843794377433443398D1795F5947C
:1017E000B384737C12741374747CBAA5B553373BFD
:1017F000373B373B373B3733373337333733373381
:101800001733173337333733373337331733173308
:10181000173317331733163316331633163316337D
:10182000163316331633F632F632B943B943B94399
:10183000B943B943B943B943B943B943B943B943C8
:10184000B943B943B943B943B943B943B943B943B8
:10185000B943B943B943B943B943B943B943B943A8
:10186000B843B843B843B843B843B843B843B843A0
:10187000B843B843B843B84BD84BB84BB84BF94B07
:10188000D94BD84BF953395C7974BA7C1B8DBDA503
:101890001DAEFCAD3CBE5CBE3CBE3BB63BB63BB6F3
:1018A0003BB61BB6DBADBBA57A9D5A9DBBA5DCAD97
:1018B000DCA53B8D386C9653B74BF953195CD95363
:1018C000994B984B9553566CD684948474841274B7
:1018D0001174D163B35B9353B6537743773B773B34
:1018E00035435A8D1895F68CD484737C547C757C62
:1018F0009584B99DF65B383B383B373B373B3733F4
:101900003733373B3733373337333733373337337F
:101910003733373317331733173317331633163339
:101920001633163316331633163316331633F63290
:10193000F632B943B943B943B943B943B943B9439B
:10194000B943B943B943B943B943B943B943B943B7
:10195000B943B943B943B943B943B943B943B943A7
:10196000B943B943B943B943B843B843B843B8439B
:10197000B843B843B843B843B843B843B843B8438F
:10198000B843B843B843B84BB84BD84BF94B19548C
:10199000596C586CB97C3B8D9C9DDCA5DBADDBADF7
:1019A000FBB53BB63BAE1BAEFBADFBA59A9D9B9D2D
:1019B0005A955A959B9DDBA5BCA55B8DB97438647F
:1019C000395C395CF853974B7843974B776C1785A4
:1019D000B484B3847384527C517C316C1164B15BE8
:1019E000D35B954B7643774334433B95F88CD68C49
:1019F000B484737C5474757C1374999D3764374335
:101A0000383B573B373B373B373B373B373B373B25
:101A10003733373337333733373337333733173396
:101A2000173316331633163316331633163316336D
:101A30001633163316331633F632B943B943B94366
:101A4000B943B943B943B943B943B943B943B943B6
:101A5000B943B943B943B943B943B943B943B943A6
:101A6000B943B943B943B943B943B943B943B94396
:101A7000B943B843B843B843B843B843B843B8438D
:101A8000B843B843B843B843B843B843B843D94B55
:101A9000B84BB843D94BF95339643864596C9A74CC
:101AA000BA7CDA843A8DBC9DFDAD1CAE1CA6DB9DD4
:101AB000BB9DBB9D7B957B955B8D5B8D9C9D9B9D15
:101AC0005B8DFA7CBA745964395C1954D84B7743EE
:101AD000984B964B155C957C947C9384738411741D
:101AE000EF6BCF63CF5BB05BB25BB45375437643B0
:101AF000554B1A8DF894B68CD584747414749584EF
:101B0000F26B789D776C3743583B573B573B373BDD
:101B1000373B373B373B373B373B3733373337334D
:101B200037333733373337331733173316331633E7
:101B3000163316331633163316331633163316335D
:101B40001633B943B943B943B943B943B943B94368
:101B5000B943B943B943B943B943B943B943B943A5
:101B6000B943B943B943B943B943B943B943B94395
:101B7000B943B943B943B943B943B843B843B84388
:101B8000B843B843B84BB84BB84BB84BB843B9435C
:101B9000B943B943B943D94BB943B843B943D94B16
:101BA000F84BF853F853F95B195C39649A743B8D20
:101BB0009C957C955B8D5B853B853B851A7D1B8564
:101BC000DA7CFA7C1B85FA7C99743864185CD84BF3
:101BD000B84BB84B984B984B9743D753F55BD7848A
:101BE000757C7584547C3374116C8F5BED4A0E4B9D
:101BF0003153F2425443143B9132D04ACF4A6E42A1
:101C00002B322F531474D78C1274579597747743D3
:101C1000583B573B573B573B373B573B573B373B73
:101C2000373B373B37333733373337333733373354
:101C30003733173317331733173317331733173334
:101C400016331633163316331633B943B943B94333
:101C5000B943B943B943B943B943B943B943B943A4
:101C6000B943B943B943B943B943B943B943B94394
:101C7000B943B943B943B943B943B943B943B94384
:101C8000B943B94BB94BB94BB84BB84BB84BB94B3F
:101C9000B94BB94BB943B943B943B943B943D94B2C
:101CA000B943B943B943B943D843D843D94BD94BC6
:101CB000B94BD953195C5964796C586438645864C9
:101CC0007964796C59643964F85BF75B185C186463
:101CD000F85BD853B84B984399439843994B994B29
:101CE000984BB753586CD8847784357CD36B347455
:101CF000F2635053AA2949198B214C11AE11EF19E7
:101D00000E2AAF42315B9363F363136C3153D78C6C
:101D100074845795D87C5743573B573B573B573BA9
:101D2000573B573B573B573B373B373B37333733B3
:101D30003733373337333733373337331733173393
:101D40001733173317331733163316331633163347
:101D50001633D94BD94BD94BD94BD94BD94BD94B3E
:101D6000D94BD94BD94BD94BD94BD94BD94BD94B53
:101D7000D94BD94BD94BD94BD94BD94BD94BD94B43
:101D8000D94BD94BD94BD94BD94BD94BD94BD94B33
:101D9000D94BD94BB943B943B943B943B943B94313
:101DA000B943B943B943B943B943B943B943B94353
:101DB000B843B843B84BB843B94BD94BD84BD84BC1
:101DC000D84BB84BB84BD84BD84BD84BB84BB84B7B
:101DD000B84BB84BB84BB94BB84BB84BB84398431A
:101DE000B943B943B943B8437743D753D97C7674E1
:101DF0007574136CB263D46B3253F14A4F3A8C2131
:101E0000AD214C11AD199032D142B45B735B52538A
:101E1000CF3A146C31531895537C7695B77456436A
:101E2000573B573B573B573B373B573B573B563B43
:101E3000563B573B373B373B373B373B373B373BD3
:101E4000373B373B37333733373337333733373332
:101E500017331733173316331633D94BD94BD94BA6
:101E6000D94BD94BD94BD94BD94BD94BD94BD94B52
:101E7000D94BD94BD94BD94BD94BD94BD94BD94B42
:101E8000D94BD94BD94BD94BD94BD94BD94BD94B32
:101E9000D94BD94BD94BD94BD94BD94BB943B94372
:101EA000B943B943B943B943B943B943B943B94352
:101EB000B943B943B943B943B94BB84BB84BB84B25
:101EC000B84BD94BD94BD94BD94BB94BB94BB94B73
:101ED000B943B943B943B943B943B943B943B94322
:101EE000B843B843B843B843B943DA43D943773B1F
:101EF000964B786C566C5474336C915BEF4AF04A95
:101F0000EE298C216F3A2F32AD216B196C19CD213E
:101F1000ED21ED210E222E2AEC217353B042B36342
:101F2000D06B568D966C5643773B773B573B573B70
:101F3000373B573B573B573B57335733373B373B81
:101F4000373B373B373B373B373B373B373B373309
:101F50003733373337333733373317331733173391
:101F60001733D94BD94BD94BD94BD94BD94BD94B2B
:101F7000D94BD94BD94BD94BD94BD94BD94BD94B41
:101F8000D94BD94BD94BD94BD94BD94BD94BD94B31
:101F9000D94BD94BD94BD94BD94BD94BD94BD94B21
:101FA000D94BD94BB943B943B943B943B943B94301
:101FB000B943B943B943B943B943B943B943B94341
:101FC000B94BB84BB84BB84BB84BD94BD94BD94B95
:101FD000D94BB94BB94BB94BB943B943B943B943E1
:101FE000B943B943B943B943B843B843B843B94B0C
:101FF000DA4B9943783BB843D653776CF463B263BA
:10200000747C547CD26B8E42CB29CC290D328F420A
:102010006F3A8C19CD21B142B13AF242124B77742A
:102020005674566CB0421474D16B779D9674774396
:10203000783B773B773B573B583B583B583B5833B3
:1020400058335733373B373B373B373B373B373BCF
:10205000373B373B373B3733373337333733373318
:1020600037331733173317331733D94BD94BD94B72
:10207000D94BD94BD94BD94BD94BD94BD94BD94B40
:10208000D94BD94BD94BD94BD94BD94BD94BD94B30
:10209000D94BD94BD94BD94BD94BD94BD94BD94B20
:1020A000D94BD94BD94BD94BD94BD94BD94BD94B10
:1020B000D94BD94BD94BD94BD94BD94BD94BD94B00
:1020C000D94BD94BD94BD94BD94BD94BD94BD94BF0
:1020D000D94BD94BD94BD94BD94BB94BB94BB94B40
:1020E000B943B943B943B943B943B943B943B94310
:1020F000B843B843B843B94399439943D94BB74B15
:10210000B87CD363557418957584EF52347C8C4237
:102110000A32EB318E422D32AF4A0D2A0E32CD21DA
:10212000AC198C198C198C19EC21524B8F3A8F42B7
:10213000AE42379577743643773B773B773B773BB7
:10214000773B573B573B583378335833573B573BD4
:10215000573B573B573B373B373B373B373B373B8F
:10216000373B373B373B373B37333733373317331F
:102170001733D94BD94BD94BD94BD94BD94BD94B19
:10218000D94BD94BD94BD94BD94BD94BD94BD94B2F
:10219000D94BD94BD94BD94BD94BD94BD94BD94B1F
:1021A000D94BD94BD94BD94BD94BD94BD94BD94B0F
:1021B000D94BD94BD94BD94BD94BD94BD94BD94BFF
:1021C000D94BD94BD94BD94BD94BD94BD94BD94BEF
:1021D000D94BD94BD94BD94BD94BD94BD94BD94BDF
:1021E000D94BB94BB94BB94BB943B943B943B943CF
:1021F000B943B943B943B943B843B843B943994321
:1022000079437943B84B185C9674F36B557C9263B1
:10221000B273916B5484738CD8B5D58C9163716310
:10222000515B725BB042AC21CD21EE210F2A2F2AE7
:102230006E32314B8F3A8F42315B38955674564B24
:102240007643764376437643764B5643563B573B2D
:10225000573B573B573B573B573B573B573B573BEE
:10226000573B573B573B573B573B573B573B373BFE
:1022700037333733373337331733D94BD94BD94B00
:10228000D94BD94BD94BD94BD94BD94BD94BD94B2E
:10229000D94BD94BD94BFA4BD94BD94BD94BD94BFD
:1022A000D94BD94BD94BD94BD94BD94BD94BD94B0E
:1022B000D94BD94BD94BD94BD94BD94BD94BD94BFE
:1022C000D94BD94BD94BD94BD94BD94BD94BD94BEE
:1022D000D94BD94BD94BD94BD94BD94BD94BD94BDE
:1022E000D94BD94BD94BD94BD94BD94BD94BD94BCE
:1022F000D94BD94BD94BB94BB94BB94BB94BB94B5E
:10230000B84BB843B943BA4B9A4B984B9753B97CE7
:10231000F3631374347499AD548479AD9CD67ACE3A
:10232000D7B556A5127C50632F5B305B3153735B7E
:10233000124B334BF34AD242F0429253AF3A4E3AE9
:102340006E3AD78C977C344B7553B55B9874BA9DB5
:102350001A857032B232153B7643573B783B583B77
:10236000573B573B573B573B573B573B573B573BDD
:10237000573B573B573B573B573B573B373B373315
:102380003733D94BD94BD94BD94BD94BD94BD94BE7
:10239000D94BD94BD94BD94BD94BD94BD94BFA4BFC
:1023A000D94BD94BD94BD94BD94BD94BD94BD94B0D
:1023B000D94BD94BD94BD94BD94BD94BD94BD94BFD
:1023C000D94BD94BD94BD94BD94BD94BD94BD94BED
:1023D000D94BD94BD94BD94BD94BD94BD94BD94BDD
:1023E000D94BD94BD94BD94BD94BD94BD94BD94BCD
:1023F000D94BD94BD94BD94BD94BD94BD94BD94BBD
:10240000B94BB94BB94BB94BB84BD943B9439943C5
:10241000B94BB853386C5674F3633795547CF373E7
:1024200037A51AC6F8BD9ACE99CE39C619BE98AD51
:10243000748CB26B9263B463B042B1425032EF29F4
:102440000D226D326D32EC29EC299584D784124B24
:102450007A953AB659955574104B2A096C11302269
:10246000143B563B783B583B583B573B583B583BFB
:10247000583B583B583B573B573B573B573B573BC9
:10248000573B573B573B373B373BFA4BFA4BFA4BE3
:10249000FA4BFA4BFA4BFA4BFA4BFA4BFA4BFA4B14
:1024A000FA4BFA4BFA4BFA4BD94BD94BD94BD94B88
:1024B000D94BD94BD94BD94BD94BD94BD94BD94BFC
:1024C000D94BD94BD94BD94BD94BD94BD94BD94BEC
:1024D000D94BD94BD94BD94BD94BD94BD94BD94BDC
:1024E000D94BD94BD94BD94BD94BD94BD94BD94BCC
:1024F000D94BD94BD94BD94BD94BD94BD94BD94BBC
:10250000D94BD94BD94BD94BD94BB94BD94BD94BCB
:10251000D94BD943B943B94BB84BD75BD87CD263BD
:10252000136CB263F373B58C5AC6DCD63DE7FBDEA1
:10253000DBD6DBD6BBD67BCE5BC6179DF473B4630C
:1025400033533353D342D34AD03A8D326D2AAB2121
:102550000C32337CF68C6E3AF0428E3A6D326D322C
:102560004D32EC214B094B09712276437843783B7D
:10257000783B783B583B583B583B583B583B773B64
:10258000773B773B773B773B773B573B573B573B1B
:10259000573BFA4BFA4BFA4BFA4BFA4BFA4BFA4BC6
:1025A000FA4BFA4BFA4BFA4BFA4BFA4BFA4BFA4B03
:1025B000D94BD94BD94BD94BFA4BFA4BFA4BFA4B77
:1025C000FA4BFA4BFA4BFA4BFA4BD94BD94BD94B46
:1025D000D94BD94BD94BD94BD94BD94BD94BD94BDB
:1025E000D94BD94BD94BD94BD94BD94BD94BD94BCB
:1025F000D94BD94BD94BD94BD94BD94BD94BD94BBB
:10260000D94BD94BD94BD94BD94BD94BD94BD94BAA
:10261000D94BD94BD94BD94BD94BD943B943B943F2
:10262000B84B586C7574F26B7574799DB9A577A524
:102630007EE73DE77DEFBEF7BEF79EEF7DEF1CDF47
:102640001DDF1EDF557C525B2F320F2ACF29B029A8
:10265000AC196C2AAA11CB218A21127416952C323E
:102660004C2A2C2A4C320B222B224D224E224F1A5E
:10267000F3329743784378437843783B783B783B11
:10268000783B783B783B773B773B773B773B773BB7
:10269000773B773B773B773B773BFA4BFA4BFA4BF1
:1026A000FA4BFA4BFA4BFA4BFA4BFA4BFA4BF94B03
:1026B000F94BF94BF94BF94BD94BD94BD94BD94B7A
:1026C000F94BF94BF94BF94BF94BF94BF94BF94BEA
:1026D000F94BD94BD94BD94BD94BD94BF94BD94B9A
:1026E000D94BD94BF94BF94BF94BF94BD94BD94B4A
:1026F000D94BD94BD94BD94BD94BD94BD94BD94BBA
:10270000D94BD94BD94BD94BD94BD94BD94BD94BA9
:10271000D94BD94BD94BD94BD94BD94BD94BD94B99
:10272000D94BD94BD94BD84BD753B87CF36B1374D7
:102730001895B26B547CBCD67EEFBFF7DFFFDFFF8E
:10274000DFFF7EEF3DE7FCDEFCDEDDD6CF4A8B21EE
:10275000AC21AD21AD21AE212C2A4C2A2C228A1984
:102760006819F16B168D2D2A4E2A6F2A8F2AF13A9D
:10277000123B534395439643B7439843784378437A
:102780007843784378437843784378437843783B79
:10279000773B774377437743774377437743774371
:1027A000773BFA4BFA4BFA4BFA4BFA4BFA4BFA4B94
:1027B000FA4BFA4BF94BF94BF94BF94BF94BF94BF7
:1027C000F94BF94BF94BF94BF94BF94BF94BF94BE9
:1027D000F94BF94BF94BF94BF94BF94BF94BF94BD9
:1027E000F94BF94BF94BF94BF94BF94BF94BF94BC9
:1027F000F94BF94BF94BF94BF94BF94BF94BF94BB9
:10280000F94BF94BF94BF94BF94BF94BF94BF94BA8
:10281000F94BD94BD94BD94BD94BD94BD94BD94B78
:10282000D94BD94BD94BD94BD94BD94BD94BD75382
:10283000576C7674B263F36B1474F794D594BFF746
:102840007EEF7DEF9EF77EEF1DE7DCDEBBDE9ACEEE
:102850005AC67CC6557C567C788498849884377C8C
:102860007474304B2C22CA19EA29F16B578D334B03
:1028700055437543964396439743974397439843ED
:102880007843784378437843784378437843784370
:102890007843784378437843984378439743774322
:1028A00077437743774377437743FA4BFA4BFA4BB7
:1028B000FA4BFA4BFA4BFA4BFA4BFA4BFA4BF94BF1
:1028C000F94BF94BF94BF94BF94BF94BF94BF94BE8
:1028D000F94BF94BF94BF94BF94BF94BF94BF94BD8
:1028E000F94BF94BF94BF94BF94BF94BF94BF94BC8
:1028F000F94BF94BF94BF94BF94BF94BF94BF94BB8
:10290000F94BF94BF94BF94BF94BF94BF94BF94BA7
:10291000F94BF94BF94BF94BF94BF94BDA4BDA4BD5
:10292000DA4BDA4BD94BD94BD94BD94BD94BD94B85
:10293000D94BD94BD84BD653F97CF463F36B389D04
:10294000389D7584B9B57EEF5DEF1CE73DE7DCDEB1
:102950005ACE19C6B7B5B7B597ADD9B59263F1528E
:10296000B0424F32EE290E32AE3AB35B6E2AEB29FB
:10297000EB29D263378D9553B74BB743B743B74372
:102980009843B8439843984398439843984398434F
:10299000984398439843984398439843984398435F
:1029A0009843984377437743774377437743774315
:1029B00077431A541A541A541A54FA4BFA4BFA4BD6
:1029C000FA4BFA4BFA4B194C194C194C194C194C3F
:1029D000194C194C194C194C194C194C194C194CCF
:1029E000F94BF94BF94BF94BF94BF94BF94BF94BC7
:1029F000F94BF94BF94BF94BF94BF94BF94BF94BB7
:102A0000F94BF94BF94BF94BF94BF94BF94BF94BA6
:102A1000F94BF94BF94BF94BF94BF94BF94BF94B96
:102A2000F94BF94BF94BF94BF94BF94BD94BD94BC6
:102A3000D94BD94BD94BD94BD94BD94BD853176418
:102A40007774D363F36BD36B5063958CDDD6FCDE68
:102A5000DBDEBBDEBBDE9BD67BCE7ACE19C618BED4
:102A600019BE3BBE6E42ED31EE292E326F3A503A1E
:102A7000104B524BAF32EC29EB29915B168D9553DD
:102A80009743B843B843B843B843B843B843B8438F
:102A90009843984397439743974397439743974364
:102AA000973B973B983B983B984398439843984370
:102AB000774397437743974377431A541A541A54EA
:102AC0001A541A54FA4BFA4BFA4BFA4B1A541A543A
:102AD0001A541A541A541A541A541A541A541A5486
:102AE0001A541A541A541A54194C194C194C194C9A
:102AF000194CF94BF94BF94BF94BF94BF94BF94B95
:102B0000F94BF94BF94BF94BF94BF94BF94BF94BA5
:102B1000F94BF94BF94BF94BF94BF94BF94BF94B95
:102B2000F94BF94BF94BF94BF94BF94BF94BF94B85
:102B3000F94BF94BF94BF94BF94BF94BF94BF94B75
:102B4000D953D953D753D97CF463D363F36B347C13
:102B500078A557A55EE73DE73DEF5DEF7EEF5DEFC2
:102B6000FDDEBCD69BD69BCE9BCE5BBE557C577CF8
:102B7000787C987C987C17745574B45B4F2AED2947
:102B8000EC29915BF684F663B84BB943B943B9437A
:102B9000B943B943B843B843B843B843B843B8435B
:102BA000B843B84398439843984398439843973B16
:102BB0009843984398439843984397439743974340
:102BC000974B1A541A541A541A541A541A541A5421
:102BD0001A541A541A541A541A541A541A541A5485
:102BE0001A541A541A541A541A541A541A541A5475
:102BF0001A541A541A541A541A541A541A541A5465
:102C00001A541A54194C194C194C194C194CF94BAB
:102C1000F94BF94BF94BF94BF94BF94BF94BF94B94
:102C2000F94BF94BF94BF94BF94BF94BF94BF94B84
:102C3000F94BF94BF94BF94BF94BF94BF94BF94B74
:102C4000F94BF94BF94BF953F953D8531764D87C26
:102C5000F36334749AA5B68CF6947BC65EE75EEF98
:102C60007EEFBFF7DFFFBFF75EE7FDDEDCD69BCE72
:102C7000BCCE3BBE8E420E32EE29ED29CD218D21F8
:102C80006E32735370320D2A8B19B263D684D663B9
:102C9000D853B94BB943B843984398439843B84382
:102CA000B843B8439843984398439843984398430C
:102CB0009843984377439743B843B843984377433F
:102CC00077437743B74BF853395C1A541A541A5464
:102CD0001A541A541A541A541A541A541A541A5484
:102CE0001A541A541A541A541A541A541A541A5474
:102CF0001A541A541A541A541A541A541A541A5464
:102D00001A541A541A541A541A541A541A541A5453
:102D10001A541A541A54194C194C194C194CF94B91
:102D2000F94BF94BF94BF94BF94BF94BF94BF94B83
:102D3000F94BF94BF94BF94BF94BF94BF94BF94B73
:102D4000F94BF94BF94BF94BF94BF94BF953195432
:102D5000D853D7539974356CB263136CD36B9263A9
:102D6000F5943DDF9FEF9FF77EF79FF79FF77EEF8C
:102D70003EE7FDDEDCDE9BCE7BC6DAB54D3ACD29E3
:102D8000AD21AD21AD21CE29104B1243913AED2951
:102D9000CC21B263D584B55BB753D853D853F8531D
:102DA000F853D853D853D853D853D853B84BB84BFB
:102DB000B84BB84BD953F953D853B84B7743B743B3
:102DC000974397439843984B984B974B964BD753C1
:102DD000185C1A541A541A541A541A541A541A547D
:102DE0001A541A541A541A541A541A541A541A5473
:102DF0001A541A541A541A541A541A541A541A5463
:102E00001A541A541A541A541A541A541A541A5452
:102E10001A541A541A541A541A541A541A541A5442
:102E20001A541A541A54194C194C194C194C194C5F
:102E3000194C194C194C194C194C194C194C194C6A
:102E4000194CF953F953F953F953F953F953F95309
:102E5000F953F95319541954D8531764F984D363A7
:102E6000D2633474B78CFCB576A57EEF7EEF7EEF2F
:102E70003DEF1DE7DCD65AC619BEB8B597AD77ADA4
:102E8000B7AD98A5B784788458743774376C1774C5
:102E90005674534B70320E2A0D2AB263F5841564B2
:102EA000786C996C586C3764175CF75BF75BD75B91
:102EB000D75BF75B3864586C796C9A74BA74BA74DF
:102EC0009A74586C1864D653B64BB74BD853F95B09
:102ED000F95BF85B175C175CF75B1A541A541A54C9
:102EE0001A541A543B543B543B543B543A543A54AE
:102EF0003A543A543A543A543A543A543A543A5462
:102F00003A543A543A543A543A543A543A543A5451
:102F10003A541A541A541A541A541A541A541A5421
:102F20001A541A541A541A541A541A541A541A5431
:102F30001A541A541A541A541A541A541A541A5421
:102F40001A541A541A541A541A541A541954195413
:102F50001954195419541954195419541954195409
:102F6000185C796C7774B263337498A51474567CCA
:102F70007AC65DE71CDFDBDE5ACE39C619BED8B58E
:102F8000B8AD97AD56A5159D569D379D6E3A0E323C
:102F90000E2AEE29EE29CE29AE3A735370320D2A4D
:102FA000AB21915BF58497743A8D1985F984D97CAE
:102FB000B97CB97CB97C997C7974B97CF984198520
:102FC00019853A8D3A8D3A8D3A8D1985F984996C27
:102FD0005864F85BB853B753D85B185C38645764CF
:102FE00037643A543A543A543A543A543B543B5462
:102FF0003B543B543A543A543A543A543A543A545F
:103000003A543A543A543A543A543A543A543A5450
:103010003A543A543A543A543A543A543A543A5440
:103020003A543A541A541A541A541A541A543A54D0
:103030003A543A543A541A541A541A541A541A54C0
:103040001A541A541A541A541A541A541A541A5410
:103050001A54195419541954195419541954195407
:103060001954195419541954F85BFA7C156CD2632D
:10307000D26BEF52515B7584FCDEDAD6DBDEFCDE10
:10308000BBD67BD69BD67BCE19BED8B5B8B5B7AD6F
:10309000D8B5379D2D320E2A2F327032903A904299
:1030A000925BF142903ACD21EC297053D484F7849D
:1030B0007A957A957A957A957A959B9D7B9D5B9585
:1030C0003B953A95599559955995599559955995CD
:1030D0005995388D188DB974BA74796C195CD85BB0
:1030E000F863596C786C776C576C3A543A543A548C
:1030F0003A543A543A543A543A543A543A543A5460
:103100003A543A543A543A543A543A543A543A544F
:103110003A543A543A543A543A543A543A543A543F
:103120003A543A543A543A543A543A543A543A542F
:103130003A543A543A543A543A543A543A54194C48
:10314000194C194C194C195419541A543A543B54EB
:103150003B541A4C1A4C1A543A5419541A541A54CF
:103160001A5419543A543A5419543A5C7B645A6CC0
:103170007874388DF263B263357C389DBAAD369D74
:103180001CE71CE73DE71DE73DE75EEF1DE7DCDEE2
:10319000BBD67ACE39BE39BE7AC698A5B684D88455
:1031A000D984987C366CD563B45B124B4F2A0D2AB8
:1031B000EC217153F68CB684799D7A9D7A9D999D08
:1031C000999D9A9D9A9D7A9D7A9D7A9D799539953A
:1031D0003995399539953995188DF88CF88C38646E
:1031E0001864F85B195C39643964596C9974B97462
:1031F00078745A545A545A545A545A545A545A5421
:103200005A545A543A543A543A543A543A543A540E
:103210003A543A543A543A543A543A543A543A543E
:103220003A543A543A543A543A543A543A543A542E
:103230003A543A543A543A543A543A543A543A541E
:103240003A543A543A543954395439543954195433
:1032500019541A541A543A543A543B543A543A545E
:10326000395439543A543A5439543954395C5A5CC3
:10327000595C7A649B6C5A6C1A85957CD163137483
:103280005A9DF47B958C19BE5DEF5DEF5DEF9EF767
:10329000BFF79FF77EEF3DE7FCDE9BCE5AC639BEF7
:1032A0009BC6F68CEB29CD29ED21CD218C198C19EB
:1032B0004F32D1426F322E2AAB19EF4AD684D684D0
:1032C0007A9D5A9D7A9D7A9D799D59955995399502
:1032D0003995198D1985F984F9841985F984F9844A
:1032E000D984B87CB87C3864185CF85BD853F85340
:1032F000F853185C3864586C586C5A545A545A54E1
:103300005A545A545A545A545A545A543A543A548D
:103310003A543A543A543A543A543A543A543A543D
:103320005A545A543A543A543A543A543A543A54ED
:103330003A543A543A543A543A543A543A543A541D
:103340003A543A543A543A543A543A543A543A540D
:103350003A543A543A543A54395C195C1A541A544F
:103360003A543A543A5C395C395C395C395C595CA2
:103370007A64BB6CDB74DB74BA6C9A6C7A6C186C14
:103380001A8DF263D2631474525BB373B58CBBD6DF
:103390007EEF7EEF9FF7BFF7BFF79FEF5EE71DDF82
:1033A000DCD6BCD67BCE7AC67AC69584EC29CD29EC
:1033B000EE290E2AEE290E2AF142F14290320D2A10
:1033C000EC21304BD684D68419951A8D1995199510
:1033D0001995F88CF88CD884D984D984D974B874A8
:1033E00098749874B974B974B9749974796C59648F
:1033F000385CF853D853F853D853F853F85B185C3B
:1034000038645A5C5A5C5A5C5A5C5A5C5A5C5A5C26
:103410005A5C5A5C5A545A545A545A545A545A542C
:103420005A545A545A545A545A5C5A5C5A543A543C
:103430003A543A543A543A543A543A543A543A541C
:103440003A543A543A543A543A543A543A543A540C
:103450003A543A543A545A545A545A545A545A5C54
:103460007A645A645A5C3A5C3A5C3A5C59647A64AD
:103470009A6CBA74BA6C9A6CDA741B7D1B7D1B85CE
:10348000DA7C9974586C5874F9841364915B5574A0
:103490009AA5DBB5F6947EEF7EEF7EEF5EE71DDF4B
:1034A000BCD639BEF9B5B8AD77A557A537A5169DD9
:1034B000579D589D767C577C3774176C166C166C2C
:1034C000F563124B4E2A2D2AEC21104BF68C178DEA
:1034D000198DFA8C198D198D198DF88CF88CD98469
:1034E000D984B97C586C376417643864586458645C
:1034F000385C185C185C175CD753D74BD84BD84B4B
:10350000F94BF953F853F853F95B5A5C5A5C5A5C1F
:103510005A5C5A5C5A5C5A5C5A5C5A5C5A545A540B
:103520005A545A545A545A545A545A545A545A542B
:103530005A5C5A5C5A545A543A543A543A543A548B
:103540003A543A543A543A543A543A543A543A540B
:103550003A543A545A545A5C5A5C5A543A545A544B
:103560005A545A545A5C5A5C9A6C7A6C7A645A640B
:103570007A647A64BA6CDA74FB7CFA7CB974786C1D
:10358000786C9974B974B97CB97C9874B97CF984F5
:103590005674D363146C188D315BD27377AD7EEFA4
:1035A0001DDFDCD67BCE3ABE19BED8B5B8AD77A547
:1035B000369DD594B594948CF594F3732E32EF29FF
:1035C000EF29EF290E2A0E2A703AB03A6F322D2ACF
:1035D000CC21AE42957CD68439953A95399559954A
:1035E0007A9D79955995399519951A8DFA84B97CF2
:1035F0007874586C586C586C3864185C175C175C9D
:103600001754F853F853F94BD84BD84BD84BB84B09
:10361000B84B5B5C5B5C5B5C5B5C5B5C5A5C5A5CA8
:103620005A5C5A5C5A5C5A5C5A5C5A5C5A5C5A5CEA
:103630005A5C5A5C5A5C5A5C5A5C5A5C5A5C5A5CDA
:103640005A5C5A5C5A5C5A5C5A5C5A5C5A5C5A5CCA
:103650005A5C5A5C5A5C5A5C5A5C5A5C5A5C5A5CBA
:103660005A5C5A5C5A5C7A5C7A5C7A5C7A5C7A5C0A
:103670007A647A647A647A649B6CDB74DB74DA74DF
:10368000DA7CFA7C3A851A85D97CF9849874D97CDD
:103690005A955B957B95BBA5146CD3633574104B21
:1036A000515B958C3AC6DCDEDCD6DCD6DCD69BCE14
:1036B0007BC65AC63ABEF9B5B8AD98AD57A557A561
:1036C00098AD13744E3A2F323032302A2F32903A5E
:1036D000B142B03AB03AED212D2AEF4A747CF68C13
:1036E00038955995799D9A9DBAA5BAA5BA9D9A9D86
:1036F0007A9D5A955A955A951A8DD984B97C7874C1
:10370000376C176417645964385C1854F84BD84BFD
:10371000D84BD843B84BB84BB84B5B5C5B5C5B5C3D
:103720005B5C5B5C5B5C5B5C5B5C5B5C5B5C5B5CE1
:103730005B5C5B5C5B5C5A5C5A5C5A5C5A5C5A5CD6
:103740005A5C5A5C5A5C5A5C5A5C5A5C5A5C5A5CC9
:103750005A5C5A5C5A5C5A5C5A5C5A5C5A5C5A5CB9
:103760005A5C5A5C5A5C7A5CDC6CDC6CBB64BB6493
:10377000BB649B649B647A649B649B649B649B6452
:103780009A649A649A6CBA74D97C5B8D9C957B958B
:103790005A8D5B953A8D7B95DCA5BC9DFCAD999DC2
:1037A000D363B363198D3895BAADF694BBD6FDE6F5
:1037B000FCDE1DDF3DE73DE71DDFDCD6BBCE7AC674
:1037C0003ABEF9B5B9B5B8B5F9B5F7941574F66B55
:1037D000176C376C376C3774166CF2426F320D22EF
:1037E0008B19AE3A957CD684188D3995BA9DDAA599
:1037F000DAA5BAA5BAA5BAA59A9D9A9D7A9D9A9D71
:103800007B9D5A95F98CB97C7874576C386C796CBF
:10381000185C395C395CF94BF94BD94BD84BD84B18
:10382000D84B7B5C7B5C7B5C7B5C7B5C7B5C7B5C94
:103830007B5C7B5C7B5C7B5C7B5C7B5C7B5C5B5CF0
:103840005B5C5B5C5B5C5B5C5B5C5B5C5B5C5B5CC0
:103850005B5C5B5C5B5C5B5C5B5C5A5C5A5C5A5CB3
:103860005A5C5A5C5A5C5A5C5A5C5A5C5A5C9B645F
:10387000DC6CDC6CBB649B649B647A5C5A5C5A5C59
:103880009B649B649B649B647A5C7A64BA6CFB7CEB
:103890003B859C95DC9DBC9D9B959B959B9DBB9D75
:1038A000DCA5BCA51BAED584B263F46B198D146C7A
:1038B0001374169D5EEF3DEF5EEF7EF79EF79EF769
:1038C0005EEF1DDFFCDE9BCE7ACE1ABEF9BDF9B5E8
:1038D0003ABEB26BAB218C218D198D198C198C19C4
:1038E0002F2AF1428F322E2A8B194D325474D68CE6
:1038F0005995198D5A95DBA5FBAD9A9D7A9D5995E1
:103900001995399559957A9D7A9D7A953A8D1A85AA
:10391000B97C98749974586CF85B39645A5CF953A3
:103920001954F94BF853F853F84B7B5C7B5C7B5C88
:103930007B5C7B5C7B5C7B5C7B5C7B5C7B5C7B5CCF
:103940007B5C7B5C7B5C5B5C5B5C5B5C5B5C5B5C5F
:103950005B5C5B5C5B5C5B5C7B5C7B5C7B5C7B5C2F
:103960007B5C7B5C7B5C7B5C7B5C7B5C7B5C7B5C9F
:103970007B5C7B5C7A5C7A5C7A5C7A5C7A5C7A5C95
:103980007A5C7A5C7A5C7A5C5A5C7B5C7B5C7A5CA5
:103990007A5C9A64BA6CDA74FB7C5B8DBC9D9B95F7
:1039A0005A8D7B957B953A8D5A955A95BAA5537445
:1039B000D2633674B463935BD68C56A57EEF7EF7E4
:1039C0007EEF9EF7BFFFDFFFBFF75DEF1DE7DCDE99
:1039D000BBD67BCE3ABE19B6B8ADD26BCC29AD21E1
:1039E000CD21EE21ED21EE292F326F326F32ED2104
:1039F0002D2AAE3A3474D68C5A9D1A8D5A9DBCA588
:103A00009B9D5A953A951A95198DF98C188D398D7B
:103A1000398D1985F984D97C986C586C5864186470
:103A2000F863185C185C1854195419541854185435
:103A3000F8539B5C9B5C9B5C9B5C9B5C9B5C9B5C7A
:103A40007B5C7B5C7B5C7B5C7B5C7B5C7B5C7B5CBE
:103A50007B5C7B5C7B5C7B5C7B5C7B5C7B5C7B5CAE
:103A60007B5C7B5C7B5C7B5C7B5C7B5C7B5C7B5C9E
:103A70007B5C7B5C7B5C7B5C7B5C7B5C7B5C7A5C8F
:103A80007A5C7A5C7A5C7A5C7A5C7A5C7A5C7A5C86
:103A90007A5C7A5C7A5C7A5C7A5C7A5C7A647A6466
:103AA0009A64DA74FA7CDA7CDA74DA74DA74B96CEF
:103AB000B974198DBA9DD263F363B8843995BAA5E8
:103AC000D69419BE9EF77EEF9EF75DEF1CDFDCD625
:103AD0009BCE3AC619BEB8B597AD369D369D369D7C
:103AE000579D757CF56B166C586C98749874987C1F
:103AF000166C903A4E322D2ACB21AE3A3474967C15
:103B0000198DFA841A8D3A8D1A8D198DF984198DB3
:103B1000F98CD984D87CD87CB87CB8749874786CCB
:103B200058643764175C175C185C185C385C395C47
:103B3000385C185C18641864185CBB5CBB5C9B5CEC
:103B40009B5C9B5C9B5C9B5C9B5C9B5C7B5C7B5CFD
:103B50007B5C7B5C7B5C7B5C7B5C7B5C7B5C7B5CAD
:103B60007B5C7B5C7B5C7B5C7B5C7B5C7B5C7B5C9D
:103B70007B5C7A5C7B5C7B5C7B5C7B5C7B5C7B5C8E
:103B80007B5C7B5C7B5C7A5C7A5C7A5C7A5C7A5C82
:103B90007A5C7A5C7A5C7A5C7A5C7A5C7A5C7A5C75
:103BA0007A5C7B5C7B5C7B5C7A5C7A647A647A644A
:103BB0007A647A645A5C595CB974198D5895136C9F
:103BC000725B5A9DB46B516353843DDF7EEFDBD64D
:103BD0007ACE19BEB7AD56A5369DF594D4947484AB
:103BE000537C537C327C537CD58CB2634F322F2A6A
:103BF0000F220E220E220E2AB142324B4E320C2AD6
:103C0000AA196D32146C767CB87CD984F984FA8454
:103C1000F984F984D984F984F984B97CB97C9874DD
:103C2000786C786C586C586C38643864385C385CE4
:103C3000385C38645864586438643864386418648C
:103C40001864BC64BB649B649B5C9B5C9B5C9B5CDE
:103C50009B5C9B5C9B5C9B5C9B5C9B5C9B5C9B5CAC
:103C60009B5C9B5C9B5C9B5C9B5C9B5C9B5C7B5CBC
:103C70007B5C7B5C7B5C7B5C7B5C7B5C7B5C7B5C8C
:103C80007B5C7B5C7B5C7B5C7B5C7B5C7B5C7B5C7C
:103C90007B5C7B5C7B5C7B5C7B5C7B5C7B5C7B5C6C
:103CA0007B5C7B5C7B5C7B5C7B5C7B5C7B5C7B5C5C
:103CB0007B5C7A5C7A645A645A645A5C9B649A644A
:103CC000996C198DB67CD263356CD46B315B347CC6
:103CD000948CBBCEBBD69AD67ACE59C639C619BEFD
:103CE000F9BD97AD77A5369DF594B48C7484D58CC9
:103CF000379592630E2A0F2A2F2A2E222E222E2A41
:103D0000F142B03A8F3A6D32EF427153146C5574F0
:103D1000977CD8843A8D3A8D198D1A8DD984FA847E
:103D2000FA84DA7CBA74586C186458643864385C65
:103D3000385C385C185C395C39645964596459647E
:103D400059645964596458643964BC64BC649C64A3
:103D50009B649B649B649B649B649B649B5C9B5C7B
:103D60009B5C9B5C9B5C9B5C9B5C9B5C9B5C9B5C9B
:103D70009B5C9B5C9B5C9B5C9B5C7B5C7B5C7B5CEB
:103D80007B5C7B5C7B5C7B5C7B5C7B5C9B649B642B
:103D90009B647B5C7B5C7B5C7B5C7B5C7B5C7B5C43
:103DA0007B5C7B5C7B5C7B5C7B5C7B5C7B5C7B5C5B
:103DB0007B5C7B5C7B5C7B5C7B5C9B649B647A64F4
:103DC0007A647B64BC64DB6C786C5A95136CD26348
:103DD000767439959AA5BAAD77A5FCDEFCDE1CE7B2
:103DE000FBDEFCDEDCDEBBD69BCE5AC639BED8B5C8
:103DF00097AD77A557A5369DB9AD1474B463D56357
:103E0000F663366C566C5774F66B114BAF3A8E3ABC
:103E10008A19EB29F46B5574D87CF8843A8D3A8D65
:103E20001A85D984B97CDA7CDA7CBA747A6C396404
:103E3000185C185C185C185C195C195C395C596476
:103E40005964596479647964796C796C7964796CB2
:103E50007964BC64BB649B649B649B649B649B644B
:103E60009B649B649B5CBB5C9B5C9B5C9B649B5C62
:103E70009B649B649A649B649B5C9B649B5C9B5C63
:103E80009B5C9B5C9B5C9B5C9B5C9B5C7A5C7A5CBC
:103E90007A5C7A5C9B649B649B649B649B647B5CA4
:103EA0007B5C7B5C7B5C7B5C7B5C7B5C7B5C7B5C5A
:103EB0007B5C7B5C7B5C7B5C7B5C7B5C7B5C7B5C4A
:103EC0007B5C9B649B647A647A647B64DC6CFB74CB
:103ED000986C9A9DF36BB25B5574777CF46B758428
:103EE000B8AD5EE75DE73DE73CE73DE73DE7FCDE7B
:103EF000BBD69BCE5AC619BEF9B5D9B598AD97A514
:103F0000B8ADF36BB04A913A70324F324E2A2F2A35
:103F10007032114B4E32EB21AA21EB29146C35740F
:103F2000B87CD874D874D974D974786C586C596CBE
:103F3000596C3964395C395C195C1854F853F8537E
:103F400019541954195C5A645A647A647A64796C05
:103F5000996C996C996C996C796C9B64BB64BB642B
:103F60009B649B64BB64BB64BB64BC6CBB649B64B0
:103F70009A5C9A5CBB647A5C9A64BA649A649A6448
:103F80009A647A5CBB649B649B649B5C9B5C9B5C5B
:103F90007B5C7A5C7A5C9B649B649B649B649B64A3
:103FA0009B647A5C7B5C7B5C7B5C7B5C7B5C9B640A
:103FB0009B647B5C7B5C7B5C9B649B649B649B6481
:103FC0009B647B5C7B5C7B5C7B5C7B5C7B647A6402
:103FD0007A647B64BB649A64986C1995B263B25B33
:103FE000D36393631474958419BE7EE75EE77EEF16
:103FF0009EF7DFF7FFFFDFF79FEF3EE7FDDEBCCE6A
:104000007BC61ABEB9B5B8AD98A5515B0D2AEE298D
:10401000EE21EE21ED21EE212E2A8B192D2AAB194E
:104020000C2A4D32146C146C776C78649864996423
:10403000996C59645964395C395C195C395C395C38
:10404000395C395C395C595C5964596459647964E8
:1040500059647964796C796C996C996C996CB96CC8
:10406000996C9A64BB6CDB6CDB6CBB6CDB6CFC74BA
:10407000DC6CBB6CDB6CDB6CBB64BB64DB6C9A6CB8
:10408000BA6CDA74DA74BA6CBA6C9A64BA6C9A6400
:104090007A649A649B5C9B5C9B5C9B649B649B6462
:1040A0009B64BB649B649B649A649A649B649B64FA
:1040B0009B649B649B649B649B649B647B5C7B5C58
:1040C0009B649B649B649B649B649B649B649B64F8
:1040D0009B649B5C7B649B647B647B64BB649A6431
:1040E0009874F88CB263D36339957A9DDBADB58C47
:1040F0001DDF9FEF7EEF9FF79FEFBFF79EEF5DE71E
:10410000FCD67BC63ABED9B598AD98AD579D579DA4
:10411000579DB363F14A134B344B74539453B55BBF
:104120007453AC196A11AB198A190C2A146C146CEB
:10413000776C9964B96C9A6C996479647964596400
:104140005964596459645964596459645964596487
:10415000796C796C796C586C596C796C796C996C58
:10416000B96C996C996C996C79649A64BA6CDA6CD4
:10417000DA6CBA6CFB743C7D3C7D1B75FB741C7562
:104180001C753C7D5C857D8D9D8DBD959D959C8D23
:104190005C851B7D3C7D1B7DBA6C9A64BA64BB64F4
:1041A000BB64BB649A649A649A5C9A5CBB64BB64AB
:1041B000BA649A649B649B649B649B649B649B64E9
:1041C0009B649B649B649B649B649B649B649B64F7
:1041D0009B649B649B649B649B649B649B649B64E7
:1041E0009B649B649B649A6CFA7C767CD26BD363F1
:1041F000757C725B716312749FEF7EEFFCDEBCD640
:1042000019BED8B597AD359DF594B48C948473845C
:10421000537C337C337C33749584356C945B755359
:10422000754B544B534BF242B45BF142AB196A19D4
:10423000AA190C2AF36BF46B9874DA741B7DFA7C60
:10424000B974796C796C796C796C996C996C996C9E
:10425000996C996C9974987498749874987478742B
:104260009874987498749974996C796C786C586493
:104270005864FB74FB74FB74DA6CBA6CDA74FB740C
:104280001B75FB74FB74FB74FB741B7D3B857C8D81
:104290009C959C959C959C959C957C8D9D8D7D8DEC
:1042A0005C853C7D1B75DB6CBB64DB6CDB64BB64D9
:1042B0009A649A64BB64BB64BA64BA649B649B648A
:1042C0009B649B649B649B649B649B649B649B64F6
:1042D0009B649B649B649B649B649B649B649B64E6
:1042E0009B649B649B649B649B649B649B649A6CCF
:1042F0005B8DF46BB263146C935B3153B263948443
:104300001DD77AC63AC6F9BDF9B5D8B597A5569D59
:104310001695B48C9484537C337433743374136C57
:10432000957C314B4F2A502A512A702A702A2F2A05
:10433000334BB45B114BCB21CB212C32D363F46BC9
:10434000977CB97CD984D984D97CD984D984F984DF
:10435000F984F984D97CD97CD97CD97CF984F98415
:104360001985F98C198DD87CD87CD97CD97CD97CDD
:10437000B9749974796C596C59647C8D7C8D5B85AA
:104380001A7DFA741B7DFB74FB74FB74FB74FB7465
:10439000DA74BA6CDA6CDA74DA74FA7CFA7CDA7C85
:1043A000DA7CDA74FA7CFA74DA74FB741B751C7D9F
:1043B0003C7D1C751C75FB6CDB6CDB6CDB6CDB6C9F
:1043C000BA6CBA6CBA64BB64BB64BB64BB64BB64E8
:1043D000BB64BB64BB64BB649B649B649B649B6465
:1043E0009B649B649B64BB64BB64BB64BB649B6455
:1043F0009B649B649A6C996C9B95D263925B356CC1
:10440000198DDBA5B9AD78A53DDFDBD6DCD69BCE1B
:104410009BCE5AC63ABE3ABE19BEB8AD78A516951F
:10442000D58C9484537C747CD6845153B03AD23A60
:10443000D33AF23A1243F242945B7353F142EC29BD
:104440006911EB21F36BF363D884D98CF98CF98C67
:10445000198D3A953A955A9D7A9D5A951985F98400
:10446000F984F984F884D884D884D884D884F884EA
:10447000F984F984F984FA84DA7CB97C99747974C2
:10448000796C9B959B957B953A851A7DFA74DA74C5
:10449000DB74DB74BA6CDA74DB6CDB6CDB6CDB6CEE
:1044A000DB6CFB6CDB6CDA6CDB74DB74DB6CBA6CC6
:1044B000BA6CBA6CBA6CDA74DA74FA74DA74DB74E3
:1044C000FB741C751B75DB74FB7CFB7CDA74BA6CAB
:1044D000BB6CDB6CDB6CDB6CDB64BB64BB64BB6444
:1044E000BB64BB64BB64BA64BA64DA6CDB6CFB7437
:1044F000FB74FB74DB74DB74DB74DB74BA74D87428
:104500007A8DB25B925B7874777CB3639584B8AD37
:104510003DDF1DDF3DE71CDFDCDEBCDE9BD67BCE56
:104520005ACE1AC6D9BD78AD37A5169DF594159506
:10453000579D1474F563F663F65BF55BD55B945B8E
:10454000D563B463D0422D2AEC212D2AF363F363A3
:10455000F884198D198D198D198D199539953995FD
:104560003995398D198DF884D87CF87CF87CD87C05
:10457000B87CB8749874B87CB87CB87CB97CB97CC9
:10458000B97C99747874586C586CDB9DDB9DDC9D0C
:10459000BC957B8DFA7C1B7DFB7CDA74FB74FB7411
:1045A000FB74DB6CDB6CDB6CFB6CFC6CFB6CDB6C4A
:1045B0001C751B75FB74FB74DA74FA74FB7C1B7D31
:1045C0003B85BD957C8D1B7DBA6CBA6CDA74DA7450
:1045D0003B855C8D3B853B853B851B7DFA7CDA7496
:1045E000DA74DA74DA6CDA6CBA6CDA6CFB74FB7459
:1045F0001B7D3C855B855C855C851B7D1B7D1B7DF8
:10460000FB74FB7C1A7D5A853885D25BD363787442
:1046100053539263958419BE3DE75DE73DE75DE73F
:104620005DEF7EEF7EEF3DE7FCDE9BCE5AC6F9B52F
:1046300098AD77A577A577A5579DEF4A0D2A0E2A45
:104640000F222E222E2A0E2A324BB45B324BEC2143
:10465000EC216E32F363F363398D7A955A8D3A8D7E
:10466000198DF984F984F98CF98CF984D87CB87C9B
:104670009874B874B874B8749874986C786C776CD3
:1046800078747874787478747874786C586C586C22
:10469000586C1CAE1CAEDBA59B957B955B8D7C8D11
:1046A0007C8D3B853B851B7DDA74DB6CFB6CDB6CA6
:1046B000FB6CFB74FB74FB741C751C75FB74FB7446
:1046C000DA74FA7C3B859C95DD9DBD9D7C8D1B85B8
:1046D000FA74DA74B96CFA7CFA7C3B855B8D3B8D9D
:1046E0003A8D1A85F97CFA7CFA7CFA7CFA7CFA7CA1
:1046F0001B7D3B855C857C8D5C8D5B853B8D3B8527
:104700003B853B853C7D3C7D1C7D1B7D1A7D9B95BF
:10471000D77CD25BF463F984BB9DFBAD17959BCE30
:104720005EE77EEF9EEF9EEFDFF7FFF7DFF77EEFAE
:104730003DDF1CDFDCD67AC63ABEFAB5B9A557957F
:10474000168DCF422E322F324F326F2A6F322F2AE0
:10475000124B3253D1422D2ACB198E321464B25BE4
:10476000D87C1A851985F97CD97CF984F984F98477
:10477000F984D984B97C987478749874986C786C3E
:10478000986C986C986C98749874987498749874E1
:10479000786C786C796C786C786CDAA5BA9D9A9D97
:1047A0005995398D7A95BC9DBC957B8D5B8D3B85EC
:1047B000FA74DA741B75FB6CFB741B75FA74FA746B
:1047C000FB74FB74FB74DA74B974D9741A7D3B8D75
:1047D0007B953A8D1A85FA7CFA7C1A7D1A7D3B8589
:1047E0001A851A853A8D19851A851A8D3A8D5B9529
:1047F0007B957B8D7B8D5B8D5B8D5B8D5B853B8541
:104800003B853B853B851A851A853B853C7D3C7DF8
:104810003B7D3B7DFA7C7B8D967CB25B146CB87CD7
:10482000D463B263337CDCCE7EE75EE79EEF3DDF90
:10483000FCD6DBD69ACE39BED8B576A5569D159551
:10484000F594D58C957C947CF68CF46BF563F66BC3
:10485000166C366C366C166C166C945BD03A0D2266
:104860002D2A8E321464B25B776CB874B874B87445
:10487000B874B97CB97CD97CD97CD97CB974997469
:10488000786C996C996C996C996C996CB96C996C01
:10489000996C996C996C996C996C996C99749974E0
:1048A000996CDBA5BAA5BA9D9A9D7A959A959B9D20
:1048B0009B957A957B955B8DFA7CDA74FA74FA7421
:1048C000FB74FB74FA7CFA74FB74FB74FB74FA746B
:1048D000FA7CFA7C1A851A853A8D3A8D3A8D3B8D91
:1048E0005B8D7C8D7C8D5B8D3B8D3A8D3A8D5B8DA8
:1048F0005B8D5B8D3A8D5B8D5B8D5B8D5A8D3B85C2
:104900003B853B855B855B855C853C853B853B8545
:104910001B7DFB7CFB7CFA74DA74D974B8747A8DD5
:10492000356CB25B356CF563314BB2637484FDD684
:10493000FCDE7AC639C6D8B576A5369DD494738484
:104940005384537C337C1274F273F26B136C136CCC
:1049500074747153F14AF24AF242F142F142D14287
:104960005353D55BD142AC19CB196E32D35BD35BB9
:10497000776CB86CB874B974B974B974B974B97423
:10498000987499749974796C786C796C796C996C69
:104990009A6CBA6CBA74996C996C996C996C996CA4
:1049A000996C996C996CB974996C1CAEFCA5DBA5DB
:1049B000DB9DBB9D9A9D9B9D9B9D9B9D9B955B8D30
:1049C0001A851A7D1A7D1B7D1B7D3B7D3A853B85B3
:1049D0005B855C857C857C8D7B8D5B8D7B8D7B9504
:1049E0009B957B957B957B8D7C8D7C8D9C8D7C8D2B
:1049F0005B8D5B8D3A853B855B855B853B853B8528
:104A00005B855B8D5B853A853B7D3B7D3B7D3B7D5F
:104A10001B7D1B7D1B7D1B7DFB74FB7CFB7CFA7C63
:104A2000FA74D974B8747B951464B3635574388D73
:104A300059953CB6F5949BCE7ACE5AC639C6F9BD87
:104A4000D9B5B8AD77A5169DD6947484547C1374EB
:104A5000F36BF36BD263F26B74745153D142D24255
:104A6000D242F13AD142D24254537453324B2E2A9D
:104A7000AB192D2AD35BD35B5664986C986CB974D0
:104A8000B974B974B974B97499749874997499743F
:104A9000796C996C796C796C796C996C996CBA7445
:104AA000B974B974B974996C986C986C786C786CAA
:104AB000786C9B959B957B957A957A957A957A9566
:104AC0007A957A957A955A8D5A8D5B855B855B854B
:104AD0005B857B8D7B8D7B8D7B8D7B8D7C8D7C8DBC
:104AE0007B8D7B8D7B8D9B8D9B8D9B957C957C8D14
:104AF0005B855B855C8D5B8D5B8D3B8D3A851A7D1F
:104B00003B7D3B853B853A853B855B853A851A85B0
:104B10005B8D5C855C855C855C855C853C853C7DCE
:104B20003C7D1B7DFA7CFA7CF974D974B7749B9533
:104B3000F463B3635574F884146C547C94841DDF5F
:104B4000FCD6DCD6BBD67BCE7BCE5BC61ABED9B537
:104B5000B9AD78A5179DB68C547C1374136C54743E
:104B6000747CD363B45BB55BB553B553B453B55BD9
:104B7000D55B7453D13AED210D224D2A9253B25395
:104B80003664986C986CB96CB974B974D974D97C62
:104B9000B974B9749974B974B9749974997499742D
:104BA000B974B974B974997499749974997498743E
:104BB000786C786C786C786C786C3A8D3A8D3A8D2C
:104BC0003A8D3A8D3A8D5A8D5A8D5A8D5A957A95DD
:104BD0009B957B957B8D7B8D7B8D9B8D9B959B95F5
:104BE0009B959B959B959B959B959B8D7B8D7B8D9D
:104BF0007B8D5B8D5B8D3B853B853B7D1B7D1B7D75
:104C00001A851A851A851A7D3A853A857B8D9B957A
:104C10009C95BC959B957B953A8D3B8D3B8D5B8D93
:104C20005B8D3B853B853B853B851B7DFA7CFA7C18
:104C3000F974D874F87C7A95D463B3635674F463CA
:104C4000F46B3374F58C5EE75DE75EE71DDFDCD661
:104C5000DCD6BCD69BCE5AC63ABED9B5B8AD77A580
:104C6000379DD58C747C947C747C5153D142D23A5C
:104C7000F23AF23AF13A9132534BB55B1243CC1906
:104C80000D226E2A724BF45B776CB86CB874B874F2
:104C90009874B974D97CFA7CF97CF97C1A853A8DC0
:104CA0003A8DFA84B97CB974B97499749974797429
:104CB0007974787478747874987498749874987413
:104CC00098743B8D5B8D5B8D5B8D7B8D7B957B9530
:104CD0007B959B957B959B9DBB9D9B955B8D7B8DD4
:104CE0007B8D7B8D9B959B957A957A955A8D5A8D68
:104CF0005A855B853A853A7D1A7DFA7CFA7C1A7D65
:104D00001B7D1B7D1B7D1B7D3B853B853B853A8544
:104D10003A857B8DBC9DBB9DBB9DBB9DBB9D9A9DDC
:104D20005A955A955A955A955A8D3A8D3A8D3A8D8B
:104D30003A8D3B8D3B853B853A853A853985398D62
:104D4000B363925BD88418851BAEB9A5579D7EE7E7
:104D50005DE73DE75EE77FEF7EEF5DE73DE71CDF68
:104D6000DCD69BCE5AC6D8B597AD579D3795F68CF5
:104D7000B5848E3A0E2A0F222F222F222F220E22A6
:104D8000B13A124312434E2AED216E2A724BD35B85
:104D9000D874F97CD97CB874B874B874D97CFA84A6
:104DA000FA84F9841A8D5A8D3A8DF984D984D97C84
:104DB000D97CB97CB874B97CB97CB97CB97CB97C34
:104DC000D97CD97CD97CD87CD97C9B959B959B95AB
:104DD0009B959B959B959B959B959B959B959B9553
:104DE0009B959B8D9C8D7B8D5B855B853B851B851A
:104DF0001A7D1A7D1A7D1A7D1A7D1A7D1A7D1A7DFB
:104E00001A7D1A7D1A853B853B853B855B855B85D5
:104E10003B853B853B853B853B855B8D5A8D5A8D1C
:104E20005A955A955A955A9539955A955A957A950B
:104E30007B957A957A957A957A955A8D5A8D5B8D70
:104E40005B8D5A959A9D178DB25BB2633995977CAD
:104E5000B363347498A59FEF7EEF9EEFBFF7BFF763
:104E6000BFFF9EF75DEF1CDFDCD69BCE3ABEF9B5E7
:104E7000B8AD78A516951695F68CEF4A8F3A6F3A2D
:104E8000703A8F328F328F32524B1143AF3A2D2A04
:104E90004E2A6E32524BB35BB874D97CD97CB87C45
:104EA000B87CB87CB87CB87CB87CD87CF984F984B0
:104EB000F984D984B87C987C987C987CB87CD97C1F
:104EC000D97CD97CD97CF97CF97CD97CD97CD97CFA
:104ED000D87C9C959C959C959C959B955B8D5B8DBA
:104EE0005B8D5B8D5A855A855A853A853B851A7D3F
:104EF0001A7DFB7CFB7CFB7C1A7D1A7D1B7D3B7D38
:104F00003B7D3B7D3B7D3B7D3B855B855B8D5B8D51
:104F10005B8D5B8D5B8D3B853B851A851A7D1A7D8C
:104F20001A7D1A851A855A8D5A955A953A9539954A
:104F3000398D3A955A955A957A957A957A955A95E2
:104F40005A955A953A8D3A8D3B955A95BA9DF68465
:104F5000B15BB263F884935B5153547CD9AD9FEF3E
:104F60005DE71CE7DCDE9BD65AC619BEB7AD56A579
:104F7000159DD58C9484537C33741374D26B537CFD
:104F8000D58CD263B363B463B463B463B35BB35B14
:104F9000D45B1143AF3AEC21AB190D22314B935343
:104FA0007774B87CB87CB87C9874B87CB87CB87CD2
:104FB000B87CB87CB87CB87CB87CB87C987C7874B9
:104FC000987CB87CB97CB874B874987498749874E8
:104FD000B87498749874977498745B8D5B8D5B8DBE
:104FE0005B855B853A853A851A851A853A853A85C7
:104FF0003A853A853A851A7D1A7D1A7D1B7D1A7D80
:105000003B853B853B853B853B853B853B853B85A0
:105010003B851A851A851A853A851A851A851A8557
:10502000FA84F984F97CFA7CFA7C1A8519851A8548
:105030003A8D3A8D5A957A957B957A957B957B95A5
:105040007A957A955A955A955A953A8D3A8D3A8D20
:105050003A8D3A95DAA5D684B263D363188DD88495
:10506000799D789DD9AD9BCE39C6B7B556AD159D06
:10507000F594D58C9484537C32741274126CF26B58
:10508000126C136CD26B126C3374EF4AF04AF1421B
:10509000F142F142F042D03A324BF142D03A0D2285
:1050A0006A110C22314372539774D97CD97CD87C15
:1050B000B87CD97CD97CD97CD97CD97CD87CD87C6B
:1050C000D87CB87CB87C9874987498749874B874C8
:1050D000B8749874987498749774776C776C576CEC
:1050E000776C1A7D1A7D1A7D1A7D1A7D1A7D1A7DBC
:1050F0001A7D1A7D1A853B853A853A853A853B8526
:105100003B855B855B855B855A855B8D5B8D5B8DA8
:105110005B8D5A855B855B8D5B8D5B8D5B957B9530
:105120007B957B959B957B957B957B953B8D3A8578
:105130003A853A853A8D3A8D3A8D3A8D5A957A95D7
:105140009B9D9B957B957A957A955A955A955A95FC
:105150005A8D398D3A8D3A8D3A8D3A8DDBA5B57CD5
:10516000D263F36359953995757C547CF9B5DCD6D7
:105170009ACE39C6F8BDB8B5B8AD97A5369DD58CD1
:1051800094843374136CF26BF263F36BF36B336CD4
:105190005474304BF142F242F242F1421143F14277
:1051A000524BF1428F320C220C222C2A1043B25364
:1051B000B77CF984F984D97CD97CD97CD97CD97C19
:1051C000D97CD87CD874D874D87CB87CD87CB87496
:1051D0009874776C576C576C776C97749874B87434
:1051E000F97CD97CD87CB87C98743B7D3B7D3B7D39
:1051F0003B7D3B7D3B7D3B7D3B7D3B7D1A7D1A7D31
:105200001A7D1A7D1A7D1A7D3A853A855B855B8504
:105210005A8D5B8D5B8D7B8D7B8D7B8D7B8D7B8DAF
:105220007B959B959B9D9B9D9B9D9B9D9B9D9B9DEE
:105230007B957B957B957B8D7B8D7B957B957B95FE
:105240005A8D3A8D3A8D1A8D5A955A8D3A8D3A8DDE
:105250003A8D5A955A8D5A8D5A8D5A8D3A8D3A8D6E
:105260003A8D3A8DFBA5957CD263F363D784146C99
:105270003474537C3ABE1DDFDCD6BBD69BCE9BCEAE
:105280005AC639BED8B597A5579DF6949484337401
:10529000F26BF26BF36B336C7474F363B45BB45303
:1052A000B453B453B453945B7353F142903AEC212A
:1052B0000C226D32304B92539774D97CD87CB87CD9
:1052C000B87C98749874987498749874B774B77418
:1052D000987498749874986C986C986C776C776CD8
:1052E0009874B87CF97C19853A851A85F984F97C1B
:1052F000D97C000000000000000000000000000059
:10530000000000183C3C3C1818001818000000660B
:105310006666240000000000000000000000006C31
:105320006CFE6C6C6CFE6C6C00000018187CC6C2C5
:10533000C07C0686C67C18180000000000C2C60C9F
:10534000183066C60000000000386C6C3876DCCC83
:10535000CC76000000181818300000000000000093
:1053600000000000000C183030303030180C000005
:1053700000000030180C0C0C0C0C18300000000061
:10538000000000663CFF3C660000000000000000DA
:105390000018187E1818000000000000000000002F
:1053A000000000181818300000000000000000FE87
:1053B00000000000000000000000000000000000ED
:1053C0001818000000000002060C183060C08000B1
:1053D0000000000000386CC6C6D6C6C66C38000097
:1053E00000000018387818181818187E00000000FF
:1053F000007CC6060C183060C6FE00000000007C71
:10540000C606063C0606C67C00000000000C1C3CDC
:105410006CCCFE0C0C1E0000000000FEC0C0C0FCE6
:105420000606C67C00000000003860C0C0FCC6C68E
:10543000C67C0000000000FEC6060C18303030307C
:1054400000000000007CC6C6C67CC6C6C67C000044
:105450000000007CC6C6C67E06060C780000000070
:1054600000001818000000181800000000000000DC
:10547000181800000018183000000000000C183048
:1054800060C06030180C00000000000000007E00CA
:10549000007E000000000000006030180C060C18B0
:1054A000306000000000007CC6C60C1818001818F8
:1054B00000000000007CC6C6DEDEDEDCC07C000032
:1054C00000000010386CC6C6FEC6C6C6000000004C
:1054D00000FC6666667C666666FC00000000003CB8
:1054E00066C2C0C0C0C2663C0000000000F86C6626
:1054F000666666666CF80000000000FE666268780A
:10550000686266FE0000000000FE666268786860FF
:1055100060F000000000003C66C2C0C0DEC6663A13
:105520000000000000C6C6C6C6FEC6C6C6C600004D
:105530000000003C181818181818183C000000004B
:10554000001E0C0C0C0C0CCCCC780000000000E60B
:10555000666C6C786C6C66E60000000000F06060C1
:105560006060606266FE0000000000C6EEFED6C607
:10557000C6C6C6C60000000000C6E6F6FEDECEC601
:10558000C6C600000000007CC6C6C6C6C6C6C67C2D
:105590000000000000FC6666667C606060F0000051
:1055A0000000007CC6C6C6C6C6D6DE7C0E00000063
:1055B00000FC6666667C6C6666E600000000007CA7
:1055C000C6C660380CC6C67C00000000007E7E5A4D
:1055D00018181818183C0000000000C6C6C6C6C639
:1055E000C6C6C67C0000000000C6C6C6C6C6C66CDD
:1055F00038100000000000C6C6C6C6D6D6FE6C6CC9
:105600000000000000C6C6C67C387CC6C6C60000C6
:10561000000000666666663C1818183C0000000032
:1056200000FEC68C183060C2C6FE00000000003CC0
:10563000303030303030303C000000000080C0E0BE
:1056400070381C0E060200000000003C0C0C0C0C14
:105650000C0C0C3C000010386CC600000000000070
:10566000000000000000000000000000000000003A
:1056700000FF0030180C00000000000000000000D7
:10568000000000000000780C7CCCCC76000000000C
:1056900000E06060786C6666667C000000000000D8
:1056A00000007CC6C0C0C67C00000000001C0C0CC2
:1056B0003C6CCCCCCC7600000000000000007CC626
:1056C000FEC0C67C00000000001C3632307C30304A
:1056D0003078000000000000000076CCCCCC7C0CC0
:1056E000CC78000000E060606C76666666E60000DC
:1056F00000000018180038181818183C00000000A6
:10570000000606000E0606060666663C000000E07F
:105710006060666C786C66E600000000003818185F
:1057200018181818183C0000000000000000ECFEDB
:10573000D6D6D6D60000000000000000DC66666603
:10574000666600000000000000007CC6C6C6C67C7D
:105750000000000000000000DC6666667C6060F00F
:1057600000000000000076CCCCCC7C0C0C1E0000AD
:1057700000000000DC76666060F0000000000000C1
:1057800000007CC6701CC67C000000000010303099
:10579000FC303030361C0000000000000000CCCC93
:1057A000CCCCCC760000000000000000C6C6C66C61
:1057B00038100000000000000000C6C6D6D6FE6CFF
:1057C0000000000000000000C66C38386CC6000005
:1057D000000000000000C6C6C6C67E060C780000A9
:1057E00000000000FECC183066FE00000000000E35
:1057F000181818701818180E000000000018181853
:105800001818181818180000000000701818180E42
:105810001818187000000076DC000000000000007E
:1058200000000000000000000010386CC6C6FE003A
:10583000000013232D33383C404346484A4C4E5019
:1058400064010306090B0E10131517191C1E2022E4
:105850002426282A2C2D2F31333537393B3D3F4222
:1058600044475E11273C4C5D6C78849099A2AAB2A3
:10587000BAC0C7CCD2D7DCE0E4E8EDF0F4F7FBFE29
:105880004C01530002B4B002000011241FBECFE54A
:10589000D8E0DEBFCDBF12E0A0E6B0E0E8ECFBE769
:1058A00002C005900D92A63DB107D9F712E0A6ED12
:1058B000B2E001C01D92AB3EB107E1F70E94AB32EE
:1058C0000C94E23D0C940000C398BB9AC59ABD9A13
:1058D000C098B89AC798BF9AC69AC49ABC9A80E5ED
:1058E0008DB981E08EB98EB108958FB9779BFECFC7
:1058F0000895C4988FB9779BFECF1FB8779BFECFD2
:10590000C49A08958FB9779BFECF1FB8779BFECFBF
:1059100008959FB9779BFECF8FB9779BFECF0895EF
:10592000C09A0000C0980895C398C09AC49A80E5B0
:1059300093EC0197F1F7C39A8EE591E024EF31E003
:10594000F9013197F1F70197D9F7C0988CEB0E94D4
:10595000792C8AE28FB9779BFECF1FB8779BFECF59
:105960001FB8779BFECF1FB8779BFECFC09A000071
:10597000C0988AEC0E94792CE0E8F8E584918FB910
:10598000779BFECF1FB8779BFECF319688E5E9382D
:10599000F807A1F78BEC0E94792CE3E6F8E58491F7
:1059A0008FB9779BFECF1FB8779BFECF1FB8779B31
:1059B000FECF1FB8779BFECF319688E5E038F80719
:1059C00071F7E1E4F8E591E084918FB9779BFECF20
:1059D0001FB8779BFECF9FB9779BFECF1FB8779BF1
:1059E000FECF319688E5E336F80771F78CEC0E941C
:1059F000792CE2E3F8E584918FB9779BFECF1FB84D
:105A0000779BFECF319688E5E134F807A1F78DEC5E
:105A10000E94792C1FB8779BFECF1FB8779BFECFD3
:105A200080ED0E94792C1FB8779BFECF1FB8779B23
:105A3000FECF84E90E94792C85E10E94792C88E0D0
:105A40008FB9779BFECF1FB8779BFECF81E08FB9D0
:105A5000779BFECF1FB8779BFECF8BE88FB9779BE4
:105A6000FECF1FB8779BFECF81E08FB9779BFECF2B
:105A70001FB8779BFECF85E70E94792C1FB8779BD4
:105A8000FECF1FB8779BFECF8FE88FB9779BFECFF5
:105A90001FB8779BFECF8AEA0E94792C1FB8779BAC
:105AA000FECF1FB8779BFECF8FEA8FB9779BFECFD3
:105AB0001FB8779BFECF8FEA8FB9779BFECF1FB8B9
:105AC000779BFECF83E08FB9779BFECF1FB8779B84
:105AD000FECF8BEA0E94792C1FB8779BFECF1FB8B0
