:100000000C9416020C9433020C9433020C943302B9
:100010000C9429030C9433020C9433020C94330295
:100020000C9433020C9433020C9433020C9433027C
:100030000C9433020C9433020C9433020C9433026C
:100040000C9433020C9433020C9433020C9433025C
:100050000C943302000000000000000000000000CB
:100060000000000000000000000000000000000090
:100070000000000000000000000000000000000080
:100080000000000006020E1F081F0C1F0E0E0000CD
:100090000800010E0E0E0F0E071F1F0E11071C1178
:1000A0000111110E0F0E0F1E1F11111111111F0042
:1000B000000000000000010010000C000102080117
:1000C000030000000000000002000000000000002B
:1000D0000000000000000000000000000000000020
:1000E0000000000000000000000000000000000010
:1000F00000000000000000000000000000000009F7
:100100000311080C0102111111060604000211115D
:100110001111110901011111020809011B1111111D
:100120001111010411111111111000000000000043
:100130000001001000121E0100000102000000007A
:1001400000000002000000000000000000000000AD
:10015000000000000000000000000000000000009F
:10016000000000000000000000000000000000008F
:1001700000000000000000000000090210040A0F47
:10018000011011110606020F0410101111011101C6
:1001900001011102080501151311111111010411BA
:1001A00011110A11080000000000000E0D0E160EBD
:1001B00002110D030809021B0D0E0F160D0E07117B
:1001C000111511111F0000000000000000000000C8
:1001D000000000000000000000000000000000001F
:1001E000000000000000000000000000000000000F
:1001F00000000000000902080809100F080E1E0088
:10020000000100080816110F01110F0F1D1F020831
:1002100003011515110F110F0E04111115040A0415
:10022000000000000000101301191107111302084B
:10023000050215131111191301021111150A1108E4
:1002400000000000000000000000000000000000AE
:10025000000000000000000000000000000000009E
:10026000000000000000000000000000000000008E
:10027000090204101F10110411100000020F0404E1
:10028000151F1101110101111102080501111911A8
:1002900001150510041111150A04020000000000E8
:1002A000001E1101111F021E110208030215111177
:1002B0000F1E010E02111115041E040000000000A3
:1002C000000000000000000000000000000000002E
:1002D000000000000000000000000000000000001E
:1002E00000000000000000000000000902021108E8
:1002F000111104110806060400020015111111095C
:10030000010110110209090111111101090910045B
:10031000110A151104010000000000001111111153
:100320000102101102090502111111011001101230
:10033000190A150A10020000000000000000000069
:1003400000000000000000000000000000000000AD
:10035000000000000000000000000000000000009D
:1003600000000000000006071F0E080E0E040E0617
:100370000604080001040E110F0E071F011E1107CD
:1003800006111F11110E0116110F040E040A11049B
:100390001F0000000000001E0F0E1E0E020E1107AF
:1003A00006090711110E0110010F0C16040A110E97
:1003B0001F0000000000000000000000000000001E
:1003C000000000000000000000000000000000002D
:1003D000000000000000000000000000000000001D
:1003E000000000000000000000000000020000000B
:1003F00000000000000000000000000000000000FD
:1004000000000000000000000000000000000000EC
:1004100000000000000000000000000000000000DC
:1004200000000000000000000000000011241FBEBA
:10043000CFE5D8E0DEBFCDBF11E0A0E6B0E0EEE250
:10044000FCE002C005900D92A032B107D9F712E08E
:10045000A0E2B1E001C01D92A737B107E1F70E9409
:1004600035020C9415060C9400008EE180936D010A
:100470000E9479020E94870260E875E280E090E0C5
:100480000E949C050E9481020E94E3040E94EE04E7
:1004900081E08093B6018093B8018093D601809368
:1004A000D7018093D8018093D9018093F60180937E
:1004B000F801FFCF9B01AC01852F9927AA27BB2705
:1004C0008FB9779BFECFCA01AA27BB278FB9779B2D
:1004D000FECFBB27A52F942F832F8FB9779BFECFFD
:1004E0002FB9779BFECFC49A86E08A95F1F7C4981E
:1004F000089587B3806B87BB8DB180658DB9709A85
:1005000008958FEF8ABB8BBBBB9AC39A089585B5BC
:10051000886085BD85B5866085BD8BE983BD80E833
:1005200089BF78940895482F20E030E0662311F4C5
:1005300021E030E080E090E0442311F481E090E09D
:10054000282B392B80E0493008F081E090E06132BF
:1005500008F091E0892B90E0282B392B232B19F000
:1005600041E061E002C0413031F4E62FF0E0EB58A9
:10057000FE4F81E08083423039F4E62FF0E0EA5804
:10058000FE4F81E0878F0895433029F4E62FF0E095
:10059000EB54FE4F1BC0443029F4E62FF0E0EB5241
:1005A000FE4F14C0453029F4E62FF0E0EB50FE4F2B
:1005B0000DC0463029F4E62FF0E0EB5EFD4F06C09B
:1005C000473039F4E62FF0E0EB5CFD4F81E08083AB
:1005D0000895483031F4E62FF0E0EB5AFD4F81E00A
:1005E000808308950F931F938B019C01642F7727BD
:1005F00067FD709547FD0AC0A901980104C0220F4C
:10060000331F441F551F6A95D2F70DC088279927BD
:10061000861B970BA901980104C0569547953795FD
:1006200027958A95D2F7B901CA011F910F910895B4
:1006300020E090E002C02F5F932F392F3F5FE22F21
:10064000F0E0EF5DFE4F80818823A9F7909376025A
:1006500008951F920F920FB60F9211248F929F92BE
:10066000AF92BF92CF92DF92EF92FF920F931F93C0
:100670002F933F934F935F936F937F938F939F93AA
:10068000AF93BF93CF93DF93EF93FF9380902001BD
:1006900083E0881609F47CC0881538F081E088165C
:1006A000B9F1881508F454C013C085E0881609F420
:1006B000B3C0881608F490C086E0881609F4CCC050
:1006C00087E0881609F4E8C0EE24FF24870104C1FE
:1006D000C6E7D1E0EE24FF248701B1E0AB2EB12CB8
:1006E000C12CD12C299130E040E050E0C601B50189
:1006F0000E94AD05E60EF71E081F191FAA0CBB1CB1
:10070000CC1CDD1C81E0C639D80761F78EEFE3C051
:10071000C6E9D1E0EE24FF248701F1E0AF2EB12C31
:10072000C12CD12C299130E040E050E0C601B50148
:100730000E94AD05E60EF71E081F191FAA0CBB1C70
:10074000CC1CDD1C81E0C63BD80761F78DEFC3C030
:10075000C6EBD1E0EE24FF24870171E0A72EB12C77
:10076000C12CD12C299130E040E050E0C601B50108
:100770000E94AD05E60EF71E081F191FAA0CBB1C30
:10078000CC1CDD1C81E0C63DD80761F78BEFA3C010
:10079000EE24FF24870151E0A52EB12CC12CD12CD1
:1007A00040E6942EE92DF0E0EA58FE4F608170E0BB
:1007B00080E090E0A60195010E94AD05E60EF71ECF
:1007C000081F191FAA0CBB1CCC1CDD1C939480E8CD
:1007D000981641F787EF7FC0C6EFD1E0EE24FF24E3
:1007E000870121E0A22EB12CC12CD12C299130E01F
:1007F00040E050E0C601B5010E94AD05E60EF71ECF
:10080000081F191FAA0CBB1CCC1CDD1C82E0C631C2
:10081000D80761F78FEE5FC0C6E1D2E0EE24FF2477
:10082000870181E0A82EB12CC12CD12C299130E078
:1008300040E050E0C601B5010E94AD05E60EF71E8E
:10084000081F191FAA0CBB1CCC1CDD1C82E0C63380
:10085000D80761F78FED3FC0C6E3D2E0EE24FF2456
:100860008701A1E0AA2EB12CC12CD12C299130E016
:1008700040E050E0C601B5010E94AD05E60EF71E4E
:10088000081F191FAA0CBB1CCC1CDD1C82E0C6353E
:10089000D80761F78FEB1FC0C6E5D2E0EE24FF2436
:1008A0008701E1E0AE2EB12CC12CD12C299130E092
:1008B00040E050E0C601B5010E94AD05E60EF71E0E
:1008C000081F191FAA0CBB1CCC1CDD1C82E0C637FC
:1008D000D80761F78FE78BBBC801B7010E945A02A6
:1008E000882D8F5F80932001883010F010922001B6
:1008F00080914A018F5F80934A018091490188234A
:10090000F1F490914A0180916D01981739F4109299
:100910004A0180915C018F5F80935C0180915C0152
:1009200090E02091760246E0249F900111242D5DF5
:100930003F4F8217930731F410925C0103C084E2A9
:1009400080935C01FF91EF91DF91CF91BF91AF91C7
:100950009F918F917F916F915F914F913F912F91D7
:100960001F910F91FF90EF90DF90CF90BF90AF90CD
:100970009F908F900F900FBE0F901F901895482F4B
:1009800088E2E1E2F1E0DF011D928A95E9F7242F88
:10099000392FC901DC0104C0F0E0EF5DFE4F808318
:1009A000EA2FE41B8D918823B9F7E093760208952E
:1009B00080E091E0E6E7F1E0DF019C011D9221502B
:1009C0003040E1F7089581E291E060E070E048E2B4
:1009D00050E00E94EE050E9418030895AF92BF9266
:1009E000CF92DF92EF92FF920F931F93DF93CF93FB
:1009F000CDB7DEB7C055D0400FB6F894DEBF0FBEFE
:100A0000CDBFB39976C084EF91E024EF31E0F901D6
:100A10003197F1F70197D9F7B3996BC019E2E12E3D
:100A2000F12CEC0EFD1E88E2F70111928A95E9F790
:100A30008E010F5F1F4FC80160E070E048E250E098
:100A40000E94EE0580E690E00E94BF040E94180319
:100A500081E08093490185E690E00E948F0583E85C
:100A600090E00E948F0581EA90E00E948F05580176
:100A700067010E949805813361F489EB90E00E9440
:100A80008F05C5010E948F058AED90E00E948F05B9
:100A9000F0CF823371F78EED90E00E948F0500E079
:100AA0000E949805182F81110F5F812F0E948B05DE
:100AB000A02FB0E01197F601EA0FFB1F10831D3045
:100AC00011F01A3069F7AC0DBD1D1C92C70160E032
:100AD00070E048E250E00E94FE0580E191E00E9453
:100AE0008F05C50160E070E048E250E00E94EE052D
:100AF000C0CFC05BDF4F0FB6F894DEBF0FBECDBFD7
:100B0000CF91DF911F910F91FF90EF90DF90CF90E9
:100B1000BF90AF9008955D9BFECF8CB90895FC0106
:100B200003C05D9BFECF8CB981918823D1F70895D6
:100B30005F9BFECF8CB108959B01AC0160ED72E12B
:100B400083E190E00E94CC052150304030BD29B9AE
:100B500088E18AB986E880BD0895629FD001739FBD
:100B6000F001829FE00DF11D649FE00DF11D929F49
:100B7000F00D839FF00D749FF00D659FF00D992788
:100B8000729FB00DE11DF91F639FB00DE11DF91FAC
:100B9000BD01CF0111240895A1E21A2EAA1BBB1B8F
:100BA000FD010DC0AA1FBB1FEE1FFF1FA217B30739
:100BB000E407F50720F0A21BB30BE40BF50B661F4F
:100BC000771F881F991F1A9469F760957095809513
:100BD00090959B01AC01BD01CF010895DC01CB01D3
:100BE000FC01E199FECF06C0FFBBEEBBE09A319657
:100BF0000DB20D9241505040B8F70895DC01CB0181
:100C000003C02D910E94090641505040D0F708952D
:100C1000262FE199FECF9FBB8EBB2DBB0FB6F8945C
:0E0C2000E29AE19A0FBE01960895F894FFCF74
:100C2E00434F4E46004B4F4E464947555241434A5D
:100C3E004120575953574945544C41435A410D0A87
:100C4E000D0A00312E504F44474C41442041475429
:100C5E0055414C4E45474F2054454B5354550D0A64
:100C6E0000322E5A41504953204E4F5745474F2080
:100C7E0054454B5354550D0A00416B7475616C6E9F
:100C8E00696520777973776965746C616E79206E0A
:100C9E006170697320746F3A2000200D0A0057703E
:100CAE00726F7761647A206E6F7779206E617069EA
:100CBE00732069207A617477696572647A206B6C2F
:100CCE00617769737A656D20454E5445520D0A0061
:100CDE000D0A5A61706973616E6F20210D0A000052
:00000001FF
