:100000000C942A000C943C000C943C000C943C0092
:100010000C943C000C943C000C943C000C943C0070
:100020000C943C000C943C000C943C000C943C0060
:100030000C943C000C943C000C943C000C943C0050
:100040000C943C000C943C000C943C000C943C0040
:100050000C943C0011241FBECFE5D8E0DEBFCDBF1D
:1000600010E0A0E6B0E001C01D92A136B107E1F7B3
:100070000E9442000C944F000C9400009FEF97BB2D
:1000800088BB089581E0809360000E944A0080E070
:1000900090E00895809160000E943E000895F894D9
:0200A000FFCF90
:00000001FF
