:100000000C943A000C944C000C944C000C944C0052
:100010000C949F000C944C000C944C000C944C00DD
:100020000C944C000C944C000C944C000C944C0020
:100030000C944C000C944C000C944C000C944C0010
:100040000C944C000C944C000C944C000C944C0000
:100050000C944C000C080C0C120C1212120A081012
:100060001208040812080210120802120C3E1E0C9C
:100070000000000011241FBECFE5D8E0DEBFCDBFD9
:1000800011E0A0E6B0E001C01D92A236B107E1F791
:100090000E9483000C9464010C9400009B01AC014D
:1000A000852F9927AA27BB278FB9779BFECFCA0137
:1000B000AA27BB278FB9779BFECFBB27A52F942FED
:1000C000832F8FB9779BFECF2FB9779BFECFC49A32
:1000D00083E08A95F1F7C498089587B3806B87BB56
:1000E0008DB180658DB9709A8FEF81BB82BB089509
:1000F00085B5886085BD85B5866085BD81E283BD97
:1001000080E889BF08950E946D000E94780060E039
:1001100070E080E090E00E944E00789420E044E19E
:1001200051E02093610080E197E2FA013197F1F705
:100130000197D9F72F5F2430A0F320E0F2CF1F9270
:100140000F920FB60F9211241F932F933F934F934B
:100150005F936F937F938F939F93AF93BF93EF932F
:10016000FF9310916000133009F444C0143028F458
:10017000113001F1123070F50DC0153009F45AC07C
:10018000153008F447C0163009F464C0173009F080
:1001900081C070C08FEF82BBE0916100F0E0EC5A4B
:1001A000FF4FE4916E2F70E080E090E00E944E00DF
:1001B0008EEF6FC08FEF82BBE0916100F0E0E85AF4
:1001C000FF4FE4916E2F70E080E090E00E944E00BF
:1001D0008DEF5FC08FEF82BBE0916100F0E0E45AE9
:1001E000FF4FE4916E2F70E080E090E00E944E009F
:1001F0008BEF4FC08FEF82BBE0916100F0E0E05ADF
:10020000FF4FE4916E2F70E080E090E00E944E007E
:1002100087EF3FC08FEF82BBE0916100F0E0EC59C7
:10022000FF4FE4916E2F70E080E090E00E944E005E
:100230008FEE2FC08FEF82BBE0916100F0E0E859B4
:10024000FF4FE4916E2F70E080E090E00E944E003E
:100250008FED1FC08FEF82BBE0916100F0E0E459A9
:10026000FF4FE4916E2F70E080E090E00E944E001E
:100270008FEB0FC08FEF82BBE0916100F0E0E0599F
:10028000FF4FE4916E2F70E080E090E00E944E00FE
:100290008FE782BB812F8F5F80936000883010F0E2
:1002A00010926000FF91EF91BF91AF919F918F915C
:1002B0007F916F915F914F913F912F911F910F907F
:0C02C0000FBE0F901F901895F894FFCF10
:00000001FF
