:100000000C9432000C944F000C944F000C944F0051
:100010000C944F000C944F000C9408020C944F0069
:100020000C944F000C944F000C944F000C944F0014
:100030000C944F000C944F000C944F000C944F0004
:100040000C944F000C944F000C944F000C944F00F4
:100050000C944F004B6F64792070696C6F74612051
:100060005243350011241FBECFE5D8E0DEBFCDBF1F
:1000700010E0A0E6B0E0EEE1F6E002C005900D92DF
:10008000AC37B107D9F710E0ACE7B0E001C01D9282
:10009000A738B107E1F70E9451000C940D030C94AE
:1000A00000001F93D79ADF9A0E946E010E94F80108
:1000B000789480E060E00E94620184E590E00E9414
:1000C00014011FEF809186008823E1F381E060E056
:1000D0000E94620180E690E00E940201809184000B
:1000E00090E00E94DC0186E690E00E94020180918F
:1000F0008400873141F481E06AE00E9462018AE66F
:1001000090E00E94020180918400803139F481E006
:100110006AE00E9462018DE690E006C081E06AE03C
:100120000E94620184E790E00E9402011092860022
:100130001093840010938300C5CF80FF02C0DB9A28
:1001400001C0DB9881FF02C0DC9A01C0DC9882FF0D
:1001500002C0DD9A01C0DD9883FF02C0DE9A0895D7
:10016000DE98089589B390E023E0969587952A95C7
:10017000E1F78170CC998260CD998460CE998860D6
:1001800008951F93D698D598D498D398D99ADA9A87
:100190000E94B200182F1295107FDA98DA9A0E9406
:1001A000B200DA98812B1F910895D8980E94C1005F
:1001B00008951F93182FD69AD59AD49AD39AD9987E
:1001C000DA9A82958F700E949D00DA98DA9A812FD0
:1001D0000E949D00DA980E94D50087FDFCCF1F91F8
:1001E0000895D8980E94D9000895D89A0E94D900FD
:1001F0000895982F8058883008F49770892F0E94AE
:10020000F5000895CF93DF93EC0108C0892F805843
:10021000883008F49770892F0E94F50099919923EE
:10022000A9F7DF91CF910895CF93DF93EC010AC036
:10023000892F8058883010F0892F02C0892F87704D
:100240000E94F500FE0121969491992389F7DF9190
:10025000CF9108951F93CF93DF93EB0190E08770C8
:1002600090700896880F880F880F0E94F10010E0A8
:1002700089910E94F5001F5F1830D1F7DF91CF916F
:100280001F9108950F931F93CF93DF938B0190E0FD
:10029000877090700896880F880F880F0E94F10071
:1002A000C0E0D0E0F801EC0FFD1FE4918E2F0E941A
:1002B000F5002196C830D105A9F7DF91CF911F91A4
:1002C0000F910895813009F480E46058860F0E94F0
:1002D000F100089581E00E94F10008950F931F93AB
:1002E000D69AD59AD49AD39AD09AD29AD19AD898A3
:1002F000DA98D99880E395E70197F1F7D898D998DB
:1003000080E30E949D0088E090E20197F1F780E38E
:100310000E949D0008EC10E0C8010197F1F780E20F
:100320000E949D00C8010197F1F788E20E94F10048
:1003300088E00E94F1008CE00E94F10086E00E94BB
:10034000F1000E946A011F910F9108950F931F936E
:10035000CF93DF938B0190E0877090700896880FA1
:10036000880F880F0E94F100C0E0D0E0C8018C0F18
:100370009D1F0E94E1020E94F5002196C830D10520
:10038000A9F7DF91CF911F910F910895CF93DF933C
:10039000EC0121960E94E102982F81508E3F48F493
:1003A0008F57883008F49770892F0E94F500CE018E
:1003B000EFCFDF91CF910895DF93CF93CDB7DEB725
:1003C00061970FB6F894DEBF0FBECDBFBE016F5F61
:1003D0007F4F4AE050E00E94C0020E9402016196F5
:1003E0000FB6F894DEBF0FBECDBFCF91DF91089559
:1003F0008E98969A8EB582608EBD8EB58F7B8EBD9F
:100400001092850089B7806289BF10928600089596
:100410001F920F920FB60F9211242F933F938F9339
:100420009F9326B537B58091800090918100281B5D
:10043000390B86B597B590938100809380008EB577
:1004400090E489278EBD87E02B3B380710F010928F
:10045000850080918500882319F081E080937C00DD
:1004600080918500882389F410927E0010927D008F
:1004700010927F008EB580648EBD809185008F5F65
:100480008093850082E080937C0080917C008130A5
:1004900009F064C082E0213B380710F410927C0020
:1004A00087E02B3B380710F010927C0080917C0095
:1004B000813009F053C02254344028F080918500E7
:1004C0008F5F8093850080918500823008F441C061
:1004D0008091850080FD3DC080917D0090917E00DF
:1004E000880F991F90937E0080937D000EB406FEC6
:1004F00005C0816090937E0080937D0080917F0095
:100500008F5F80937F008D3020F18091860088235B
:10051000D9F420917D0030917E00822F8F738093DB
:100520008400C901807C9770689415F8969587952A
:100530001694E1F78093830020703870832F86959E
:10054000869586958093820010927C0081E080934E
:100550008600809185008F5F8093850080917C006C
:10056000882329F4109285008EB58F7B8EBD9F91D4
:100570008F913F912F910F900FBE0F901F90189564
:10058000FB019F01E8944230C4F04532B4F44A3094
:1005900029F497FB1EF4909581959F4F642F772740
:1005A0000E94F902805D8A330CF0895D8193CB0152
:1005B0000097A1F716F45DE251931082C9010C94E3
:1005C000E902E199FECF9FBB8EBBE09A99278DB3DC
:1005D0000895DC01FC01672F71917723E1F73297D1
:1005E00004C07C916D9370836291AE17BF07C8F30E
:1005F0000895AA1BBB1B51E107C0AA1FBB1FA6176A
:10060000B70710F0A61BB70B881F991F5A95A9F7BB
:0E06100080959095BC01CD010895F894FFCF20
:10061E006B65793A2000202020004F4B0043555245
:0C062E005F5550002020202020200000FC
:00000001FF
