:100000000C9432000C94B4000C944F000C944F00EC
:100010000C94DE000C944F000C944F000C944F0095
:100020000C944F000C944F000C9466000C944F00FD
:100030000C944F000C944F000C944F000C944F0004
:100040000C944F000C944F000C944F000C944F00F4
:100050000C944F00C0F9A4B0999282D88090FF0010
:100060000000000011241FBECFE5D8E0DEBFCDBFE9
:1000700010E0A0E6B0E0E2E8FAE002C005900D92E0
:10008000AC38B107D9F710E0ACE8B0E001C01D9280
:10009000A93AB107E1F70E944F010C943F050C9477
:1000A00000008FEF84BB85BB81B3806F81BB82B3BF
:1000B000806F82BB83B7886083BF83B7856083BF4F
:1000C0008DE08CBF89B7826089BF08951F920F921F
:1000D0000FB60F9211242F938F939F93EF93FF935B
:1000E00082B3806F82BB20918C00222339F4E0918F
:1000F0008E00F0E0EC5AFF4FE4911AC0213039F441
:10010000E0918F00F0E0EC5AFF4FE49111C02230F3
:1001100039F4E0919000F0E0EC5AFF4FE49108C010
:10012000233039F4E0918D00F0E0EC5AFF4FE49178
:10013000E5BB92B3E22FF0E0E05AFF4F808180955B
:10014000892382BB822F8F5F80938C00843010F0D4
:1001500010928C00FF91EF919F918F912F910F90B2
:100160000FBE0F901F9018951F920F920FB60F920F
:1001700011248F9381E0809364008F910F900FBEC4
:100180000F901F901895482F6AE00E94E604282FD0
:1001900030E084E0220F331F8A95E1F7842F0E941C
:1001A000E604892F822B0895282F22952F709AE03C
:1001B000299F900111248F70820F08951F920F9232
:1001C0000FB60F9211248F939F938091A70090E018
:1001D000009719F001978093A7008091A30090E009
:1001E000009719F001978093A3008091910090E00F
:1001F000009719F00197809391008091960090E00C
:10020000009719F00197809396009F918F910F901E
:100210000FBE0F901F9018950F931F9384E10E94BB
:10022000C30080939B0087E20E94C30080939C00E0
:100230008EE00E94C30080939D0084E0809397002D
:1002400082E10E94C300182F8093940083E00E94F3
:10025000C300809395009BE09093A40093E090935B
:10026000A50092E09093A600106C10939E00806809
:1002700080939F000AE910E082EA61E047E098017C
:100280000E949B048091A600F801808382EA68E0C6
:1002900041E098010E949B041F910F9108951F93C4
:1002A0008FEF87BB88BB8B9A85B5886085BD85B588
:1002B000876085BD8CE683BD89B7806889BF85B7B7
:1002C000826085BF8BB780648BBF929A78940E94BE
:1002D00096040E94A1030E9451001EE180916400D7
:1002E000882321F00E949601109264008091A7005B
:1002F0008823A1F71093A70020919200822F6AE033
:100300000E94E60480938E00822F0E94E604909360
:100310008F002091A800822F0E94E6048093900015
:10032000822F0E94E60490938D00D8CFDF93CF9365
:10033000CDB7DEB768970FB6F894DEBF0FBECDBF5E
:10034000DE011196E3E8F0E088E001900D92815023
:10035000E1F780E8BE016F5F7F4F0E945D0382EA94
:1003600061E048E02AE930E00E94BA0480919B00F5
:100370000E94D4008093930080919C000E94D4003E
:100380008093A80080919D000E94D40080939200E9
:1003900080919E009091A100990F990F282F22958E
:1003A000269526952370920F9093A6008F738093C5
:1003B00094000E94D4008093940080919F008F71DC
:1003C000809395000E94D4008093950080919F00B7
:1003D0008295869587708093970080E060E00E9408
:1003E0009503809192008A3020F485E690E00E9487
:1003F00035038091920090E00E940E0487E690E021
:100400000E9435038091A8008A3020F485E690E0B0
:100410000E9435038091A80090E00E940E0487E6B8
:1004200090E00E943503809193008A3020F485E6A5
:1004300090E00E9435038091930090E00E940E04AA
:1004400081E060E00E949503E0919700F0E09E015A
:10045000275F3F4F80E1D9011D928A95E9F789E630
:1004600090E09A8789878CE690E09C878B878FE65F
:1004700090E09E878D8782E790E0988B8F8785E755
:1004800090E09A8B898B88E790E09C8B8B8B8BE735
:1004900090E09E8B8D8BEE0FFF1FEC0FFD1F818573
:1004A00092850E94350387E690E00E943503809193
:1004B00094008A3020F485E690E00E943503809114
:1004C000940090E00E940E048EE790E00E943503B5
:1004D000809195008A3020F485E690E00E943503F3
:1004E0008091950090E00E940E048EE790E00E94BB
:1004F000350380E890E00E9435038091A6008A30A1
:1005000020F485E690E00E9435038091A60090E0FB
:100510000E940E04809195008C3069F580919400C2
:100520008F3149F580919200873129F58091A8009B
:100530008B3309F5809193008B33E9F480919E0011
:1005400082958695869583708330A9F482EA68E067
:1005500041E02AE930E00E94BA048091A100809332
:10056000A6008F5F80939A0082EA68E041E02AE962
:1005700030E00E949B0498B38091930080958F7324
:10058000907C892B88BB82B398E0892782BB6896D0
:100590000FB6F894DEBF0FBECDBFCF91DF910895A7
:1005A00080FF02C0DB9A01C0DB9881FF02C0DC9AA9
:1005B00001C0DC9882FF02C0DD9A01C0DD9883FF94
:1005C00002C0DE9A0895DE98089589B390E023E092
:1005D000969587952A95E1F78170CC998260CD999F
:1005E0008460CE99886008951F93D698D598D49842
:1005F000D398D99ADA9A0E94E502182F1295107FA3
:10060000DA98DA9A0E94E502DA98812B1F91089510
:10061000D8980E94F40208951F93182FD69AD59A5D
:10062000D49AD39AD998DA9A82958F700E94D00280
:10063000DA98DA9A812F0E94D002DA980E94080391
:1006400087FDFCCF1F910895D8980E940C03089550
:10065000D89A0E940C030895982F8058883008F487
:100660009770892F0E9428030895CF93DF93EC01A0
:1006700008C0892F8058883008F49770892F0E940D
:10068000280399919923A9F7DF91CF910895CF93EA
:10069000DF93EC010AC0892F8058883010F0892F31
:1006A00002C0892F87700E942803FE012196949131
:1006B000992389F7DF91CF9108951F93CF93DF930B
:1006C000EB0190E0877090700896880F880F880F74
:1006D0000E94240310E089910E9428031F5F1830B4
:1006E000D1F7DF91CF911F9108950F931F93CF936F
:1006F000DF938B0190E0877090700896880F880FC9
:10070000880F0E942403C0E0D0E0F801EC0FFD1F29
:10071000E4918E2F0E9428032196C830D105A9F7B5
:10072000DF91CF911F910F910895813009F480E4FA
:100730006058860F0E942403089581E00E942403DC
:1007400008950F931F93D69AD59AD49AD39AD09A94
:10075000D29AD19AD898DA98D99880E395E70197F8
:10076000F1F7D898D99880E30E94D00200E117E20F
:10077000C8010197F1F780E30E94D002C8010197F8
:10078000F1F780E20E94D002C8010197F1F788E2F8
:100790000E94240388E00E9424038CE00E9424032A
:1007A00086E00E9424030E949D031F910F910895EB
:1007B0000F931F93CF93DF938B0190E0877090701E
:1007C0000896880F880F880F0E942403C0E0D0E0AD
:1007D000C8018C0F9D1F0E9413050E9428032196BB
:1007E000C830D105A9F7DF91CF911F910F910895DE
:1007F000CF93DF93EC0121960E941305982F81502F
:100800008E3F48F48F57883008F49770892F0E94E4
:100810002803CE01EFCFDF91CF910895DF93CF93DF
:10082000CDB7DEB761970FB6F894DEBF0FBECDBF70
:10083000BE016F5F7F4F4AE050E00E94F2040E94C9
:10084000350361960FB6F894DEBF0FBECDBFCF91D2
:10085000DF910895909881E08A95F1F79198089535
:1008600082E08A95F1F7919A909881E08A95F1F764
:1008700091980895909882E0982F9A95F1F7919A1F
:1008800091E09A95F1F7909A8A95F1F70895582F8B
:1008900090E820E030E062E0892F852311F0909A03
:1008A00001C0909842E0862F8A95F1F7919A862FA1
:1008B0008A95F1F7919896952F5F3F4F2830310533
:1008C00059F7909A8898842F8A95F1F7919A80B376
:1008D000942F9A95F1F79198889A942F9A95F1F719
:1008E000809581700895909A889828E030E042E0E1
:1008F000942F9A95F1F7919A330F80993160942F44
:100900009A95F1F79198215099F7889A882311F0D8
:10091000909801C0909A82E0982F9A95F1F7919A59
:100920008A95F1F79198909A832F0895889A899AD9
:10093000909A919A08950F931F93CF93DF93162F58
:10094000042FE901909891E09A95F1F791980E940F
:100950004704812F0E94470404C089910E944704E4
:1009600001500023D1F70E943A04DF91CF911F91EB
:100970000F910895FF920F931F93CF93DF93182F3A
:10098000062FF42EE901909881E08A95F1F791986D
:10099000812F0E944704802F0E9447040E94300448
:1009A000812F81600E94470407C0FA9480E009F01B
:1009B00081E00E9473048993FF20B9F70E943A04F2
:1009C000DF91CF911F910F91FF900895991B79E0CE
:1009D00004C0991F961708F0961B881F7A95C9F7CF
:1009E00080950895FB019F01E8944230C4F04532A0
:1009F000B4F44A3029F497FB1EF4909581959F4FEB
:100A0000642F77270E942B05805D8A330CF0895D67
:100A10008193CB010097A1F716F45DE25193108208
:100A2000C9010C941B05E199FECF9FBB8EBBE09AD8
:100A300099278DB30895DC01FC01672F719177230D
:100A4000E1F7329704C07C916D9370836291AE1789
:100A5000BF07C8F30895AA1BBB1B51E107C0AA1F1B
:100A6000BB1FA617B70710F0A61BB70B881F991F4F
:100A70005A95A9F780959095BC01CD010895F894F9
:020A8000FFCFA6
:100A8200102040800130003A00506E005774008000
:100A92007200437A00507400536F004E64002D00C0
:0C0AA200323000040E10100E01110E0086
:00000001FF
