:100000000C942A000C9434000C9434000C943400AA
:100010000C9434000C9434000C9434000C94340090
:100020000C9434000C9434000C9434000C94340080
:100030000C9434000C9434000C9434000C94340070
:100040000C9434000C9434000C9434000C94340060
:100050000C94340011241FBECFE5D8E0DEBFCDBF25
:100060000E9436000C94EC010C9400007894BB9A2A
:1000700083B7816083BF83B7806483BF83B78063A6
:1000800083BF83E38CBFFFCF80FF02C0DB9A01C038
:10009000DB9881FF02C0DC9A01C0DC9882FF02C0BD
:1000A000DD9A01C0DD9883FF02C0DE9A0895DE98D4
:1000B000089589B390E023E0969587952A95E1F716
:1000C0008170CC998260CD998460CE9988600895C2
:1000D0001F93D698D598D498D398D99ADA9A0E9433
:1000E0005900182F1295107FDA98DA9A0E94590059
:1000F000DA98812B1F910895D8980E94680008957E
:100100001F93182FD69AD59AD49AD39AD998DA9A57
:1001100082958F700E944400DA98DA9A812F0E94AB
:100120004400DA980E947C0087FDFCCF1F9108955F
:10013000D8980E9480000895D89A0E94800008955F
:10014000982F8058883008F49770892F0E949C005F
:100150000895CF93DF93EC0108C0892F8058883031
:1001600008F49770892F0E949C0099919923A9F710
:10017000DF91CF910895CF93DF93EC010AC0892FCF
:100180008058883010F0892F02C0892F87700E9414
:100190009C00FE0121969491992389F7DF91CF91DC
:1001A00008951F93CF93DF93EB0190E087709070D9
:1001B0000896880F880F880F0E94980010E0899198
:1001C0000E949C001F5F1830D1F7DF91CF911F91E3
:1001D00008950F931F93CF93DF938B0190E0877067
:1001E00090700896880F880F880F0E949800C0E0D2
:1001F000D0E0F801EC0FFD1FE4918E2F0E949C00CF
:100200002196C830D105A9F7DF91CF911F910F91A9
:100210000895813009F480E46058860F0E949800A8
:10022000089581E00E94980008950F931F93D69A35
:10023000D59AD49AD39AD09AD29AD19AD898DA9851
:10024000D99880E395E70197F1F7D898D99880E39A
:100250000E94440088E090E20197F1F780E30E9459
:10026000440008EC10E0C8010197F1F780E20E9419
:100270004400C8010197F1F788E20E94980088E0E5
:100280000E9498008CE00E94980086E00E949800EE
:100290000E9411011F910F9108950F931F93CF9307
:1002A000DF938B0190E0877090700896880F880F1D
:1002B000880F0E949800C0E0D0E0C8018C0F9D1FFD
:1002C0000E94C0010E949C002196C830D105A9F768
:1002D000DF91CF911F910F910895CF93DF93EC01A0
:1002E00021960E94C001982F81508E3F48F48F576D
:1002F000883008F49770892F0E949C00CE01EFCFC0
:10030000DF91CF910895DF93CF93CDB7DEB761979B
:100310000FB6F894DEBF0FBECDBFBE016F5F7F4F3B
:100320004AE050E00E949F010E94A90061960FB62A
:10033000F894DEBF0FBECDBFCF91DF910895FB01D2
:100340009F01E8944230C4F04532B4F44A3029F4B5
:1003500097FB1EF4909581959F4F642F77270E94FD
:10036000D801805D8A330CF0895D8193CB010097C1
:10037000A1F716F45DE251931082C9010C94C801F3
:10038000E199FECF9FBB8EBBE09A99278DB308956C
:10039000DC01FC01672F71917723E1F7329704C0EC
:1003A0007C916D9370836291AE17BF07C8F3089577
:1003B000AA1BBB1B51E107C0AA1FBB1FA617B7078B
:1003C00010F0A61BB70B881F991F5A95A9F78095A7
:0C03D0009095BC01CD010895F894FFCF7A
:00000001FF
